{
  "_format": "hh-sol-artifact-1",
  "contractName": "GenerativeAlphaDev",
  "sourceName": "contracts/GenerativeAlphaDev.sol",
  "abi": [
    {
      "inputs": [
        {
          "internalType": "address",
          "name": "minter",
          "type": "address"
        },
        {
          "internalType": "uint256",
          "name": "maxSupply",
          "type": "uint256"
        },
        {
          "internalType": "string",
          "name": "_uri",
          "type": "string"
        },
        {
          "internalType": "uint256",
          "name": "_price",
          "type": "uint256"
        }
      ],
      "stateMutability": "nonpayable",
      "type": "constructor"
    },
    {
      "anonymous": false,
      "inputs": [
        {
          "indexed": true,
          "internalType": "address",
          "name": "owner",
          "type": "address"
        },
        {
          "indexed": true,
          "internalType": "address",
          "name": "approved",
          "type": "address"
        },
        {
          "indexed": true,
          "internalType": "uint256",
          "name": "tokenId",
          "type": "uint256"
        }
      ],
      "name": "Approval",
      "type": "event"
    },
    {
      "anonymous": false,
      "inputs": [
        {
          "indexed": true,
          "internalType": "address",
          "name": "owner",
          "type": "address"
        },
        {
          "indexed": true,
          "internalType": "address",
          "name": "operator",
          "type": "address"
        },
        {
          "indexed": false,
          "internalType": "bool",
          "name": "approved",
          "type": "bool"
        }
      ],
      "name": "ApprovalForAll",
      "type": "event"
    },
    {
      "anonymous": false,
      "inputs": [
        {
          "indexed": true,
          "internalType": "address",
          "name": "previousOwner",
          "type": "address"
        },
        {
          "indexed": true,
          "internalType": "address",
          "name": "newOwner",
          "type": "address"
        }
      ],
      "name": "OwnershipTransferred",
      "type": "event"
    },
    {
      "anonymous": false,
      "inputs": [
        {
          "indexed": true,
          "internalType": "bytes32",
          "name": "role",
          "type": "bytes32"
        },
        {
          "indexed": true,
          "internalType": "bytes32",
          "name": "previousAdminRole",
          "type": "bytes32"
        },
        {
          "indexed": true,
          "internalType": "bytes32",
          "name": "newAdminRole",
          "type": "bytes32"
        }
      ],
      "name": "RoleAdminChanged",
      "type": "event"
    },
    {
      "anonymous": false,
      "inputs": [
        {
          "indexed": true,
          "internalType": "bytes32",
          "name": "role",
          "type": "bytes32"
        },
        {
          "indexed": true,
          "internalType": "address",
          "name": "account",
          "type": "address"
        },
        {
          "indexed": true,
          "internalType": "address",
          "name": "sender",
          "type": "address"
        }
      ],
      "name": "RoleGranted",
      "type": "event"
    },
    {
      "anonymous": false,
      "inputs": [
        {
          "indexed": true,
          "internalType": "bytes32",
          "name": "role",
          "type": "bytes32"
        },
        {
          "indexed": true,
          "internalType": "address",
          "name": "account",
          "type": "address"
        },
        {
          "indexed": true,
          "internalType": "address",
          "name": "sender",
          "type": "address"
        }
      ],
      "name": "RoleRevoked",
      "type": "event"
    },
    {
      "anonymous": false,
      "inputs": [
        {
          "indexed": true,
          "internalType": "address",
          "name": "from",
          "type": "address"
        },
        {
          "indexed": true,
          "internalType": "address",
          "name": "to",
          "type": "address"
        },
        {
          "indexed": true,
          "internalType": "uint256",
          "name": "tokenId",
          "type": "uint256"
        }
      ],
      "name": "Transfer",
      "type": "event"
    },
    {
      "inputs": [],
      "name": "DEFAULT_ADMIN_ROLE",
      "outputs": [
        {
          "internalType": "bytes32",
          "name": "",
          "type": "bytes32"
        }
      ],
      "stateMutability": "view",
      "type": "function"
    },
    {
      "inputs": [],
      "name": "MAX_SUPPLY",
      "outputs": [
        {
          "internalType": "uint256",
          "name": "",
          "type": "uint256"
        }
      ],
      "stateMutability": "view",
      "type": "function"
    },
    {
      "inputs": [],
      "name": "MINTER_ROLE",
      "outputs": [
        {
          "internalType": "bytes32",
          "name": "",
          "type": "bytes32"
        }
      ],
      "stateMutability": "view",
      "type": "function"
    },
    {
      "inputs": [
        {
          "internalType": "address",
          "name": "to",
          "type": "address"
        },
        {
          "internalType": "uint256",
          "name": "tokenId",
          "type": "uint256"
        }
      ],
      "name": "approve",
      "outputs": [],
      "stateMutability": "nonpayable",
      "type": "function"
    },
    {
      "inputs": [
        {
          "internalType": "address",
          "name": "owner",
          "type": "address"
        }
      ],
      "name": "balanceOf",
      "outputs": [
        {
          "internalType": "uint256",
          "name": "",
          "type": "uint256"
        }
      ],
      "stateMutability": "view",
      "type": "function"
    },
    {
      "inputs": [],
      "name": "baseURI",
      "outputs": [
        {
          "internalType": "string",
          "name": "",
          "type": "string"
        }
      ],
      "stateMutability": "view",
      "type": "function"
    },
    {
      "inputs": [
        {
          "internalType": "uint256",
          "name": "tokenId",
          "type": "uint256"
        }
      ],
      "name": "getApproved",
      "outputs": [
        {
          "internalType": "address",
          "name": "",
          "type": "address"
        }
      ],
      "stateMutability": "view",
      "type": "function"
    },
    {
      "inputs": [],
      "name": "getChainID",
      "outputs": [
        {
          "internalType": "uint256",
          "name": "",
          "type": "uint256"
        }
      ],
      "stateMutability": "view",
      "type": "function"
    },
    {
      "inputs": [
        {
          "internalType": "bytes32",
          "name": "role",
          "type": "bytes32"
        }
      ],
      "name": "getRoleAdmin",
      "outputs": [
        {
          "internalType": "bytes32",
          "name": "",
          "type": "bytes32"
        }
      ],
      "stateMutability": "view",
      "type": "function"
    },
    {
      "inputs": [
        {
          "internalType": "bytes32",
          "name": "role",
          "type": "bytes32"
        },
        {
          "internalType": "address",
          "name": "account",
          "type": "address"
        }
      ],
      "name": "grantRole",
      "outputs": [],
      "stateMutability": "nonpayable",
      "type": "function"
    },
    {
      "inputs": [
        {
          "internalType": "bytes32",
          "name": "role",
          "type": "bytes32"
        },
        {
          "internalType": "address",
          "name": "account",
          "type": "address"
        }
      ],
      "name": "hasRole",
      "outputs": [
        {
          "internalType": "bool",
          "name": "",
          "type": "bool"
        }
      ],
      "stateMutability": "view",
      "type": "function"
    },
    {
      "inputs": [],
      "name": "isActive",
      "outputs": [
        {
          "internalType": "bool",
          "name": "",
          "type": "bool"
        }
      ],
      "stateMutability": "view",
      "type": "function"
    },
    {
      "inputs": [
        {
          "internalType": "address",
          "name": "owner",
          "type": "address"
        },
        {
          "internalType": "address",
          "name": "operator",
          "type": "address"
        }
      ],
      "name": "isApprovedForAll",
      "outputs": [
        {
          "internalType": "bool",
          "name": "",
          "type": "bool"
        }
      ],
      "stateMutability": "view",
      "type": "function"
    },
    {
      "inputs": [],
      "name": "name",
      "outputs": [
        {
          "internalType": "string",
          "name": "",
          "type": "string"
        }
      ],
      "stateMutability": "view",
      "type": "function"
    },
    {
      "inputs": [],
      "name": "owner",
      "outputs": [
        {
          "internalType": "address",
          "name": "",
          "type": "address"
        }
      ],
      "stateMutability": "view",
      "type": "function"
    },
    {
      "inputs": [
        {
          "internalType": "uint256",
          "name": "tokenId",
          "type": "uint256"
        }
      ],
      "name": "ownerOf",
      "outputs": [
        {
          "internalType": "address",
          "name": "",
          "type": "address"
        }
      ],
      "stateMutability": "view",
      "type": "function"
    },
    {
      "inputs": [],
      "name": "price",
      "outputs": [
        {
          "internalType": "uint256",
          "name": "",
          "type": "uint256"
        }
      ],
      "stateMutability": "view",
      "type": "function"
    },
    {
      "inputs": [
        {
          "components": [
            {
              "internalType": "uint256",
              "name": "tokenId",
              "type": "uint256"
            },
            {
              "internalType": "string",
              "name": "tokenURI",
              "type": "string"
            },
            {
              "internalType": "bytes",
              "name": "signature",
              "type": "bytes"
            }
          ],
          "internalType": "struct GenerativeAlphaDev.NFTVoucher",
          "name": "voucher",
          "type": "tuple"
        }
      ],
      "name": "redeem",
      "outputs": [],
      "stateMutability": "payable",
      "type": "function"
    },
    {
      "inputs": [],
      "name": "renounceOwnership",
      "outputs": [],
      "stateMutability": "nonpayable",
      "type": "function"
    },
    {
      "inputs": [
        {
          "internalType": "bytes32",
          "name": "role",
          "type": "bytes32"
        },
        {
          "internalType": "address",
          "name": "account",
          "type": "address"
        }
      ],
      "name": "renounceRole",
      "outputs": [],
      "stateMutability": "nonpayable",
      "type": "function"
    },
    {
      "inputs": [
        {
          "internalType": "bytes32",
          "name": "role",
          "type": "bytes32"
        },
        {
          "internalType": "address",
          "name": "account",
          "type": "address"
        }
      ],
      "name": "revokeRole",
      "outputs": [],
      "stateMutability": "nonpayable",
      "type": "function"
    },
    {
      "inputs": [
        {
          "internalType": "address",
          "name": "from",
          "type": "address"
        },
        {
          "internalType": "address",
          "name": "to",
          "type": "address"
        },
        {
          "internalType": "uint256",
          "name": "tokenId",
          "type": "uint256"
        }
      ],
      "name": "safeTransferFrom",
      "outputs": [],
      "stateMutability": "nonpayable",
      "type": "function"
    },
    {
      "inputs": [
        {
          "internalType": "address",
          "name": "from",
          "type": "address"
        },
        {
          "internalType": "address",
          "name": "to",
          "type": "address"
        },
        {
          "internalType": "uint256",
          "name": "tokenId",
          "type": "uint256"
        },
        {
          "internalType": "bytes",
          "name": "_data",
          "type": "bytes"
        }
      ],
      "name": "safeTransferFrom",
      "outputs": [],
      "stateMutability": "nonpayable",
      "type": "function"
    },
    {
      "inputs": [
        {
          "internalType": "bool",
          "name": "_isActive",
          "type": "bool"
        }
      ],
      "name": "setActive",
      "outputs": [],
      "stateMutability": "nonpayable",
      "type": "function"
    },
    {
      "inputs": [
        {
          "internalType": "address",
          "name": "operator",
          "type": "address"
        },
        {
          "internalType": "bool",
          "name": "approved",
          "type": "bool"
        }
      ],
      "name": "setApprovalForAll",
      "outputs": [],
      "stateMutability": "nonpayable",
      "type": "function"
    },
    {
      "inputs": [
        {
          "internalType": "string",
          "name": "_uri",
          "type": "string"
        }
      ],
      "name": "setBaseURI",
      "outputs": [],
      "stateMutability": "nonpayable",
      "type": "function"
    },
    {
      "inputs": [
        {
          "internalType": "uint256",
          "name": "_price",
          "type": "uint256"
        }
      ],
      "name": "setPrice",
      "outputs": [],
      "stateMutability": "nonpayable",
      "type": "function"
    },
    {
      "inputs": [
        {
          "internalType": "address",
          "name": "_vault",
          "type": "address"
        }
      ],
      "name": "setVault",
      "outputs": [],
      "stateMutability": "nonpayable",
      "type": "function"
    },
    {
      "inputs": [
        {
          "internalType": "bytes4",
          "name": "interfaceId",
          "type": "bytes4"
        }
      ],
      "name": "supportsInterface",
      "outputs": [
        {
          "internalType": "bool",
          "name": "",
          "type": "bool"
        }
      ],
      "stateMutability": "view",
      "type": "function"
    },
    {
      "inputs": [],
      "name": "symbol",
      "outputs": [
        {
          "internalType": "string",
          "name": "",
          "type": "string"
        }
      ],
      "stateMutability": "view",
      "type": "function"
    },
    {
      "inputs": [
        {
          "internalType": "uint256",
          "name": "tokenId",
          "type": "uint256"
        }
      ],
      "name": "tokenURI",
      "outputs": [
        {
          "internalType": "string",
          "name": "",
          "type": "string"
        }
      ],
      "stateMutability": "view",
      "type": "function"
    },
    {
      "inputs": [
        {
          "internalType": "address",
          "name": "from",
          "type": "address"
        },
        {
          "internalType": "address",
          "name": "to",
          "type": "address"
        },
        {
          "internalType": "uint256",
          "name": "tokenId",
          "type": "uint256"
        }
      ],
      "name": "transferFrom",
      "outputs": [],
      "stateMutability": "nonpayable",
      "type": "function"
    },
    {
      "inputs": [
        {
          "internalType": "address",
          "name": "newOwner",
          "type": "address"
        }
      ],
      "name": "transferOwnership",
      "outputs": [],
      "stateMutability": "nonpayable",
      "type": "function"
    },
    {
      "inputs": [],
      "name": "vault",
      "outputs": [
        {
          "internalType": "address",
          "name": "",
          "type": "address"
        }
      ],
      "stateMutability": "view",
      "type": "function"
    },
    {
      "inputs": [],
      "name": "withdraw",
      "outputs": [],
      "stateMutability": "payable",
      "type": "function"
    }
  ],
  "bytecode": "0x6101406040523480156200001257600080fd5b506040516200601a3803806200601a833981810160405281019062000038919062000953565b6040518060400160405280601281526020017f47656e65726174697665416c70686144657600000000000000000000000000008152506040518060400160405280600181526020017f31000000000000000000000000000000000000000000000000000000000000008152506040518060400160405280601281526020017f47656e65726174697665416c70686144657600000000000000000000000000008152506040518060400160405280600381526020017f474144000000000000000000000000000000000000000000000000000000000081525081600090805190602001906200012892919062000666565b5080600190805190602001906200014192919062000666565b50505060008280519060200120905060008280519060200120905060007f8b73c3c69bb8fe3d512ecc4cf759cc79239f7b179b0ffacaa9a75d522b39400f90508260e081815250508161010081815250504660a08181525050620001ad8184846200027b60201b60201c565b608081815250503073ffffffffffffffffffffffffffffffffffffffff1660c08173ffffffffffffffffffffffffffffffffffffffff16815250508061012081815250505050505050620002166200020a620002b760201b60201c565b620002bf60201b60201c565b620002487f9f2df0fed2c77648de5860a4cc508cd0818c85b8b8a1ab4ceeef8d981c8956a6856200038560201b60201c565b8260098190555062000260826200039b60201b60201c565b62000271816200044660201b60201c565b5050505062000b66565b600083838346306040516020016200029895949392919062000a21565b6040516020818303038152906040528051906020012090509392505050565b600033905090565b6000600860009054906101000a900473ffffffffffffffffffffffffffffffffffffffff16905081600860006101000a81548173ffffffffffffffffffffffffffffffffffffffff021916908373ffffffffffffffffffffffffffffffffffffffff1602179055508173ffffffffffffffffffffffffffffffffffffffff168173ffffffffffffffffffffffffffffffffffffffff167f8be0079c531659141344cd1fd0a4f28419497f9722a3daafe3b4186f6b6457e060405160405180910390a35050565b620003978282620004df60201b60201c565b5050565b620003ab620002b760201b60201c565b73ffffffffffffffffffffffffffffffffffffffff16620003d1620005d160201b60201c565b73ffffffffffffffffffffffffffffffffffffffff16146200042a576040517f08c379a0000000000000000000000000000000000000000000000000000000008152600401620004219062000adf565b60405180910390fd5b80600a90805190602001906200044292919062000666565b5050565b62000456620002b760201b60201c565b73ffffffffffffffffffffffffffffffffffffffff166200047c620005d160201b60201c565b73ffffffffffffffffffffffffffffffffffffffff1614620004d5576040517f08c379a0000000000000000000000000000000000000000000000000000000008152600401620004cc9062000adf565b60405180910390fd5b80600c8190555050565b620004f18282620005fb60201b60201c565b620005cd5760016007600084815260200190815260200160002060000160008373ffffffffffffffffffffffffffffffffffffffff1673ffffffffffffffffffffffffffffffffffffffff16815260200190815260200160002060006101000a81548160ff02191690831515021790555062000572620002b760201b60201c565b73ffffffffffffffffffffffffffffffffffffffff168173ffffffffffffffffffffffffffffffffffffffff16837f2f8788117e7eff1d82e926ec794901d17c78024a50270940304540a733656f0d60405160405180910390a45b5050565b6000600860009054906101000a900473ffffffffffffffffffffffffffffffffffffffff16905090565b60006007600084815260200190815260200160002060000160008373ffffffffffffffffffffffffffffffffffffffff1673ffffffffffffffffffffffffffffffffffffffff16815260200190815260200160002060009054906101000a900460ff16905092915050565b828054620006749062000b30565b90600052602060002090601f016020900481019282620006985760008555620006e4565b82601f10620006b357805160ff1916838001178555620006e4565b82800160010185558215620006e4579182015b82811115620006e3578251825591602001919060010190620006c6565b5b509050620006f39190620006f7565b5090565b5b8082111562000712576000816000905550600101620006f8565b5090565b6000604051905090565b600080fd5b600080fd5b600073ffffffffffffffffffffffffffffffffffffffff82169050919050565b600062000757826200072a565b9050919050565b62000769816200074a565b81146200077557600080fd5b50565b60008151905062000789816200075e565b92915050565b6000819050919050565b620007a4816200078f565b8114620007b057600080fd5b50565b600081519050620007c48162000799565b92915050565b600080fd5b600080fd5b6000601f19601f8301169050919050565b7f4e487b7100000000000000000000000000000000000000000000000000000000600052604160045260246000fd5b6200081f82620007d4565b810181811067ffffffffffffffff82111715620008415762000840620007e5565b5b80604052505050565b60006200085662000716565b905062000864828262000814565b919050565b600067ffffffffffffffff821115620008875762000886620007e5565b5b6200089282620007d4565b9050602081019050919050565b60005b83811015620008bf578082015181840152602081019050620008a2565b83811115620008cf576000848401525b50505050565b6000620008ec620008e68462000869565b6200084a565b9050828152602081018484840111156200090b576200090a620007cf565b5b620009188482856200089f565b509392505050565b600082601f830112620009385762000937620007ca565b5b81516200094a848260208601620008d5565b91505092915050565b6000806000806080858703121562000970576200096f62000720565b5b6000620009808782880162000778565b94505060206200099387828801620007b3565b935050604085015167ffffffffffffffff811115620009b757620009b662000725565b5b620009c58782880162000920565b9250506060620009d887828801620007b3565b91505092959194509250565b6000819050919050565b620009f981620009e4565b82525050565b62000a0a816200078f565b82525050565b62000a1b816200074a565b82525050565b600060a08201905062000a386000830188620009ee565b62000a476020830187620009ee565b62000a566040830186620009ee565b62000a656060830185620009ff565b62000a74608083018462000a10565b9695505050505050565b600082825260208201905092915050565b7f4f776e61626c653a2063616c6c6572206973206e6f7420746865206f776e6572600082015250565b600062000ac760208362000a7e565b915062000ad48262000a8f565b602082019050919050565b6000602082019050818103600083015262000afa8162000ab8565b9050919050565b7f4e487b7100000000000000000000000000000000000000000000000000000000600052602260045260246000fd5b6000600282049050600182168062000b4957607f821691505b6020821081141562000b605762000b5f62000b01565b5b50919050565b60805160a05160c05160e051610100516101205161546462000bb6600039600061324601526000613288015260006132670152600061319c015260006131f20152600061321b01526154646000f3fe6080604052600436106102045760003560e01c806370a0823111610118578063acec338a116100a0578063d53913931161006f578063d539139314610737578063d547741f14610762578063e985e9c51461078b578063f2fde38b146107c8578063fbfa77cf146107f157610204565b8063acec338a1461068c578063b88d4fde146106b5578063c585710a146106de578063c87b56dd146106fa57610204565b806391d14854116100e757806391d14854146105a557806395d89b41146105e2578063a035b1fe1461060d578063a217fddf14610638578063a22cb4651461066357610204565b806370a08231146104fd578063715018a61461053a5780638da5cb5b1461055157806391b7f5ed1461057c57610204565b806332cb6b0c1161019b57806355f804b31161016a57806355f804b314610418578063564b81ef146104415780636352211e1461046c5780636817031b146104a95780636c0360eb146104d257610204565b806332cb6b0c1461039157806336568abe146103bc5780633ccfd60b146103e557806342842e0e146103ef57610204565b806322f3e2d4116101d757806322f3e2d4146102d757806323b872dd14610302578063248a9ca31461032b5780632f2ff15d1461036857610204565b806301ffc9a71461020957806306fdde0314610246578063081812fc14610271578063095ea7b3146102ae575b600080fd5b34801561021557600080fd5b50610230600480360381019061022b919061359a565b61081c565b60405161023d91906135e2565b60405180910390f35b34801561025257600080fd5b5061025b61083e565b6040516102689190613696565b60405180910390f35b34801561027d57600080fd5b50610298600480360381019061029391906136ee565b6108d0565b6040516102a5919061375c565b60405180910390f35b3480156102ba57600080fd5b506102d560048036038101906102d091906137a3565b610955565b005b3480156102e357600080fd5b506102ec610a6d565b6040516102f991906135e2565b60405180910390f35b34801561030e57600080fd5b50610329600480360381019061032491906137e3565b610a80565b005b34801561033757600080fd5b50610352600480360381019061034d919061386c565b610ae0565b60405161035f91906138a8565b60405180910390f35b34801561037457600080fd5b5061038f600480360381019061038a91906138c3565b610b00565b005b34801561039d57600080fd5b506103a6610b29565b6040516103b39190613912565b60405180910390f35b3480156103c857600080fd5b506103e360048036038101906103de91906138c3565b610b2f565b005b6103ed610bb2565b005b3480156103fb57600080fd5b50610416600480360381019061041191906137e3565b610d22565b005b34801561042457600080fd5b5061043f600480360381019061043a9190613a62565b610d42565b005b34801561044d57600080fd5b50610456610dd8565b6040516104639190613912565b60405180910390f35b34801561047857600080fd5b50610493600480360381019061048e91906136ee565b610de5565b6040516104a0919061375c565b60405180910390f35b3480156104b557600080fd5b506104d060048036038101906104cb9190613aab565b610e97565b005b3480156104de57600080fd5b506104e7610f57565b6040516104f49190613696565b60405180910390f35b34801561050957600080fd5b50610524600480360381019061051f9190613aab565b610fe5565b6040516105319190613912565b60405180910390f35b34801561054657600080fd5b5061054f61109d565b005b34801561055d57600080fd5b50610566611125565b604051610573919061375c565b60405180910390f35b34801561058857600080fd5b506105a3600480360381019061059e91906136ee565b61114f565b005b3480156105b157600080fd5b506105cc60048036038101906105c791906138c3565b6111d5565b6040516105d991906135e2565b60405180910390f35b3480156105ee57600080fd5b506105f7611240565b6040516106049190613696565b60405180910390f35b34801561061957600080fd5b506106226112d2565b60405161062f9190613912565b60405180910390f35b34801561064457600080fd5b5061064d6112d8565b60405161065a91906138a8565b60405180910390f35b34801561066f57600080fd5b5061068a60048036038101906106859190613b04565b6112df565b005b34801561069857600080fd5b506106b360048036038101906106ae9190613b44565b6112f5565b005b3480156106c157600080fd5b506106dc60048036038101906106d79190613c12565b61138e565b005b6106f860048036038101906106f39190613cb9565b6113f0565b005b34801561070657600080fd5b50610721600480360381019061071c91906136ee565b61162f565b60405161072e9190613696565b60405180910390f35b34801561074357600080fd5b5061074c611781565b60405161075991906138a8565b60405180910390f35b34801561076e57600080fd5b50610789600480360381019061078491906138c3565b6117a5565b005b34801561079757600080fd5b506107b260048036038101906107ad9190613d02565b6117ce565b6040516107bf91906135e2565b60405180910390f35b3480156107d457600080fd5b506107ef60048036038101906107ea9190613aab565b611862565b005b3480156107fd57600080fd5b5061080661195a565b604051610813919061375c565b60405180910390f35b600061082782611980565b80610837575061083682611a62565b5b9050919050565b60606000805461084d90613d71565b80601f016020809104026020016040519081016040528092919081815260200182805461087990613d71565b80156108c65780601f1061089b576101008083540402835291602001916108c6565b820191906000526020600020905b8154815290600101906020018083116108a957829003601f168201915b5050505050905090565b60006108db82611adc565b61091a576040517f08c379a000000000000000000000000000000000000000000000000000000000815260040161091190613e15565b60405180910390fd5b6004600083815260200190815260200160002060009054906101000a900473ffffffffffffffffffffffffffffffffffffffff169050919050565b600061096082610de5565b90508073ffffffffffffffffffffffffffffffffffffffff168373ffffffffffffffffffffffffffffffffffffffff1614156109d1576040517f08c379a00000000000000000000000000000000000000000000000000000000081526004016109c890613ea7565b60405180910390fd5b8073ffffffffffffffffffffffffffffffffffffffff166109f0611b48565b73ffffffffffffffffffffffffffffffffffffffff161480610a1f5750610a1e81610a19611b48565b6117ce565b5b610a5e576040517f08c379a0000000000000000000000000000000000000000000000000000000008152600401610a5590613f39565b60405180910390fd5b610a688383611b50565b505050565b600b60149054906101000a900460ff1681565b610a91610a8b611b48565b82611c09565b610ad0576040517f08c379a0000000000000000000000000000000000000000000000000000000008152600401610ac790613fcb565b60405180910390fd5b610adb838383611ce7565b505050565b600060076000838152602001908152602001600020600101549050919050565b610b0982610ae0565b610b1a81610b15611b48565b611f4e565b610b248383611feb565b505050565b60095481565b610b37611b48565b73ffffffffffffffffffffffffffffffffffffffff168173ffffffffffffffffffffffffffffffffffffffff1614610ba4576040517f08c379a0000000000000000000000000000000000000000000000000000000008152600401610b9b9061405d565b60405180910390fd5b610bae82826120cc565b5050565b610bba611b48565b73ffffffffffffffffffffffffffffffffffffffff16610bd8611125565b73ffffffffffffffffffffffffffffffffffffffff1614610c2e576040517f08c379a0000000000000000000000000000000000000000000000000000000008152600401610c25906140c9565b60405180910390fd5b600073ffffffffffffffffffffffffffffffffffffffff16600b60009054906101000a900473ffffffffffffffffffffffffffffffffffffffff1673ffffffffffffffffffffffffffffffffffffffff161415610cc0576040517f08c379a0000000000000000000000000000000000000000000000000000000008152600401610cb790614135565b60405180910390fd5b600b60009054906101000a900473ffffffffffffffffffffffffffffffffffffffff1673ffffffffffffffffffffffffffffffffffffffff166108fc479081150290604051600060405180830381858888f19350505050610d2057600080fd5b565b610d3d8383836040518060200160405280600081525061138e565b505050565b610d4a611b48565b73ffffffffffffffffffffffffffffffffffffffff16610d68611125565b73ffffffffffffffffffffffffffffffffffffffff1614610dbe576040517f08c379a0000000000000000000000000000000000000000000000000000000008152600401610db5906140c9565b60405180910390fd5b80600a9080519060200190610dd492919061348b565b5050565b6000804690508091505090565b6000806002600084815260200190815260200160002060009054906101000a900473ffffffffffffffffffffffffffffffffffffffff169050600073ffffffffffffffffffffffffffffffffffffffff168173ffffffffffffffffffffffffffffffffffffffff161415610e8e576040517f08c379a0000000000000000000000000000000000000000000000000000000008152600401610e85906141c7565b60405180910390fd5b80915050919050565b610e9f611b48565b73ffffffffffffffffffffffffffffffffffffffff16610ebd611125565b73ffffffffffffffffffffffffffffffffffffffff1614610f13576040517f08c379a0000000000000000000000000000000000000000000000000000000008152600401610f0a906140c9565b60405180910390fd5b80600b60006101000a81548173ffffffffffffffffffffffffffffffffffffffff021916908373ffffffffffffffffffffffffffffffffffffffff16021790555050565b600a8054610f6490613d71565b80601f0160208091040260200160405190810160405280929190818152602001828054610f9090613d71565b8015610fdd5780601f10610fb257610100808354040283529160200191610fdd565b820191906000526020600020905b815481529060010190602001808311610fc057829003601f168201915b505050505081565b60008073ffffffffffffffffffffffffffffffffffffffff168273ffffffffffffffffffffffffffffffffffffffff161415611056576040517f08c379a000000000000000000000000000000000000000000000000000000000815260040161104d90614259565b60405180910390fd5b600360008373ffffffffffffffffffffffffffffffffffffffff1673ffffffffffffffffffffffffffffffffffffffff168152602001908152602001600020549050919050565b6110a5611b48565b73ffffffffffffffffffffffffffffffffffffffff166110c3611125565b73ffffffffffffffffffffffffffffffffffffffff1614611119576040517f08c379a0000000000000000000000000000000000000000000000000000000008152600401611110906140c9565b60405180910390fd5b61112360006121ae565b565b6000600860009054906101000a900473ffffffffffffffffffffffffffffffffffffffff16905090565b611157611b48565b73ffffffffffffffffffffffffffffffffffffffff16611175611125565b73ffffffffffffffffffffffffffffffffffffffff16146111cb576040517f08c379a00000000000000000000000000000000000000000000000000000000081526004016111c2906140c9565b60405180910390fd5b80600c8190555050565b60006007600084815260200190815260200160002060000160008373ffffffffffffffffffffffffffffffffffffffff1673ffffffffffffffffffffffffffffffffffffffff16815260200190815260200160002060009054906101000a900460ff16905092915050565b60606001805461124f90613d71565b80601f016020809104026020016040519081016040528092919081815260200182805461127b90613d71565b80156112c85780601f1061129d576101008083540402835291602001916112c8565b820191906000526020600020905b8154815290600101906020018083116112ab57829003601f168201915b5050505050905090565b600c5481565b6000801b81565b6112f16112ea611b48565b8383612274565b5050565b6112fd611b48565b73ffffffffffffffffffffffffffffffffffffffff1661131b611125565b73ffffffffffffffffffffffffffffffffffffffff1614611371576040517f08c379a0000000000000000000000000000000000000000000000000000000008152600401611368906140c9565b60405180910390fd5b80600b60146101000a81548160ff02191690831515021790555050565b61139f611399611b48565b83611c09565b6113de576040517f08c379a00000000000000000000000000000000000000000000000000000000081526004016113d590613fcb565b60405180910390fd5b6113ea848484846123e1565b50505050565b600b60149054906101000a900460ff1661143f576040517f08c379a0000000000000000000000000000000000000000000000000000000008152600401611436906142c5565b60405180910390fd5b600954600182600001356114539190614314565b1115611494576040517f08c379a000000000000000000000000000000000000000000000000000000000815260040161148b906143b6565b60405180910390fd5b3373ffffffffffffffffffffffffffffffffffffffff163273ffffffffffffffffffffffffffffffffffffffff1614611502576040517f08c379a00000000000000000000000000000000000000000000000000000000081526004016114f990614422565b60405180910390fd5b600c54341015611547576040517f08c379a000000000000000000000000000000000000000000000000000000000815260040161153e9061448e565b60405180910390fd5b60006115528261243d565b905061157e7f9f2df0fed2c77648de5860a4cc508cd0818c85b8b8a1ab4ceeef8d981c8956a6826111d5565b6115bd576040517f08c379a00000000000000000000000000000000000000000000000000000000081526004016115b490614520565b60405180910390fd5b6115cb3383600001356124af565b61162b82600001358380602001906115e3919061454f565b8080601f016020809104026020016040519081016040528093929190818152602001838380828437600081840152601f19601f820116905080830192505050505050506124cd565b5050565b606061163a82611adc565b611679576040517f08c379a000000000000000000000000000000000000000000000000000000000815260040161167090614624565b60405180910390fd5b600060066000848152602001908152602001600020805461169990613d71565b80601f01602080910402602001604051908101604052809291908181526020018280546116c590613d71565b80156117125780601f106116e757610100808354040283529160200191611712565b820191906000526020600020905b8154815290600101906020018083116116f557829003601f168201915b505050505090506000611723612541565b905060008151141561173957819250505061177c565b60008251111561176e578082604051602001611756929190614680565b6040516020818303038152906040529250505061177c565b611777846125d3565b925050505b919050565b7f9f2df0fed2c77648de5860a4cc508cd0818c85b8b8a1ab4ceeef8d981c8956a681565b6117ae82610ae0565b6117bf816117ba611b48565b611f4e565b6117c983836120cc565b505050565b6000600560008473ffffffffffffffffffffffffffffffffffffffff1673ffffffffffffffffffffffffffffffffffffffff16815260200190815260200160002060008373ffffffffffffffffffffffffffffffffffffffff1673ffffffffffffffffffffffffffffffffffffffff16815260200190815260200160002060009054906101000a900460ff16905092915050565b61186a611b48565b73ffffffffffffffffffffffffffffffffffffffff16611888611125565b73ffffffffffffffffffffffffffffffffffffffff16146118de576040517f08c379a00000000000000000000000000000000000000000000000000000000081526004016118d5906140c9565b60405180910390fd5b600073ffffffffffffffffffffffffffffffffffffffff168173ffffffffffffffffffffffffffffffffffffffff16141561194e576040517f08c379a000000000000000000000000000000000000000000000000000000000815260040161194590614716565b60405180910390fd5b611957816121ae565b50565b600b60009054906101000a900473ffffffffffffffffffffffffffffffffffffffff1681565b60007f80ac58cd000000000000000000000000000000000000000000000000000000007bffffffffffffffffffffffffffffffffffffffffffffffffffffffff1916827bffffffffffffffffffffffffffffffffffffffffffffffffffffffff19161480611a4b57507f5b5e139f000000000000000000000000000000000000000000000000000000007bffffffffffffffffffffffffffffffffffffffffffffffffffffffff1916827bffffffffffffffffffffffffffffffffffffffffffffffffffffffff1916145b80611a5b5750611a5a8261267a565b5b9050919050565b60007f7965db0b000000000000000000000000000000000000000000000000000000007bffffffffffffffffffffffffffffffffffffffffffffffffffffffff1916827bffffffffffffffffffffffffffffffffffffffffffffffffffffffff19161480611ad55750611ad482611980565b5b9050919050565b60008073ffffffffffffffffffffffffffffffffffffffff166002600084815260200190815260200160002060009054906101000a900473ffffffffffffffffffffffffffffffffffffffff1673ffffffffffffffffffffffffffffffffffffffff1614159050919050565b600033905090565b816004600083815260200190815260200160002060006101000a81548173ffffffffffffffffffffffffffffffffffffffff021916908373ffffffffffffffffffffffffffffffffffffffff160217905550808273ffffffffffffffffffffffffffffffffffffffff16611bc383610de5565b73ffffffffffffffffffffffffffffffffffffffff167f8c5be1e5ebec7d5bd14f71427d1e84f3dd0314c0f7b2291e5b200ac8c7c3b92560405160405180910390a45050565b6000611c1482611adc565b611c53576040517f08c379a0000000000000000000000000000000000000000000000000000000008152600401611c4a906147a8565b60405180910390fd5b6000611c5e83610de5565b90508073ffffffffffffffffffffffffffffffffffffffff168473ffffffffffffffffffffffffffffffffffffffff161480611ccd57508373ffffffffffffffffffffffffffffffffffffffff16611cb5846108d0565b73ffffffffffffffffffffffffffffffffffffffff16145b80611cde5750611cdd81856117ce565b5b91505092915050565b8273ffffffffffffffffffffffffffffffffffffffff16611d0782610de5565b73ffffffffffffffffffffffffffffffffffffffff1614611d5d576040517f08c379a0000000000000000000000000000000000000000000000000000000008152600401611d549061483a565b60405180910390fd5b600073ffffffffffffffffffffffffffffffffffffffff168273ffffffffffffffffffffffffffffffffffffffff161415611dcd576040517f08c379a0000000000000000000000000000000000000000000000000000000008152600401611dc4906148cc565b60405180910390fd5b611dd88383836126e4565b611de3600082611b50565b6001600360008573ffffffffffffffffffffffffffffffffffffffff1673ffffffffffffffffffffffffffffffffffffffff1681526020019081526020016000206000828254611e3391906148ec565b925050819055506001600360008473ffffffffffffffffffffffffffffffffffffffff1673ffffffffffffffffffffffffffffffffffffffff1681526020019081526020016000206000828254611e8a9190614314565b92505081905550816002600083815260200190815260200160002060006101000a81548173ffffffffffffffffffffffffffffffffffffffff021916908373ffffffffffffffffffffffffffffffffffffffff160217905550808273ffffffffffffffffffffffffffffffffffffffff168473ffffffffffffffffffffffffffffffffffffffff167fddf252ad1be2c89b69c2b068fc378daa952ba7f163c4a11628f55a4df523b3ef60405160405180910390a4611f498383836126e9565b505050565b611f5882826111d5565b611fe757611f7d8173ffffffffffffffffffffffffffffffffffffffff1660146126ee565b611f8b8360001c60206126ee565b604051602001611f9c9291906149b8565b6040516020818303038152906040526040517f08c379a0000000000000000000000000000000000000000000000000000000008152600401611fde9190613696565b60405180910390fd5b5050565b611ff582826111d5565b6120c85760016007600084815260200190815260200160002060000160008373ffffffffffffffffffffffffffffffffffffffff1673ffffffffffffffffffffffffffffffffffffffff16815260200190815260200160002060006101000a81548160ff02191690831515021790555061206d611b48565b73ffffffffffffffffffffffffffffffffffffffff168173ffffffffffffffffffffffffffffffffffffffff16837f2f8788117e7eff1d82e926ec794901d17c78024a50270940304540a733656f0d60405160405180910390a45b5050565b6120d682826111d5565b156121aa5760006007600084815260200190815260200160002060000160008373ffffffffffffffffffffffffffffffffffffffff1673ffffffffffffffffffffffffffffffffffffffff16815260200190815260200160002060006101000a81548160ff02191690831515021790555061214f611b48565b73ffffffffffffffffffffffffffffffffffffffff168173ffffffffffffffffffffffffffffffffffffffff16837ff6391f5c32d9c69d2a47ea670b442974b53935d1edc7fd64eb21e047a839171b60405160405180910390a45b5050565b6000600860009054906101000a900473ffffffffffffffffffffffffffffffffffffffff16905081600860006101000a81548173ffffffffffffffffffffffffffffffffffffffff021916908373ffffffffffffffffffffffffffffffffffffffff1602179055508173ffffffffffffffffffffffffffffffffffffffff168173ffffffffffffffffffffffffffffffffffffffff167f8be0079c531659141344cd1fd0a4f28419497f9722a3daafe3b4186f6b6457e060405160405180910390a35050565b8173ffffffffffffffffffffffffffffffffffffffff168373ffffffffffffffffffffffffffffffffffffffff1614156122e3576040517f08c379a00000000000000000000000000000000000000000000000000000000081526004016122da90614a3e565b60405180910390fd5b80600560008573ffffffffffffffffffffffffffffffffffffffff1673ffffffffffffffffffffffffffffffffffffffff16815260200190815260200160002060008473ffffffffffffffffffffffffffffffffffffffff1673ffffffffffffffffffffffffffffffffffffffff16815260200190815260200160002060006101000a81548160ff0219169083151502179055508173ffffffffffffffffffffffffffffffffffffffff168373ffffffffffffffffffffffffffffffffffffffff167f17307eab39ab6107e8899845ad3d59bd9653f200f220920489ca2b5937696c31836040516123d491906135e2565b60405180910390a3505050565b6123ec848484611ce7565b6123f88484848461292a565b612437576040517f08c379a000000000000000000000000000000000000000000000000000000000815260040161242e90614ad0565b60405180910390fd5b50505050565b60008061244983612ac1565b90506124a78184806040019061245f9190614af0565b8080601f016020809104026020016040519081016040528093929190818152602001838380828437600081840152601f19601f82011690508083019250505050505050612b46565b915050919050565b6124c9828260405180602001604052806000815250612b6d565b5050565b6124d682611adc565b612515576040517f08c379a000000000000000000000000000000000000000000000000000000000815260040161250c90614bc5565b60405180910390fd5b8060066000848152602001908152602001600020908051906020019061253c92919061348b565b505050565b6060600a805461255090613d71565b80601f016020809104026020016040519081016040528092919081815260200182805461257c90613d71565b80156125c95780601f1061259e576101008083540402835291602001916125c9565b820191906000526020600020905b8154815290600101906020018083116125ac57829003601f168201915b5050505050905090565b60606125de82611adc565b61261d576040517f08c379a000000000000000000000000000000000000000000000000000000000815260040161261490614c57565b60405180910390fd5b6000612627612541565b905060008151116126475760405180602001604052806000815250612672565b8061265184612bc8565b604051602001612662929190614680565b6040516020818303038152906040525b915050919050565b60007f01ffc9a7000000000000000000000000000000000000000000000000000000007bffffffffffffffffffffffffffffffffffffffffffffffffffffffff1916827bffffffffffffffffffffffffffffffffffffffffffffffffffffffff1916149050919050565b505050565b505050565b6060600060028360026127019190614c77565b61270b9190614314565b67ffffffffffffffff81111561272457612723613937565b5b6040519080825280601f01601f1916602001820160405280156127565781602001600182028036833780820191505090505b5090507f30000000000000000000000000000000000000000000000000000000000000008160008151811061278e5761278d614cd1565b5b60200101907effffffffffffffffffffffffffffffffffffffffffffffffffffffffffffff1916908160001a9053507f7800000000000000000000000000000000000000000000000000000000000000816001815181106127f2576127f1614cd1565b5b60200101907effffffffffffffffffffffffffffffffffffffffffffffffffffffffffffff1916908160001a905350600060018460026128329190614c77565b61283c9190614314565b90505b60018111156128dc577f3031323334353637383961626364656600000000000000000000000000000000600f86166010811061287e5761287d614cd1565b5b1a60f81b82828151811061289557612894614cd1565b5b60200101907effffffffffffffffffffffffffffffffffffffffffffffffffffffffffffff1916908160001a905350600485901c9450806128d590614d00565b905061283f565b5060008414612920576040517f08c379a000000000000000000000000000000000000000000000000000000000815260040161291790614d76565b60405180910390fd5b8091505092915050565b600061294b8473ffffffffffffffffffffffffffffffffffffffff16612d29565b15612ab4578373ffffffffffffffffffffffffffffffffffffffff1663150b7a02612974611b48565b8786866040518563ffffffff1660e01b81526004016129969493929190614deb565b602060405180830381600087803b1580156129b057600080fd5b505af19250505080156129e157506040513d601f19601f820116820180604052508101906129de9190614e4c565b60015b612a64573d8060008114612a11576040519150601f19603f3d011682016040523d82523d6000602084013e612a16565b606091505b50600081511415612a5c576040517f08c379a0000000000000000000000000000000000000000000000000000000008152600401612a5390614ad0565b60405180910390fd5b805181602001fd5b63150b7a0260e01b7bffffffffffffffffffffffffffffffffffffffffffffffffffffffff1916817bffffffffffffffffffffffffffffffffffffffffffffffffffffffff191614915050612ab9565b600190505b949350505050565b6000612b3f7fc11fada010ec5cd06cb3139c5e5dbf571bcd2a87e4d238097d82a1d2f1ccc33f8360000135848060200190612afc919061454f565b604051612b0a929190614ea9565b6040518091039020604051602001612b2493929190614ec2565b60405160208183030381529060405280519060200120612d4c565b9050919050565b6000806000612b558585612d66565b91509150612b6281612de9565b819250505092915050565b612b778383612fbe565b612b84600084848461292a565b612bc3576040517f08c379a0000000000000000000000000000000000000000000000000000000008152600401612bba90614ad0565b60405180910390fd5b505050565b60606000821415612c10576040518060400160405280600181526020017f30000000000000000000000000000000000000000000000000000000000000008152509050612d24565b600082905060005b60008214612c42578080612c2b90614ef9565b915050600a82612c3b9190614f71565b9150612c18565b60008167ffffffffffffffff811115612c5e57612c5d613937565b5b6040519080825280601f01601f191660200182016040528015612c905781602001600182028036833780820191505090505b5090505b60008514612d1d57600182612ca991906148ec565b9150600a85612cb89190614fa2565b6030612cc49190614314565b60f81b818381518110612cda57612cd9614cd1565b5b60200101907effffffffffffffffffffffffffffffffffffffffffffffffffffffffffffff1916908160001a905350600a85612d169190614f71565b9450612c94565b8093505050505b919050565b6000808273ffffffffffffffffffffffffffffffffffffffff163b119050919050565b6000612d5f612d59613198565b836132b2565b9050919050565b600080604183511415612da85760008060006020860151925060408601519150606086015160001a9050612d9c878285856132e5565b94509450505050612de2565b604083511415612dd9576000806020850151915060408501519050612dce8683836133f2565b935093505050612de2565b60006002915091505b9250929050565b60006004811115612dfd57612dfc614fd3565b5b816004811115612e1057612e0f614fd3565b5b1415612e1b57612fbb565b60016004811115612e2f57612e2e614fd3565b5b816004811115612e4257612e41614fd3565b5b1415612e83576040517f08c379a0000000000000000000000000000000000000000000000000000000008152600401612e7a9061504e565b60405180910390fd5b60026004811115612e9757612e96614fd3565b5b816004811115612eaa57612ea9614fd3565b5b1415612eeb576040517f08c379a0000000000000000000000000000000000000000000000000000000008152600401612ee2906150ba565b60405180910390fd5b60036004811115612eff57612efe614fd3565b5b816004811115612f1257612f11614fd3565b5b1415612f53576040517f08c379a0000000000000000000000000000000000000000000000000000000008152600401612f4a9061514c565b60405180910390fd5b600480811115612f6657612f65614fd3565b5b816004811115612f7957612f78614fd3565b5b1415612fba576040517f08c379a0000000000000000000000000000000000000000000000000000000008152600401612fb1906151de565b60405180910390fd5b5b50565b600073ffffffffffffffffffffffffffffffffffffffff168273ffffffffffffffffffffffffffffffffffffffff16141561302e576040517f08c379a00000000000000000000000000000000000000000000000000000000081526004016130259061524a565b60405180910390fd5b61303781611adc565b15613077576040517f08c379a000000000000000000000000000000000000000000000000000000000815260040161306e906152b6565b60405180910390fd5b613083600083836126e4565b6001600360008473ffffffffffffffffffffffffffffffffffffffff1673ffffffffffffffffffffffffffffffffffffffff16815260200190815260200160002060008282546130d39190614314565b92505081905550816002600083815260200190815260200160002060006101000a81548173ffffffffffffffffffffffffffffffffffffffff021916908373ffffffffffffffffffffffffffffffffffffffff160217905550808273ffffffffffffffffffffffffffffffffffffffff16600073ffffffffffffffffffffffffffffffffffffffff167fddf252ad1be2c89b69c2b068fc378daa952ba7f163c4a11628f55a4df523b3ef60405160405180910390a4613194600083836126e9565b5050565b60007f000000000000000000000000000000000000000000000000000000000000000073ffffffffffffffffffffffffffffffffffffffff163073ffffffffffffffffffffffffffffffffffffffff1614801561321457507f000000000000000000000000000000000000000000000000000000000000000046145b15613241577f000000000000000000000000000000000000000000000000000000000000000090506132af565b6132ac7f00000000000000000000000000000000000000000000000000000000000000007f00000000000000000000000000000000000000000000000000000000000000007f0000000000000000000000000000000000000000000000000000000000000000613451565b90505b90565b600082826040516020016132c7929190615343565b60405160208183030381529060405280519060200120905092915050565b6000807f7fffffffffffffffffffffffffffffff5d576e7357a4501ddfe92f46681b20a08360001c11156133205760006003915091506133e9565b601b8560ff16141580156133385750601c8560ff1614155b1561334a5760006004915091506133e9565b60006001878787876040516000815260200160405260405161336f9493929190615396565b6020604051602081039080840390855afa158015613391573d6000803e3d6000fd5b505050602060405103519050600073ffffffffffffffffffffffffffffffffffffffff168173ffffffffffffffffffffffffffffffffffffffff1614156133e0576000600192509250506133e9565b80600092509250505b94509492505050565b60008060007f7fffffffffffffffffffffffffffffffffffffffffffffffffffffffffffffff60001b841690506000601b60ff8660001c901c6134359190614314565b9050613443878288856132e5565b935093505050935093915050565b6000838383463060405160200161346c9594939291906153db565b6040516020818303038152906040528051906020012090509392505050565b82805461349790613d71565b90600052602060002090601f0160209004810192826134b95760008555613500565b82601f106134d257805160ff1916838001178555613500565b82800160010185558215613500579182015b828111156134ff5782518255916020019190600101906134e4565b5b50905061350d9190613511565b5090565b5b8082111561352a576000816000905550600101613512565b5090565b6000604051905090565b600080fd5b600080fd5b60007fffffffff0000000000000000000000000000000000000000000000000000000082169050919050565b61357781613542565b811461358257600080fd5b50565b6000813590506135948161356e565b92915050565b6000602082840312156135b0576135af613538565b5b60006135be84828501613585565b91505092915050565b60008115159050919050565b6135dc816135c7565b82525050565b60006020820190506135f760008301846135d3565b92915050565b600081519050919050565b600082825260208201905092915050565b60005b8381101561363757808201518184015260208101905061361c565b83811115613646576000848401525b50505050565b6000601f19601f8301169050919050565b6000613668826135fd565b6136728185613608565b9350613682818560208601613619565b61368b8161364c565b840191505092915050565b600060208201905081810360008301526136b0818461365d565b905092915050565b6000819050919050565b6136cb816136b8565b81146136d657600080fd5b50565b6000813590506136e8816136c2565b92915050565b60006020828403121561370457613703613538565b5b6000613712848285016136d9565b91505092915050565b600073ffffffffffffffffffffffffffffffffffffffff82169050919050565b60006137468261371b565b9050919050565b6137568161373b565b82525050565b6000602082019050613771600083018461374d565b92915050565b6137808161373b565b811461378b57600080fd5b50565b60008135905061379d81613777565b92915050565b600080604083850312156137ba576137b9613538565b5b60006137c88582860161378e565b92505060206137d9858286016136d9565b9150509250929050565b6000806000606084860312156137fc576137fb613538565b5b600061380a8682870161378e565b935050602061381b8682870161378e565b925050604061382c868287016136d9565b9150509250925092565b6000819050919050565b61384981613836565b811461385457600080fd5b50565b60008135905061386681613840565b92915050565b60006020828403121561388257613881613538565b5b600061389084828501613857565b91505092915050565b6138a281613836565b82525050565b60006020820190506138bd6000830184613899565b92915050565b600080604083850312156138da576138d9613538565b5b60006138e885828601613857565b92505060206138f98582860161378e565b9150509250929050565b61390c816136b8565b82525050565b60006020820190506139276000830184613903565b92915050565b600080fd5b600080fd5b7f4e487b7100000000000000000000000000000000000000000000000000000000600052604160045260246000fd5b61396f8261364c565b810181811067ffffffffffffffff8211171561398e5761398d613937565b5b80604052505050565b60006139a161352e565b90506139ad8282613966565b919050565b600067ffffffffffffffff8211156139cd576139cc613937565b5b6139d68261364c565b9050602081019050919050565b82818337600083830152505050565b6000613a05613a00846139b2565b613997565b905082815260208101848484011115613a2157613a20613932565b5b613a2c8482856139e3565b509392505050565b600082601f830112613a4957613a4861392d565b5b8135613a598482602086016139f2565b91505092915050565b600060208284031215613a7857613a77613538565b5b600082013567ffffffffffffffff811115613a9657613a9561353d565b5b613aa284828501613a34565b91505092915050565b600060208284031215613ac157613ac0613538565b5b6000613acf8482850161378e565b91505092915050565b613ae1816135c7565b8114613aec57600080fd5b50565b600081359050613afe81613ad8565b92915050565b60008060408385031215613b1b57613b1a613538565b5b6000613b298582860161378e565b9250506020613b3a85828601613aef565b9150509250929050565b600060208284031215613b5a57613b59613538565b5b6000613b6884828501613aef565b91505092915050565b600067ffffffffffffffff821115613b8c57613b8b613937565b5b613b958261364c565b9050602081019050919050565b6000613bb5613bb084613b71565b613997565b905082815260208101848484011115613bd157613bd0613932565b5b613bdc8482856139e3565b509392505050565b600082601f830112613bf957613bf861392d565b5b8135613c09848260208601613ba2565b91505092915050565b60008060008060808587031215613c2c57613c2b613538565b5b6000613c3a8782880161378e565b9450506020613c4b8782880161378e565b9350506040613c5c878288016136d9565b925050606085013567ffffffffffffffff811115613c7d57613c7c61353d565b5b613c8987828801613be4565b91505092959194509250565b600080fd5b600060608284031215613cb057613caf613c95565b5b81905092915050565b600060208284031215613ccf57613cce613538565b5b600082013567ffffffffffffffff811115613ced57613cec61353d565b5b613cf984828501613c9a565b91505092915050565b60008060408385031215613d1957613d18613538565b5b6000613d278582860161378e565b9250506020613d388582860161378e565b9150509250929050565b7f4e487b7100000000000000000000000000000000000000000000000000000000600052602260045260246000fd5b60006002820490506001821680613d8957607f821691505b60208210811415613d9d57613d9c613d42565b5b50919050565b7f4552433732313a20617070726f76656420717565727920666f72206e6f6e657860008201527f697374656e7420746f6b656e0000000000000000000000000000000000000000602082015250565b6000613dff602c83613608565b9150613e0a82613da3565b604082019050919050565b60006020820190508181036000830152613e2e81613df2565b9050919050565b7f4552433732313a20617070726f76616c20746f2063757272656e74206f776e6560008201527f7200000000000000000000000000000000000000000000000000000000000000602082015250565b6000613e91602183613608565b9150613e9c82613e35565b604082019050919050565b60006020820190508181036000830152613ec081613e84565b9050919050565b7f4552433732313a20617070726f76652063616c6c6572206973206e6f74206f7760008201527f6e6572206e6f7220617070726f76656420666f7220616c6c0000000000000000602082015250565b6000613f23603883613608565b9150613f2e82613ec7565b604082019050919050565b60006020820190508181036000830152613f5281613f16565b9050919050565b7f4552433732313a207472616e736665722063616c6c6572206973206e6f74206f60008201527f776e6572206e6f7220617070726f766564000000000000000000000000000000602082015250565b6000613fb5603183613608565b9150613fc082613f59565b604082019050919050565b60006020820190508181036000830152613fe481613fa8565b9050919050565b7f416363657373436f6e74726f6c3a2063616e206f6e6c792072656e6f756e636560008201527f20726f6c657320666f722073656c660000000000000000000000000000000000602082015250565b6000614047602f83613608565b915061405282613feb565b604082019050919050565b600060208201905081810360008301526140768161403a565b9050919050565b7f4f776e61626c653a2063616c6c6572206973206e6f7420746865206f776e6572600082015250565b60006140b3602083613608565b91506140be8261407d565b602082019050919050565b600060208201905081810360008301526140e2816140a6565b9050919050565b7f5661756c7420496e76616c696400000000000000000000000000000000000000600082015250565b600061411f600d83613608565b915061412a826140e9565b602082019050919050565b6000602082019050818103600083015261414e81614112565b9050919050565b7f4552433732313a206f776e657220717565727920666f72206e6f6e657869737460008201527f656e7420746f6b656e0000000000000000000000000000000000000000000000602082015250565b60006141b1602983613608565b91506141bc82614155565b604082019050919050565b600060208201905081810360008301526141e0816141a4565b9050919050565b7f4552433732313a2062616c616e636520717565727920666f7220746865207a6560008201527f726f206164647265737300000000000000000000000000000000000000000000602082015250565b6000614243602a83613608565b915061424e826141e7565b604082019050919050565b6000602082019050818103600083015261427281614236565b9050919050565b7f53616c65206d7573742062652061637469766520746f206d696e740000000000600082015250565b60006142af601b83613608565b91506142ba82614279565b602082019050919050565b600060208201905081810360008301526142de816142a2565b9050919050565b7f4e487b7100000000000000000000000000000000000000000000000000000000600052601160045260246000fd5b600061431f826136b8565b915061432a836136b8565b9250827fffffffffffffffffffffffffffffffffffffffffffffffffffffffffffffffff0382111561435f5761435e6142e5565b5b828201905092915050565b7f52656163686564206d617820737570706c792e00000000000000000000000000600082015250565b60006143a0601383613608565b91506143ab8261436a565b602082019050919050565b600060208201905081810360008301526143cf81614393565b9050919050565b7f5468652063616c6c657220697320616e6f7468657220636f6e74726163742e00600082015250565b600061440c601f83613608565b9150614417826143d6565b602082019050919050565b6000602082019050818103600083015261443b816143ff565b9050919050565b7f4e65656420746f2073656e64206d6f7265204554482e00000000000000000000600082015250565b6000614478601683613608565b915061448382614442565b602082019050919050565b600060208201905081810360008301526144a78161446b565b9050919050565b7f5369676e617475726520696e76616c6964206f7220756e617574686f72697a6560008201527f6400000000000000000000000000000000000000000000000000000000000000602082015250565b600061450a602183613608565b9150614515826144ae565b604082019050919050565b60006020820190508181036000830152614539816144fd565b9050919050565b600080fd5b600080fd5b600080fd5b6000808335600160200384360303811261456c5761456b614540565b5b80840192508235915067ffffffffffffffff82111561458e5761458d614545565b5b6020830192506001820236038313156145aa576145a961454a565b5b509250929050565b7f45524337323155524953746f726167653a2055524920717565727920666f722060008201527f6e6f6e6578697374656e7420746f6b656e000000000000000000000000000000602082015250565b600061460e603183613608565b9150614619826145b2565b604082019050919050565b6000602082019050818103600083015261463d81614601565b9050919050565b600081905092915050565b600061465a826135fd565b6146648185614644565b9350614674818560208601613619565b80840191505092915050565b600061468c828561464f565b9150614698828461464f565b91508190509392505050565b7f4f776e61626c653a206e6577206f776e657220697320746865207a65726f206160008201527f6464726573730000000000000000000000000000000000000000000000000000602082015250565b6000614700602683613608565b915061470b826146a4565b604082019050919050565b6000602082019050818103600083015261472f816146f3565b9050919050565b7f4552433732313a206f70657261746f7220717565727920666f72206e6f6e657860008201527f697374656e7420746f6b656e0000000000000000000000000000000000000000602082015250565b6000614792602c83613608565b915061479d82614736565b604082019050919050565b600060208201905081810360008301526147c181614785565b9050919050565b7f4552433732313a207472616e736665722066726f6d20696e636f72726563742060008201527f6f776e6572000000000000000000000000000000000000000000000000000000602082015250565b6000614824602583613608565b915061482f826147c8565b604082019050919050565b6000602082019050818103600083015261485381614817565b9050919050565b7f4552433732313a207472616e7366657220746f20746865207a65726f2061646460008201527f7265737300000000000000000000000000000000000000000000000000000000602082015250565b60006148b6602483613608565b91506148c18261485a565b604082019050919050565b600060208201905081810360008301526148e5816148a9565b9050919050565b60006148f7826136b8565b9150614902836136b8565b925082821015614915576149146142e5565b5b828203905092915050565b7f416363657373436f6e74726f6c3a206163636f756e7420000000000000000000600082015250565b6000614956601783614644565b915061496182614920565b601782019050919050565b7f206973206d697373696e6720726f6c6520000000000000000000000000000000600082015250565b60006149a2601183614644565b91506149ad8261496c565b601182019050919050565b60006149c382614949565b91506149cf828561464f565b91506149da82614995565b91506149e6828461464f565b91508190509392505050565b7f4552433732313a20617070726f766520746f2063616c6c657200000000000000600082015250565b6000614a28601983613608565b9150614a33826149f2565b602082019050919050565b60006020820190508181036000830152614a5781614a1b565b9050919050565b7f4552433732313a207472616e7366657220746f206e6f6e20455243373231526560008201527f63656976657220696d706c656d656e7465720000000000000000000000000000602082015250565b6000614aba603283613608565b9150614ac582614a5e565b604082019050919050565b60006020820190508181036000830152614ae981614aad565b9050919050565b60008083356001602003843603038112614b0d57614b0c614540565b5b80840192508235915067ffffffffffffffff821115614b2f57614b2e614545565b5b602083019250600182023603831315614b4b57614b4a61454a565b5b509250929050565b7f45524337323155524953746f726167653a2055524920736574206f66206e6f6e60008201527f6578697374656e7420746f6b656e000000000000000000000000000000000000602082015250565b6000614baf602e83613608565b9150614bba82614b53565b604082019050919050565b60006020820190508181036000830152614bde81614ba2565b9050919050565b7f4552433732314d657461646174613a2055524920717565727920666f72206e6f60008201527f6e6578697374656e7420746f6b656e0000000000000000000000000000000000602082015250565b6000614c41602f83613608565b9150614c4c82614be5565b604082019050919050565b60006020820190508181036000830152614c7081614c34565b9050919050565b6000614c82826136b8565b9150614c8d836136b8565b9250817fffffffffffffffffffffffffffffffffffffffffffffffffffffffffffffffff0483118215151615614cc657614cc56142e5565b5b828202905092915050565b7f4e487b7100000000000000000000000000000000000000000000000000000000600052603260045260246000fd5b6000614d0b826136b8565b91506000821415614d1f57614d1e6142e5565b5b600182039050919050565b7f537472696e67733a20686578206c656e67746820696e73756666696369656e74600082015250565b6000614d60602083613608565b9150614d6b82614d2a565b602082019050919050565b60006020820190508181036000830152614d8f81614d53565b9050919050565b600081519050919050565b600082825260208201905092915050565b6000614dbd82614d96565b614dc78185614da1565b9350614dd7818560208601613619565b614de08161364c565b840191505092915050565b6000608082019050614e00600083018761374d565b614e0d602083018661374d565b614e1a6040830185613903565b8181036060830152614e2c8184614db2565b905095945050505050565b600081519050614e468161356e565b92915050565b600060208284031215614e6257614e61613538565b5b6000614e7084828501614e37565b91505092915050565b600081905092915050565b6000614e908385614e79565b9350614e9d8385846139e3565b82840190509392505050565b6000614eb6828486614e84565b91508190509392505050565b6000606082019050614ed76000830186613899565b614ee46020830185613903565b614ef16040830184613899565b949350505050565b6000614f04826136b8565b91507fffffffffffffffffffffffffffffffffffffffffffffffffffffffffffffffff821415614f3757614f366142e5565b5b600182019050919050565b7f4e487b7100000000000000000000000000000000000000000000000000000000600052601260045260246000fd5b6000614f7c826136b8565b9150614f87836136b8565b925082614f9757614f96614f42565b5b828204905092915050565b6000614fad826136b8565b9150614fb8836136b8565b925082614fc857614fc7614f42565b5b828206905092915050565b7f4e487b7100000000000000000000000000000000000000000000000000000000600052602160045260246000fd5b7f45434453413a20696e76616c6964207369676e61747572650000000000000000600082015250565b6000615038601883613608565b915061504382615002565b602082019050919050565b600060208201905081810360008301526150678161502b565b9050919050565b7f45434453413a20696e76616c6964207369676e6174757265206c656e67746800600082015250565b60006150a4601f83613608565b91506150af8261506e565b602082019050919050565b600060208201905081810360008301526150d381615097565b9050919050565b7f45434453413a20696e76616c6964207369676e6174757265202773272076616c60008201527f7565000000000000000000000000000000000000000000000000000000000000602082015250565b6000615136602283613608565b9150615141826150da565b604082019050919050565b6000602082019050818103600083015261516581615129565b9050919050565b7f45434453413a20696e76616c6964207369676e6174757265202776272076616c60008201527f7565000000000000000000000000000000000000000000000000000000000000602082015250565b60006151c8602283613608565b91506151d38261516c565b604082019050919050565b600060208201905081810360008301526151f7816151bb565b9050919050565b7f4552433732313a206d696e7420746f20746865207a65726f2061646472657373600082015250565b6000615234602083613608565b915061523f826151fe565b602082019050919050565b6000602082019050818103600083015261526381615227565b9050919050565b7f4552433732313a20746f6b656e20616c7265616479206d696e74656400000000600082015250565b60006152a0601c83613608565b91506152ab8261526a565b602082019050919050565b600060208201905081810360008301526152cf81615293565b9050919050565b7f1901000000000000000000000000000000000000000000000000000000000000600082015250565b600061530c600283614644565b9150615317826152d6565b600282019050919050565b6000819050919050565b61533d61533882613836565b615322565b82525050565b600061534e826152ff565b915061535a828561532c565b60208201915061536a828461532c565b6020820191508190509392505050565b600060ff82169050919050565b6153908161537a565b82525050565b60006080820190506153ab6000830187613899565b6153b86020830186615387565b6153c56040830185613899565b6153d26060830184613899565b95945050505050565b600060a0820190506153f06000830188613899565b6153fd6020830187613899565b61540a6040830186613899565b6154176060830185613903565b615424608083018461374d565b969550505050505056fea26469706673582212206c13365c0173a8f2f3b0b5ae10eb146f34ba5f4052a8d03a7b32f94c55042a8064736f6c63430008090033",
  "linkReferences": {},
  "deployedLinkReferences": {}
}