{
  "_format": "hh-sol-artifact-1",
  "contractName": "GenerativeAlphaDev",
  "sourceName": "contracts/GenerativeAlphaDev.sol",
  "abi": [
    {
      "inputs": [
        {
          "internalType": "string",
          "name": "_name",
          "type": "string"
        },
        {
          "internalType": "string",
          "name": "_symbol",
          "type": "string"
        },
        {
          "internalType": "string",
          "name": "_signingDomainName",
          "type": "string"
        },
        {
          "internalType": "string",
          "name": "_signingDomainVersion",
          "type": "string"
        },
        {
          "internalType": "address",
          "name": "_minter",
          "type": "address"
        },
        {
          "internalType": "address",
          "name": "_royaltyAddress",
          "type": "address"
        },
        {
          "internalType": "uint96",
          "name": "_royaltyFee",
          "type": "uint96"
        },
        {
          "internalType": "uint256",
          "name": "_maxSupply",
          "type": "uint256"
        },
        {
          "internalType": "string",
          "name": "_uri",
          "type": "string"
        },
        {
          "internalType": "uint256",
          "name": "_price",
          "type": "uint256"
        }
      ],
      "stateMutability": "nonpayable",
      "type": "constructor"
    },
    {
      "anonymous": false,
      "inputs": [
        {
          "indexed": true,
          "internalType": "address",
          "name": "owner",
          "type": "address"
        },
        {
          "indexed": true,
          "internalType": "address",
          "name": "approved",
          "type": "address"
        },
        {
          "indexed": true,
          "internalType": "uint256",
          "name": "tokenId",
          "type": "uint256"
        }
      ],
      "name": "Approval",
      "type": "event"
    },
    {
      "anonymous": false,
      "inputs": [
        {
          "indexed": true,
          "internalType": "address",
          "name": "owner",
          "type": "address"
        },
        {
          "indexed": true,
          "internalType": "address",
          "name": "operator",
          "type": "address"
        },
        {
          "indexed": false,
          "internalType": "bool",
          "name": "approved",
          "type": "bool"
        }
      ],
      "name": "ApprovalForAll",
      "type": "event"
    },
    {
      "anonymous": false,
      "inputs": [
        {
          "indexed": true,
          "internalType": "address",
          "name": "previousOwner",
          "type": "address"
        },
        {
          "indexed": true,
          "internalType": "address",
          "name": "newOwner",
          "type": "address"
        }
      ],
      "name": "OwnershipTransferred",
      "type": "event"
    },
    {
      "anonymous": false,
      "inputs": [
        {
          "indexed": true,
          "internalType": "bytes32",
          "name": "role",
          "type": "bytes32"
        },
        {
          "indexed": true,
          "internalType": "bytes32",
          "name": "previousAdminRole",
          "type": "bytes32"
        },
        {
          "indexed": true,
          "internalType": "bytes32",
          "name": "newAdminRole",
          "type": "bytes32"
        }
      ],
      "name": "RoleAdminChanged",
      "type": "event"
    },
    {
      "anonymous": false,
      "inputs": [
        {
          "indexed": true,
          "internalType": "bytes32",
          "name": "role",
          "type": "bytes32"
        },
        {
          "indexed": true,
          "internalType": "address",
          "name": "account",
          "type": "address"
        },
        {
          "indexed": true,
          "internalType": "address",
          "name": "sender",
          "type": "address"
        }
      ],
      "name": "RoleGranted",
      "type": "event"
    },
    {
      "anonymous": false,
      "inputs": [
        {
          "indexed": true,
          "internalType": "bytes32",
          "name": "role",
          "type": "bytes32"
        },
        {
          "indexed": true,
          "internalType": "address",
          "name": "account",
          "type": "address"
        },
        {
          "indexed": true,
          "internalType": "address",
          "name": "sender",
          "type": "address"
        }
      ],
      "name": "RoleRevoked",
      "type": "event"
    },
    {
      "anonymous": false,
      "inputs": [
        {
          "indexed": true,
          "internalType": "address",
          "name": "from",
          "type": "address"
        },
        {
          "indexed": true,
          "internalType": "address",
          "name": "to",
          "type": "address"
        },
        {
          "indexed": true,
          "internalType": "uint256",
          "name": "tokenId",
          "type": "uint256"
        }
      ],
      "name": "Transfer",
      "type": "event"
    },
    {
      "inputs": [],
      "name": "DEFAULT_ADMIN_ROLE",
      "outputs": [
        {
          "internalType": "bytes32",
          "name": "",
          "type": "bytes32"
        }
      ],
      "stateMutability": "view",
      "type": "function"
    },
    {
      "inputs": [],
      "name": "MAX_SUPPLY",
      "outputs": [
        {
          "internalType": "uint256",
          "name": "",
          "type": "uint256"
        }
      ],
      "stateMutability": "view",
      "type": "function"
    },
    {
      "inputs": [],
      "name": "MINTER_ROLE",
      "outputs": [
        {
          "internalType": "bytes32",
          "name": "",
          "type": "bytes32"
        }
      ],
      "stateMutability": "view",
      "type": "function"
    },
    {
      "inputs": [
        {
          "internalType": "address",
          "name": "to",
          "type": "address"
        },
        {
          "internalType": "uint256",
          "name": "tokenId",
          "type": "uint256"
        }
      ],
      "name": "approve",
      "outputs": [],
      "stateMutability": "nonpayable",
      "type": "function"
    },
    {
      "inputs": [
        {
          "internalType": "address",
          "name": "owner",
          "type": "address"
        }
      ],
      "name": "balanceOf",
      "outputs": [
        {
          "internalType": "uint256",
          "name": "",
          "type": "uint256"
        }
      ],
      "stateMutability": "view",
      "type": "function"
    },
    {
      "inputs": [],
      "name": "baseTokenURI",
      "outputs": [
        {
          "internalType": "string",
          "name": "",
          "type": "string"
        }
      ],
      "stateMutability": "view",
      "type": "function"
    },
    {
      "inputs": [
        {
          "internalType": "uint256",
          "name": "tokenId",
          "type": "uint256"
        }
      ],
      "name": "getApproved",
      "outputs": [
        {
          "internalType": "address",
          "name": "",
          "type": "address"
        }
      ],
      "stateMutability": "view",
      "type": "function"
    },
    {
      "inputs": [],
      "name": "getChainID",
      "outputs": [
        {
          "internalType": "uint256",
          "name": "",
          "type": "uint256"
        }
      ],
      "stateMutability": "view",
      "type": "function"
    },
    {
      "inputs": [
        {
          "internalType": "bytes32",
          "name": "role",
          "type": "bytes32"
        }
      ],
      "name": "getRoleAdmin",
      "outputs": [
        {
          "internalType": "bytes32",
          "name": "",
          "type": "bytes32"
        }
      ],
      "stateMutability": "view",
      "type": "function"
    },
    {
      "inputs": [
        {
          "internalType": "bytes32",
          "name": "role",
          "type": "bytes32"
        },
        {
          "internalType": "address",
          "name": "account",
          "type": "address"
        }
      ],
      "name": "grantRole",
      "outputs": [],
      "stateMutability": "nonpayable",
      "type": "function"
    },
    {
      "inputs": [
        {
          "internalType": "bytes32",
          "name": "role",
          "type": "bytes32"
        },
        {
          "internalType": "address",
          "name": "account",
          "type": "address"
        }
      ],
      "name": "hasRole",
      "outputs": [
        {
          "internalType": "bool",
          "name": "",
          "type": "bool"
        }
      ],
      "stateMutability": "view",
      "type": "function"
    },
    {
      "inputs": [],
      "name": "isActive",
      "outputs": [
        {
          "internalType": "bool",
          "name": "",
          "type": "bool"
        }
      ],
      "stateMutability": "view",
      "type": "function"
    },
    {
      "inputs": [
        {
          "internalType": "address",
          "name": "owner",
          "type": "address"
        },
        {
          "internalType": "address",
          "name": "operator",
          "type": "address"
        }
      ],
      "name": "isApprovedForAll",
      "outputs": [
        {
          "internalType": "bool",
          "name": "",
          "type": "bool"
        }
      ],
      "stateMutability": "view",
      "type": "function"
    },
    {
      "inputs": [],
      "name": "name",
      "outputs": [
        {
          "internalType": "string",
          "name": "",
          "type": "string"
        }
      ],
      "stateMutability": "view",
      "type": "function"
    },
    {
      "inputs": [],
      "name": "owner",
      "outputs": [
        {
          "internalType": "address",
          "name": "",
          "type": "address"
        }
      ],
      "stateMutability": "view",
      "type": "function"
    },
    {
      "inputs": [
        {
          "internalType": "uint256",
          "name": "tokenId",
          "type": "uint256"
        }
      ],
      "name": "ownerOf",
      "outputs": [
        {
          "internalType": "address",
          "name": "",
          "type": "address"
        }
      ],
      "stateMutability": "view",
      "type": "function"
    },
    {
      "inputs": [],
      "name": "price",
      "outputs": [
        {
          "internalType": "uint256",
          "name": "",
          "type": "uint256"
        }
      ],
      "stateMutability": "view",
      "type": "function"
    },
    {
      "inputs": [
        {
          "components": [
            {
              "internalType": "uint256",
              "name": "tokenId",
              "type": "uint256"
            },
            {
              "internalType": "string",
              "name": "tokenURI",
              "type": "string"
            },
            {
              "internalType": "bytes",
              "name": "signature",
              "type": "bytes"
            }
          ],
          "internalType": "struct GenerativeAlphaDev.NFTVoucher",
          "name": "voucher",
          "type": "tuple"
        }
      ],
      "name": "redeem",
      "outputs": [],
      "stateMutability": "payable",
      "type": "function"
    },
    {
      "inputs": [],
      "name": "renounceOwnership",
      "outputs": [],
      "stateMutability": "nonpayable",
      "type": "function"
    },
    {
      "inputs": [
        {
          "internalType": "bytes32",
          "name": "role",
          "type": "bytes32"
        },
        {
          "internalType": "address",
          "name": "account",
          "type": "address"
        }
      ],
      "name": "renounceRole",
      "outputs": [],
      "stateMutability": "nonpayable",
      "type": "function"
    },
    {
      "inputs": [
        {
          "internalType": "bytes32",
          "name": "role",
          "type": "bytes32"
        },
        {
          "internalType": "address",
          "name": "account",
          "type": "address"
        }
      ],
      "name": "revokeRole",
      "outputs": [],
      "stateMutability": "nonpayable",
      "type": "function"
    },
    {
      "inputs": [],
      "name": "royaltyAddress",
      "outputs": [
        {
          "internalType": "address",
          "name": "",
          "type": "address"
        }
      ],
      "stateMutability": "view",
      "type": "function"
    },
    {
      "inputs": [],
      "name": "royaltyFee",
      "outputs": [
        {
          "internalType": "uint96",
          "name": "",
          "type": "uint96"
        }
      ],
      "stateMutability": "view",
      "type": "function"
    },
    {
      "inputs": [
        {
          "internalType": "uint256",
          "name": "_tokenId",
          "type": "uint256"
        },
        {
          "internalType": "uint256",
          "name": "_salePrice",
          "type": "uint256"
        }
      ],
      "name": "royaltyInfo",
      "outputs": [
        {
          "internalType": "address",
          "name": "",
          "type": "address"
        },
        {
          "internalType": "uint256",
          "name": "",
          "type": "uint256"
        }
      ],
      "stateMutability": "view",
      "type": "function"
    },
    {
      "inputs": [
        {
          "internalType": "address",
          "name": "from",
          "type": "address"
        },
        {
          "internalType": "address",
          "name": "to",
          "type": "address"
        },
        {
          "internalType": "uint256",
          "name": "tokenId",
          "type": "uint256"
        }
      ],
      "name": "safeTransferFrom",
      "outputs": [],
      "stateMutability": "nonpayable",
      "type": "function"
    },
    {
      "inputs": [
        {
          "internalType": "address",
          "name": "from",
          "type": "address"
        },
        {
          "internalType": "address",
          "name": "to",
          "type": "address"
        },
        {
          "internalType": "uint256",
          "name": "tokenId",
          "type": "uint256"
        },
        {
          "internalType": "bytes",
          "name": "_data",
          "type": "bytes"
        }
      ],
      "name": "safeTransferFrom",
      "outputs": [],
      "stateMutability": "nonpayable",
      "type": "function"
    },
    {
      "inputs": [
        {
          "internalType": "bool",
          "name": "_isActive",
          "type": "bool"
        }
      ],
      "name": "setActive",
      "outputs": [],
      "stateMutability": "nonpayable",
      "type": "function"
    },
    {
      "inputs": [
        {
          "internalType": "address",
          "name": "operator",
          "type": "address"
        },
        {
          "internalType": "bool",
          "name": "approved",
          "type": "bool"
        }
      ],
      "name": "setApprovalForAll",
      "outputs": [],
      "stateMutability": "nonpayable",
      "type": "function"
    },
    {
      "inputs": [
        {
          "internalType": "string",
          "name": "_baseTokenURI",
          "type": "string"
        }
      ],
      "name": "setBaseURI",
      "outputs": [],
      "stateMutability": "nonpayable",
      "type": "function"
    },
    {
      "inputs": [
        {
          "internalType": "uint256",
          "name": "_price",
          "type": "uint256"
        }
      ],
      "name": "setPrice",
      "outputs": [],
      "stateMutability": "nonpayable",
      "type": "function"
    },
    {
      "inputs": [
        {
          "internalType": "address",
          "name": "_royaltyAddress",
          "type": "address"
        }
      ],
      "name": "setRoyaltyAddress",
      "outputs": [],
      "stateMutability": "nonpayable",
      "type": "function"
    },
    {
      "inputs": [
        {
          "internalType": "uint96",
          "name": "_royaltyFee",
          "type": "uint96"
        }
      ],
      "name": "setRoyaltyFee",
      "outputs": [],
      "stateMutability": "nonpayable",
      "type": "function"
    },
    {
      "inputs": [
        {
          "internalType": "address",
          "name": "_vault",
          "type": "address"
        }
      ],
      "name": "setVault",
      "outputs": [],
      "stateMutability": "nonpayable",
      "type": "function"
    },
    {
      "inputs": [
        {
          "internalType": "bytes4",
          "name": "interfaceId",
          "type": "bytes4"
        }
      ],
      "name": "supportsInterface",
      "outputs": [
        {
          "internalType": "bool",
          "name": "",
          "type": "bool"
        }
      ],
      "stateMutability": "view",
      "type": "function"
    },
    {
      "inputs": [],
      "name": "symbol",
      "outputs": [
        {
          "internalType": "string",
          "name": "",
          "type": "string"
        }
      ],
      "stateMutability": "view",
      "type": "function"
    },
    {
      "inputs": [
        {
          "internalType": "uint256",
          "name": "tokenId",
          "type": "uint256"
        }
      ],
      "name": "tokenURI",
      "outputs": [
        {
          "internalType": "string",
          "name": "",
          "type": "string"
        }
      ],
      "stateMutability": "view",
      "type": "function"
    },
    {
      "inputs": [
        {
          "internalType": "address",
          "name": "from",
          "type": "address"
        },
        {
          "internalType": "address",
          "name": "to",
          "type": "address"
        },
        {
          "internalType": "uint256",
          "name": "tokenId",
          "type": "uint256"
        }
      ],
      "name": "transferFrom",
      "outputs": [],
      "stateMutability": "nonpayable",
      "type": "function"
    },
    {
      "inputs": [
        {
          "internalType": "address",
          "name": "newOwner",
          "type": "address"
        }
      ],
      "name": "transferOwnership",
      "outputs": [],
      "stateMutability": "nonpayable",
      "type": "function"
    },
    {
      "inputs": [],
      "name": "vault",
      "outputs": [
        {
          "internalType": "address",
          "name": "",
          "type": "address"
        }
      ],
      "stateMutability": "view",
      "type": "function"
    },
    {
      "inputs": [
        {
          "components": [
            {
              "internalType": "uint256",
              "name": "tokenId",
              "type": "uint256"
            },
            {
              "internalType": "string",
              "name": "tokenURI",
              "type": "string"
            },
            {
              "internalType": "bytes",
              "name": "signature",
              "type": "bytes"
            }
          ],
          "internalType": "struct GenerativeAlphaDev.NFTVoucher",
          "name": "voucher",
          "type": "tuple"
        }
      ],
      "name": "verifyTest",
      "outputs": [
        {
          "internalType": "address",
          "name": "",
          "type": "address"
        }
      ],
      "stateMutability": "view",
      "type": "function"
    },
    {
      "inputs": [
        {
          "components": [
            {
              "internalType": "uint256",
              "name": "tokenId",
              "type": "uint256"
            },
            {
              "internalType": "string",
              "name": "tokenURI",
              "type": "string"
            },
            {
              "internalType": "bytes",
              "name": "signature",
              "type": "bytes"
            }
          ],
          "internalType": "struct GenerativeAlphaDev.NFTVoucher",
          "name": "voucher",
          "type": "tuple"
        }
      ],
      "name": "voucherTokenId",
      "outputs": [
        {
          "internalType": "uint256",
          "name": "",
          "type": "uint256"
        }
      ],
      "stateMutability": "view",
      "type": "function"
    },
    {
      "inputs": [
        {
          "components": [
            {
              "internalType": "uint256",
              "name": "tokenId",
              "type": "uint256"
            },
            {
              "internalType": "string",
              "name": "tokenURI",
              "type": "string"
            },
            {
              "internalType": "bytes",
              "name": "signature",
              "type": "bytes"
            }
          ],
          "internalType": "struct GenerativeAlphaDev.NFTVoucher",
          "name": "voucher",
          "type": "tuple"
        }
      ],
      "name": "voucherTokenURI",
      "outputs": [
        {
          "internalType": "string",
          "name": "",
          "type": "string"
        }
      ],
      "stateMutability": "view",
      "type": "function"
    },
    {
      "inputs": [],
      "name": "withdraw",
      "outputs": [],
      "stateMutability": "payable",
      "type": "function"
    }
  ],
  "bytecode": "0x6101406040523480156200001257600080fd5b5060405162006ef938038062006ef9833981810160405281019062000038919062000b00565b87878b8b816000908051906020019062000054929190620007ca565b5080600190805190602001906200006d929190620007ca565b50505060008280519060200120905060008280519060200120905060007f8b73c3c69bb8fe3d512ecc4cf759cc79239f7b179b0ffacaa9a75d522b39400f90508260e081815250508161010081815250504660a08181525050620000d98184846200023160201b60201c565b608081815250503073ffffffffffffffffffffffffffffffffffffffff1660c08173ffffffffffffffffffffffffffffffffffffffff1681525050806101208181525050505050505062000142620001366200026d60201b60201c565b6200027560201b60201c565b620001747f9f2df0fed2c77648de5860a4cc508cd0818c85b8b8a1ab4ceeef8d981c8956a6876200033b60201b60201c565b6200018685856200035160201b60201c565b84600f60006101000a81548173ffffffffffffffffffffffffffffffffffffffff021916908373ffffffffffffffffffffffffffffffffffffffff16021790555083600f60146101000a8154816bffffffffffffffffffffffff02191690836bffffffffffffffffffffffff16021790555082600b819055506200021082620004f560201b60201c565b6200022181620005a060201b60201c565b5050505050505050505062000f1d565b600083838346306040516020016200024e95949392919062000cce565b6040516020818303038152906040528051906020012090509392505050565b600033905090565b6000600a60009054906101000a900473ffffffffffffffffffffffffffffffffffffffff16905081600a60006101000a81548173ffffffffffffffffffffffffffffffffffffffff021916908373ffffffffffffffffffffffffffffffffffffffff1602179055508173ffffffffffffffffffffffffffffffffffffffff168173ffffffffffffffffffffffffffffffffffffffff167f8be0079c531659141344cd1fd0a4f28419497f9722a3daafe3b4186f6b6457e060405160405180910390a35050565b6200034d82826200063960201b60201c565b5050565b620003616200072b60201b60201c565b6bffffffffffffffffffffffff16816bffffffffffffffffffffffff161115620003c2576040517f08c379a0000000000000000000000000000000000000000000000000000000008152600401620003b99062000db2565b60405180910390fd5b600073ffffffffffffffffffffffffffffffffffffffff168273ffffffffffffffffffffffffffffffffffffffff16141562000435576040517f08c379a00000000000000000000000000000000000000000000000000000000081526004016200042c9062000e24565b60405180910390fd5b60405180604001604052808373ffffffffffffffffffffffffffffffffffffffff168152602001826bffffffffffffffffffffffff16815250600760008201518160000160006101000a81548173ffffffffffffffffffffffffffffffffffffffff021916908373ffffffffffffffffffffffffffffffffffffffff16021790555060208201518160000160146101000a8154816bffffffffffffffffffffffff02191690836bffffffffffffffffffffffff1602179055509050505050565b620005056200026d60201b60201c565b73ffffffffffffffffffffffffffffffffffffffff166200052b6200073560201b60201c565b73ffffffffffffffffffffffffffffffffffffffff161462000584576040517f08c379a00000000000000000000000000000000000000000000000000000000081526004016200057b9062000e96565b60405180910390fd5b80600c90805190602001906200059c929190620007ca565b5050565b620005b06200026d60201b60201c565b73ffffffffffffffffffffffffffffffffffffffff16620005d66200073560201b60201c565b73ffffffffffffffffffffffffffffffffffffffff16146200062f576040517f08c379a0000000000000000000000000000000000000000000000000000000008152600401620006269062000e96565b60405180910390fd5b80600e8190555050565b6200064b82826200075f60201b60201c565b620007275760016009600084815260200190815260200160002060000160008373ffffffffffffffffffffffffffffffffffffffff1673ffffffffffffffffffffffffffffffffffffffff16815260200190815260200160002060006101000a81548160ff021916908315150217905550620006cc6200026d60201b60201c565b73ffffffffffffffffffffffffffffffffffffffff168173ffffffffffffffffffffffffffffffffffffffff16837f2f8788117e7eff1d82e926ec794901d17c78024a50270940304540a733656f0d60405160405180910390a45b5050565b6000612710905090565b6000600a60009054906101000a900473ffffffffffffffffffffffffffffffffffffffff16905090565b60006009600084815260200190815260200160002060000160008373ffffffffffffffffffffffffffffffffffffffff1673ffffffffffffffffffffffffffffffffffffffff16815260200190815260200160002060009054906101000a900460ff16905092915050565b828054620007d89062000ee7565b90600052602060002090601f016020900481019282620007fc576000855562000848565b82601f106200081757805160ff191683800117855562000848565b8280016001018555821562000848579182015b82811115620008475782518255916020019190600101906200082a565b5b5090506200085791906200085b565b5090565b5b80821115620008765760008160009055506001016200085c565b5090565b6000604051905090565b600080fd5b600080fd5b600080fd5b600080fd5b6000601f19601f8301169050919050565b7f4e487b7100000000000000000000000000000000000000000000000000000000600052604160045260246000fd5b620008e38262000898565b810181811067ffffffffffffffff82111715620009055762000904620008a9565b5b80604052505050565b60006200091a6200087a565b9050620009288282620008d8565b919050565b600067ffffffffffffffff8211156200094b576200094a620008a9565b5b620009568262000898565b9050602081019050919050565b60005b838110156200098357808201518184015260208101905062000966565b8381111562000993576000848401525b50505050565b6000620009b0620009aa846200092d565b6200090e565b905082815260208101848484011115620009cf57620009ce62000893565b5b620009dc84828562000963565b509392505050565b600082601f830112620009fc57620009fb6200088e565b5b815162000a0e84826020860162000999565b91505092915050565b600073ffffffffffffffffffffffffffffffffffffffff82169050919050565b600062000a448262000a17565b9050919050565b62000a568162000a37565b811462000a6257600080fd5b50565b60008151905062000a768162000a4b565b92915050565b60006bffffffffffffffffffffffff82169050919050565b62000a9f8162000a7c565b811462000aab57600080fd5b50565b60008151905062000abf8162000a94565b92915050565b6000819050919050565b62000ada8162000ac5565b811462000ae657600080fd5b50565b60008151905062000afa8162000acf565b92915050565b6000806000806000806000806000806101408b8d03121562000b275762000b2662000884565b5b60008b015167ffffffffffffffff81111562000b485762000b4762000889565b5b62000b568d828e01620009e4565b9a505060208b015167ffffffffffffffff81111562000b7a5762000b7962000889565b5b62000b888d828e01620009e4565b99505060408b015167ffffffffffffffff81111562000bac5762000bab62000889565b5b62000bba8d828e01620009e4565b98505060608b015167ffffffffffffffff81111562000bde5762000bdd62000889565b5b62000bec8d828e01620009e4565b975050608062000bff8d828e0162000a65565b96505060a062000c128d828e0162000a65565b95505060c062000c258d828e0162000aae565b94505060e062000c388d828e0162000ae9565b9350506101008b015167ffffffffffffffff81111562000c5d5762000c5c62000889565b5b62000c6b8d828e01620009e4565b92505061012062000c7f8d828e0162000ae9565b9150509295989b9194979a5092959850565b6000819050919050565b62000ca68162000c91565b82525050565b62000cb78162000ac5565b82525050565b62000cc88162000a37565b82525050565b600060a08201905062000ce5600083018862000c9b565b62000cf4602083018762000c9b565b62000d03604083018662000c9b565b62000d12606083018562000cac565b62000d21608083018462000cbd565b9695505050505050565b600082825260208201905092915050565b7f455243323938313a20726f79616c7479206665652077696c6c2065786365656460008201527f2073616c65507269636500000000000000000000000000000000000000000000602082015250565b600062000d9a602a8362000d2b565b915062000da78262000d3c565b604082019050919050565b6000602082019050818103600083015262000dcd8162000d8b565b9050919050565b7f455243323938313a20696e76616c696420726563656976657200000000000000600082015250565b600062000e0c60198362000d2b565b915062000e198262000dd4565b602082019050919050565b6000602082019050818103600083015262000e3f8162000dfd565b9050919050565b7f4f776e61626c653a2063616c6c6572206973206e6f7420746865206f776e6572600082015250565b600062000e7e60208362000d2b565b915062000e8b8262000e46565b602082019050919050565b6000602082019050818103600083015262000eb18162000e6f565b9050919050565b7f4e487b7100000000000000000000000000000000000000000000000000000000600052602260045260246000fd5b6000600282049050600182168062000f0057607f821691505b6020821081141562000f175762000f1662000eb8565b5b50919050565b60805160a05160c05160e0516101005161012051615f8c62000f6d6000396000613b6c01526000613bae01526000613b8d01526000613ac201526000613b1801526000613b410152615f8c6000f3fe60806040526004361061025c5760003560e01c806370a0823111610144578063b88d4fde116100b6578063d547741f1161007a578063d547741f146108ef578063d547cfb714610918578063e985e9c514610943578063f2fde38b14610980578063f904a98d146109a9578063fbfa77cf146109e65761025c565b8063b88d4fde14610817578063b8997a9714610840578063c585710a1461086b578063c87b56dd14610887578063d5391393146108c45761025c565b806395d89b411161010857806395d89b4114610719578063a035b1fe14610744578063a217fddf1461076f578063a22cb4651461079a578063acec338a146107c3578063ad2f852a146107ec5761025c565b806370a0823114610634578063715018a6146106715780638da5cb5b1461068857806391b7f5ed146106b357806391d14854146106dc5761025c565b80632f2ff15d116101dd57806340afcb2e116101a157806340afcb2e1461051457806342842e0e1461055157806355f804b31461057a578063564b81ef146105a35780636352211e146105ce5780636817031b1461060b5761025c565b80632f2ff15d1461046457806331faafb41461048d57806332cb6b0c146104b657806336568abe146104e15780633ccfd60b1461050a5761025c565b8063159f7e5511610224578063159f7e551461035857806322f3e2d41461039557806323b872dd146103c0578063248a9ca3146103e95780632a55205a146104265761025c565b806301ffc9a71461026157806306d254da1461029e57806306fdde03146102c7578063081812fc146102f2578063095ea7b31461032f575b600080fd5b34801561026d57600080fd5b5061028860048036038101906102839190613ec0565b610a11565b6040516102959190613f08565b60405180910390f35b3480156102aa57600080fd5b506102c560048036038101906102c09190613f81565b610a43565b005b3480156102d357600080fd5b506102dc610b49565b6040516102e99190614047565b60405180910390f35b3480156102fe57600080fd5b506103196004803603810190610314919061409f565b610bdb565b60405161032691906140db565b60405180910390f35b34801561033b57600080fd5b50610356600480360381019061035191906140f6565b610c60565b005b34801561036457600080fd5b5061037f600480360381019061037a919061415a565b610d78565b60405161038c91906141b2565b60405180910390f35b3480156103a157600080fd5b506103aa610d86565b6040516103b79190613f08565b60405180910390f35b3480156103cc57600080fd5b506103e760048036038101906103e291906141cd565b610d99565b005b3480156103f557600080fd5b50610410600480360381019061040b9190614256565b610df9565b60405161041d9190614292565b60405180910390f35b34801561043257600080fd5b5061044d600480360381019061044891906142ad565b610e19565b60405161045b9291906142ed565b60405180910390f35b34801561047057600080fd5b5061048b60048036038101906104869190614316565b611004565b005b34801561049957600080fd5b506104b460048036038101906104af919061439a565b61102d565b005b3480156104c257600080fd5b506104cb611123565b6040516104d891906141b2565b60405180910390f35b3480156104ed57600080fd5b5061050860048036038101906105039190614316565b611129565b005b6105126111ac565b005b34801561052057600080fd5b5061053b6004803603810190610536919061415a565b61131c565b6040516105489190614047565b60405180910390f35b34801561055d57600080fd5b50610578600480360381019061057391906141cd565b611378565b005b34801561058657600080fd5b506105a1600480360381019061059c91906144fc565b611398565b005b3480156105af57600080fd5b506105b861142e565b6040516105c591906141b2565b60405180910390f35b3480156105da57600080fd5b506105f560048036038101906105f0919061409f565b61143b565b60405161060291906140db565b60405180910390f35b34801561061757600080fd5b50610632600480360381019061062d9190613f81565b6114ed565b005b34801561064057600080fd5b5061065b60048036038101906106569190613f81565b6115ad565b60405161066891906141b2565b60405180910390f35b34801561067d57600080fd5b50610686611665565b005b34801561069457600080fd5b5061069d6116ed565b6040516106aa91906140db565b60405180910390f35b3480156106bf57600080fd5b506106da60048036038101906106d5919061409f565b611717565b005b3480156106e857600080fd5b5061070360048036038101906106fe9190614316565b61179d565b6040516107109190613f08565b60405180910390f35b34801561072557600080fd5b5061072e611808565b60405161073b9190614047565b60405180910390f35b34801561075057600080fd5b5061075961189a565b60405161076691906141b2565b60405180910390f35b34801561077b57600080fd5b506107846118a0565b6040516107919190614292565b60405180910390f35b3480156107a657600080fd5b506107c160048036038101906107bc9190614571565b6118a7565b005b3480156107cf57600080fd5b506107ea60048036038101906107e591906145b1565b6118bd565b005b3480156107f857600080fd5b50610801611956565b60405161080e91906140db565b60405180910390f35b34801561082357600080fd5b5061083e6004803603810190610839919061467f565b61197c565b005b34801561084c57600080fd5b506108556119de565b6040516108629190614711565b60405180910390f35b6108856004803603810190610880919061415a565b6119fc565b005b34801561089357600080fd5b506108ae60048036038101906108a9919061409f565b611c3b565b6040516108bb9190614047565b60405180910390f35b3480156108d057600080fd5b506108d9611d8d565b6040516108e69190614292565b60405180910390f35b3480156108fb57600080fd5b5061091660048036038101906109119190614316565b611db1565b005b34801561092457600080fd5b5061092d611dda565b60405161093a9190614047565b60405180910390f35b34801561094f57600080fd5b5061096a6004803603810190610965919061472c565b611e68565b6040516109779190613f08565b60405180910390f35b34801561098c57600080fd5b506109a760048036038101906109a29190613f81565b611efc565b005b3480156109b557600080fd5b506109d060048036038101906109cb919061415a565b611ff4565b6040516109dd91906140db565b60405180910390f35b3480156109f257600080fd5b506109fb612066565b604051610a0891906140db565b60405180910390f35b6000610a1c8261208c565b80610a2c5750610a2b8261216e565b5b80610a3c5750610a3b826121e8565b5b9050919050565b610a4b612262565b73ffffffffffffffffffffffffffffffffffffffff16610a696116ed565b73ffffffffffffffffffffffffffffffffffffffff1614610abf576040517f08c379a0000000000000000000000000000000000000000000000000000000008152600401610ab6906147b8565b60405180910390fd5b80600f60006101000a81548173ffffffffffffffffffffffffffffffffffffffff021916908373ffffffffffffffffffffffffffffffffffffffff160217905550610b46600f60009054906101000a900473ffffffffffffffffffffffffffffffffffffffff16600f60149054906101000a90046bffffffffffffffffffffffff1661226a565b50565b606060008054610b5890614807565b80601f0160208091040260200160405190810160405280929190818152602001828054610b8490614807565b8015610bd15780601f10610ba657610100808354040283529160200191610bd1565b820191906000526020600020905b815481529060010190602001808311610bb457829003601f168201915b5050505050905090565b6000610be682612400565b610c25576040517f08c379a0000000000000000000000000000000000000000000000000000000008152600401610c1c906148ab565b60405180910390fd5b6004600083815260200190815260200160002060009054906101000a900473ffffffffffffffffffffffffffffffffffffffff169050919050565b6000610c6b8261143b565b90508073ffffffffffffffffffffffffffffffffffffffff168373ffffffffffffffffffffffffffffffffffffffff161415610cdc576040517f08c379a0000000000000000000000000000000000000000000000000000000008152600401610cd39061493d565b60405180910390fd5b8073ffffffffffffffffffffffffffffffffffffffff16610cfb612262565b73ffffffffffffffffffffffffffffffffffffffff161480610d2a5750610d2981610d24612262565b611e68565b5b610d69576040517f08c379a0000000000000000000000000000000000000000000000000000000008152600401610d60906149cf565b60405180910390fd5b610d73838361246c565b505050565b600081600001359050919050565b600d60149054906101000a900460ff1681565b610daa610da4612262565b82612525565b610de9576040517f08c379a0000000000000000000000000000000000000000000000000000000008152600401610de090614a61565b60405180910390fd5b610df4838383612603565b505050565b600060096000838152602001908152602001600020600101549050919050565b6000806000600860008681526020019081526020016000206040518060400160405290816000820160009054906101000a900473ffffffffffffffffffffffffffffffffffffffff1673ffffffffffffffffffffffffffffffffffffffff1673ffffffffffffffffffffffffffffffffffffffff1681526020016000820160149054906101000a90046bffffffffffffffffffffffff166bffffffffffffffffffffffff166bffffffffffffffffffffffff16815250509050600073ffffffffffffffffffffffffffffffffffffffff16816000015173ffffffffffffffffffffffffffffffffffffffff161415610faf5760076040518060400160405290816000820160009054906101000a900473ffffffffffffffffffffffffffffffffffffffff1673ffffffffffffffffffffffffffffffffffffffff1673ffffffffffffffffffffffffffffffffffffffff1681526020016000820160149054906101000a90046bffffffffffffffffffffffff166bffffffffffffffffffffffff166bffffffffffffffffffffffff168152505090505b6000610fb961286a565b6bffffffffffffffffffffffff1682602001516bffffffffffffffffffffffff1686610fe59190614ab0565b610fef9190614b39565b90508160000151819350935050509250929050565b61100d82610df9565b61101e81611019612262565b612874565b6110288383612911565b505050565b611035612262565b73ffffffffffffffffffffffffffffffffffffffff166110536116ed565b73ffffffffffffffffffffffffffffffffffffffff16146110a9576040517f08c379a00000000000000000000000000000000000000000000000000000000081526004016110a0906147b8565b60405180910390fd5b80600f60146101000a8154816bffffffffffffffffffffffff02191690836bffffffffffffffffffffffff160217905550611120600f60009054906101000a900473ffffffffffffffffffffffffffffffffffffffff16600f60149054906101000a90046bffffffffffffffffffffffff1661226a565b50565b600b5481565b611131612262565b73ffffffffffffffffffffffffffffffffffffffff168173ffffffffffffffffffffffffffffffffffffffff161461119e576040517f08c379a000000000000000000000000000000000000000000000000000000000815260040161119590614bdc565b60405180910390fd5b6111a882826129f2565b5050565b6111b4612262565b73ffffffffffffffffffffffffffffffffffffffff166111d26116ed565b73ffffffffffffffffffffffffffffffffffffffff1614611228576040517f08c379a000000000000000000000000000000000000000000000000000000000815260040161121f906147b8565b60405180910390fd5b600073ffffffffffffffffffffffffffffffffffffffff16600d60009054906101000a900473ffffffffffffffffffffffffffffffffffffffff1673ffffffffffffffffffffffffffffffffffffffff1614156112ba576040517f08c379a00000000000000000000000000000000000000000000000000000000081526004016112b190614c48565b60405180910390fd5b600d60009054906101000a900473ffffffffffffffffffffffffffffffffffffffff1673ffffffffffffffffffffffffffffffffffffffff166108fc479081150290604051600060405180830381858888f1935050505061131a57600080fd5b565b606081806020019061132e9190614c77565b8080601f016020809104026020016040519081016040528093929190818152602001838380828437600081840152601f19601f820116905080830192505050505050509050919050565b6113938383836040518060200160405280600081525061197c565b505050565b6113a0612262565b73ffffffffffffffffffffffffffffffffffffffff166113be6116ed565b73ffffffffffffffffffffffffffffffffffffffff1614611414576040517f08c379a000000000000000000000000000000000000000000000000000000000815260040161140b906147b8565b60405180910390fd5b80600c908051906020019061142a929190613db1565b5050565b6000804690508091505090565b6000806002600084815260200190815260200160002060009054906101000a900473ffffffffffffffffffffffffffffffffffffffff169050600073ffffffffffffffffffffffffffffffffffffffff168173ffffffffffffffffffffffffffffffffffffffff1614156114e4576040517f08c379a00000000000000000000000000000000000000000000000000000000081526004016114db90614d4c565b60405180910390fd5b80915050919050565b6114f5612262565b73ffffffffffffffffffffffffffffffffffffffff166115136116ed565b73ffffffffffffffffffffffffffffffffffffffff1614611569576040517f08c379a0000000000000000000000000000000000000000000000000000000008152600401611560906147b8565b60405180910390fd5b80600d60006101000a81548173ffffffffffffffffffffffffffffffffffffffff021916908373ffffffffffffffffffffffffffffffffffffffff16021790555050565b60008073ffffffffffffffffffffffffffffffffffffffff168273ffffffffffffffffffffffffffffffffffffffff16141561161e576040517f08c379a000000000000000000000000000000000000000000000000000000000815260040161161590614dde565b60405180910390fd5b600360008373ffffffffffffffffffffffffffffffffffffffff1673ffffffffffffffffffffffffffffffffffffffff168152602001908152602001600020549050919050565b61166d612262565b73ffffffffffffffffffffffffffffffffffffffff1661168b6116ed565b73ffffffffffffffffffffffffffffffffffffffff16146116e1576040517f08c379a00000000000000000000000000000000000000000000000000000000081526004016116d8906147b8565b60405180910390fd5b6116eb6000612ad4565b565b6000600a60009054906101000a900473ffffffffffffffffffffffffffffffffffffffff16905090565b61171f612262565b73ffffffffffffffffffffffffffffffffffffffff1661173d6116ed565b73ffffffffffffffffffffffffffffffffffffffff1614611793576040517f08c379a000000000000000000000000000000000000000000000000000000000815260040161178a906147b8565b60405180910390fd5b80600e8190555050565b60006009600084815260200190815260200160002060000160008373ffffffffffffffffffffffffffffffffffffffff1673ffffffffffffffffffffffffffffffffffffffff16815260200190815260200160002060009054906101000a900460ff16905092915050565b60606001805461181790614807565b80601f016020809104026020016040519081016040528092919081815260200182805461184390614807565b80156118905780601f1061186557610100808354040283529160200191611890565b820191906000526020600020905b81548152906001019060200180831161187357829003601f168201915b5050505050905090565b600e5481565b6000801b81565b6118b96118b2612262565b8383612b9a565b5050565b6118c5612262565b73ffffffffffffffffffffffffffffffffffffffff166118e36116ed565b73ffffffffffffffffffffffffffffffffffffffff1614611939576040517f08c379a0000000000000000000000000000000000000000000000000000000008152600401611930906147b8565b60405180910390fd5b80600d60146101000a81548160ff02191690831515021790555050565b600f60009054906101000a900473ffffffffffffffffffffffffffffffffffffffff1681565b61198d611987612262565b83612525565b6119cc576040517f08c379a00000000000000000000000000000000000000000000000000000000081526004016119c390614a61565b60405180910390fd5b6119d884848484612d07565b50505050565b600f60149054906101000a90046bffffffffffffffffffffffff1681565b600d60149054906101000a900460ff16611a4b576040517f08c379a0000000000000000000000000000000000000000000000000000000008152600401611a4290614e4a565b60405180910390fd5b600b5460018260000135611a5f9190614e6a565b1115611aa0576040517f08c379a0000000000000000000000000000000000000000000000000000000008152600401611a9790614f0c565b60405180910390fd5b3373ffffffffffffffffffffffffffffffffffffffff163273ffffffffffffffffffffffffffffffffffffffff1614611b0e576040517f08c379a0000000000000000000000000000000000000000000000000000000008152600401611b0590614f78565b60405180910390fd5b600e54341015611b53576040517f08c379a0000000000000000000000000000000000000000000000000000000008152600401611b4a90614fe4565b60405180910390fd5b6000611b5e82612d63565b9050611b8a7f9f2df0fed2c77648de5860a4cc508cd0818c85b8b8a1ab4ceeef8d981c8956a68261179d565b611bc9576040517f08c379a0000000000000000000000000000000000000000000000000000000008152600401611bc090615076565b60405180910390fd5b611bd7338360000135612dd5565b611c378260000135838060200190611bef9190614c77565b8080601f016020809104026020016040519081016040528093929190818152602001838380828437600081840152601f19601f82011690508083019250505050505050612df3565b5050565b6060611c4682612400565b611c85576040517f08c379a0000000000000000000000000000000000000000000000000000000008152600401611c7c90615108565b60405180910390fd5b6000600660008481526020019081526020016000208054611ca590614807565b80601f0160208091040260200160405190810160405280929190818152602001828054611cd190614807565b8015611d1e5780601f10611cf357610100808354040283529160200191611d1e565b820191906000526020600020905b815481529060010190602001808311611d0157829003601f168201915b505050505090506000611d2f612e67565b9050600081511415611d45578192505050611d88565b600082511115611d7a578082604051602001611d62929190615164565b60405160208183030381529060405292505050611d88565b611d8384612ef9565b925050505b919050565b7f9f2df0fed2c77648de5860a4cc508cd0818c85b8b8a1ab4ceeef8d981c8956a681565b611dba82610df9565b611dcb81611dc6612262565b612874565b611dd583836129f2565b505050565b600c8054611de790614807565b80601f0160208091040260200160405190810160405280929190818152602001828054611e1390614807565b8015611e605780601f10611e3557610100808354040283529160200191611e60565b820191906000526020600020905b815481529060010190602001808311611e4357829003601f168201915b505050505081565b6000600560008473ffffffffffffffffffffffffffffffffffffffff1673ffffffffffffffffffffffffffffffffffffffff16815260200190815260200160002060008373ffffffffffffffffffffffffffffffffffffffff1673ffffffffffffffffffffffffffffffffffffffff16815260200190815260200160002060009054906101000a900460ff16905092915050565b611f04612262565b73ffffffffffffffffffffffffffffffffffffffff16611f226116ed565b73ffffffffffffffffffffffffffffffffffffffff1614611f78576040517f08c379a0000000000000000000000000000000000000000000000000000000008152600401611f6f906147b8565b60405180910390fd5b600073ffffffffffffffffffffffffffffffffffffffff168173ffffffffffffffffffffffffffffffffffffffff161415611fe8576040517f08c379a0000000000000000000000000000000000000000000000000000000008152600401611fdf906151fa565b60405180910390fd5b611ff181612ad4565b50565b60008061200083612fa0565b905061205e81848060400190612016919061521a565b8080601f016020809104026020016040519081016040528093929190818152602001838380828437600081840152601f19601f82011690508083019250505050505050613025565b915050919050565b600d60009054906101000a900473ffffffffffffffffffffffffffffffffffffffff1681565b60007f80ac58cd000000000000000000000000000000000000000000000000000000007bffffffffffffffffffffffffffffffffffffffffffffffffffffffff1916827bffffffffffffffffffffffffffffffffffffffffffffffffffffffff1916148061215757507f5b5e139f000000000000000000000000000000000000000000000000000000007bffffffffffffffffffffffffffffffffffffffffffffffffffffffff1916827bffffffffffffffffffffffffffffffffffffffffffffffffffffffff1916145b8061216757506121668261304c565b5b9050919050565b60007f2a55205a000000000000000000000000000000000000000000000000000000007bffffffffffffffffffffffffffffffffffffffffffffffffffffffff1916827bffffffffffffffffffffffffffffffffffffffffffffffffffffffff191614806121e157506121e08261208c565b5b9050919050565b60007f7965db0b000000000000000000000000000000000000000000000000000000007bffffffffffffffffffffffffffffffffffffffffffffffffffffffff1916827bffffffffffffffffffffffffffffffffffffffffffffffffffffffff1916148061225b575061225a8261216e565b5b9050919050565b600033905090565b61227261286a565b6bffffffffffffffffffffffff16816bffffffffffffffffffffffff1611156122d0576040517f08c379a00000000000000000000000000000000000000000000000000000000081526004016122c7906152ef565b60405180910390fd5b600073ffffffffffffffffffffffffffffffffffffffff168273ffffffffffffffffffffffffffffffffffffffff161415612340576040517f08c379a00000000000000000000000000000000000000000000000000000000081526004016123379061535b565b60405180910390fd5b60405180604001604052808373ffffffffffffffffffffffffffffffffffffffff168152602001826bffffffffffffffffffffffff16815250600760008201518160000160006101000a81548173ffffffffffffffffffffffffffffffffffffffff021916908373ffffffffffffffffffffffffffffffffffffffff16021790555060208201518160000160146101000a8154816bffffffffffffffffffffffff02191690836bffffffffffffffffffffffff1602179055509050505050565b60008073ffffffffffffffffffffffffffffffffffffffff166002600084815260200190815260200160002060009054906101000a900473ffffffffffffffffffffffffffffffffffffffff1673ffffffffffffffffffffffffffffffffffffffff1614159050919050565b816004600083815260200190815260200160002060006101000a81548173ffffffffffffffffffffffffffffffffffffffff021916908373ffffffffffffffffffffffffffffffffffffffff160217905550808273ffffffffffffffffffffffffffffffffffffffff166124df8361143b565b73ffffffffffffffffffffffffffffffffffffffff167f8c5be1e5ebec7d5bd14f71427d1e84f3dd0314c0f7b2291e5b200ac8c7c3b92560405160405180910390a45050565b600061253082612400565b61256f576040517f08c379a0000000000000000000000000000000000000000000000000000000008152600401612566906153ed565b60405180910390fd5b600061257a8361143b565b90508073ffffffffffffffffffffffffffffffffffffffff168473ffffffffffffffffffffffffffffffffffffffff1614806125e957508373ffffffffffffffffffffffffffffffffffffffff166125d184610bdb565b73ffffffffffffffffffffffffffffffffffffffff16145b806125fa57506125f98185611e68565b5b91505092915050565b8273ffffffffffffffffffffffffffffffffffffffff166126238261143b565b73ffffffffffffffffffffffffffffffffffffffff1614612679576040517f08c379a00000000000000000000000000000000000000000000000000000000081526004016126709061547f565b60405180910390fd5b600073ffffffffffffffffffffffffffffffffffffffff168273ffffffffffffffffffffffffffffffffffffffff1614156126e9576040517f08c379a00000000000000000000000000000000000000000000000000000000081526004016126e090615511565b60405180910390fd5b6126f48383836130b6565b6126ff60008261246c565b6001600360008573ffffffffffffffffffffffffffffffffffffffff1673ffffffffffffffffffffffffffffffffffffffff168152602001908152602001600020600082825461274f9190615531565b925050819055506001600360008473ffffffffffffffffffffffffffffffffffffffff1673ffffffffffffffffffffffffffffffffffffffff16815260200190815260200160002060008282546127a69190614e6a565b92505081905550816002600083815260200190815260200160002060006101000a81548173ffffffffffffffffffffffffffffffffffffffff021916908373ffffffffffffffffffffffffffffffffffffffff160217905550808273ffffffffffffffffffffffffffffffffffffffff168473ffffffffffffffffffffffffffffffffffffffff167fddf252ad1be2c89b69c2b068fc378daa952ba7f163c4a11628f55a4df523b3ef60405160405180910390a46128658383836130bb565b505050565b6000612710905090565b61287e828261179d565b61290d576128a38173ffffffffffffffffffffffffffffffffffffffff1660146130c0565b6128b18360001c60206130c0565b6040516020016128c29291906155fd565b6040516020818303038152906040526040517f08c379a00000000000000000000000000000000000000000000000000000000081526004016129049190614047565b60405180910390fd5b5050565b61291b828261179d565b6129ee5760016009600084815260200190815260200160002060000160008373ffffffffffffffffffffffffffffffffffffffff1673ffffffffffffffffffffffffffffffffffffffff16815260200190815260200160002060006101000a81548160ff021916908315150217905550612993612262565b73ffffffffffffffffffffffffffffffffffffffff168173ffffffffffffffffffffffffffffffffffffffff16837f2f8788117e7eff1d82e926ec794901d17c78024a50270940304540a733656f0d60405160405180910390a45b5050565b6129fc828261179d565b15612ad05760006009600084815260200190815260200160002060000160008373ffffffffffffffffffffffffffffffffffffffff1673ffffffffffffffffffffffffffffffffffffffff16815260200190815260200160002060006101000a81548160ff021916908315150217905550612a75612262565b73ffffffffffffffffffffffffffffffffffffffff168173ffffffffffffffffffffffffffffffffffffffff16837ff6391f5c32d9c69d2a47ea670b442974b53935d1edc7fd64eb21e047a839171b60405160405180910390a45b5050565b6000600a60009054906101000a900473ffffffffffffffffffffffffffffffffffffffff16905081600a60006101000a81548173ffffffffffffffffffffffffffffffffffffffff021916908373ffffffffffffffffffffffffffffffffffffffff1602179055508173ffffffffffffffffffffffffffffffffffffffff168173ffffffffffffffffffffffffffffffffffffffff167f8be0079c531659141344cd1fd0a4f28419497f9722a3daafe3b4186f6b6457e060405160405180910390a35050565b8173ffffffffffffffffffffffffffffffffffffffff168373ffffffffffffffffffffffffffffffffffffffff161415612c09576040517f08c379a0000000000000000000000000000000000000000000000000000000008152600401612c0090615683565b60405180910390fd5b80600560008573ffffffffffffffffffffffffffffffffffffffff1673ffffffffffffffffffffffffffffffffffffffff16815260200190815260200160002060008473ffffffffffffffffffffffffffffffffffffffff1673ffffffffffffffffffffffffffffffffffffffff16815260200190815260200160002060006101000a81548160ff0219169083151502179055508173ffffffffffffffffffffffffffffffffffffffff168373ffffffffffffffffffffffffffffffffffffffff167f17307eab39ab6107e8899845ad3d59bd9653f200f220920489ca2b5937696c3183604051612cfa9190613f08565b60405180910390a3505050565b612d12848484612603565b612d1e848484846132fc565b612d5d576040517f08c379a0000000000000000000000000000000000000000000000000000000008152600401612d5490615715565b60405180910390fd5b50505050565b600080612d6f83612fa0565b9050612dcd81848060400190612d85919061521a565b8080601f016020809104026020016040519081016040528093929190818152602001838380828437600081840152601f19601f82011690508083019250505050505050613025565b915050919050565b612def828260405180602001604052806000815250613493565b5050565b612dfc82612400565b612e3b576040517f08c379a0000000000000000000000000000000000000000000000000000000008152600401612e32906157a7565b60405180910390fd5b80600660008481526020019081526020016000209080519060200190612e62929190613db1565b505050565b6060600c8054612e7690614807565b80601f0160208091040260200160405190810160405280929190818152602001828054612ea290614807565b8015612eef5780601f10612ec457610100808354040283529160200191612eef565b820191906000526020600020905b815481529060010190602001808311612ed257829003601f168201915b5050505050905090565b6060612f0482612400565b612f43576040517f08c379a0000000000000000000000000000000000000000000000000000000008152600401612f3a90615839565b60405180910390fd5b6000612f4d612e67565b90506000815111612f6d5760405180602001604052806000815250612f98565b80612f77846134ee565b604051602001612f88929190615164565b6040516020818303038152906040525b915050919050565b600061301e7f7039565b3e9a28769d1b397d549c168e212ce7d82383cd03d87e35795f21ca918360000135848060200190612fdb9190614c77565b604051612fe9929190615889565b6040518091039020604051602001613003939291906158a2565b6040516020818303038152906040528051906020012061364f565b9050919050565b60008060006130348585613669565b91509150613041816136ec565b819250505092915050565b60007f01ffc9a7000000000000000000000000000000000000000000000000000000007bffffffffffffffffffffffffffffffffffffffffffffffffffffffff1916827bffffffffffffffffffffffffffffffffffffffffffffffffffffffff1916149050919050565b505050565b505050565b6060600060028360026130d39190614ab0565b6130dd9190614e6a565b67ffffffffffffffff8111156130f6576130f56143d1565b5b6040519080825280601f01601f1916602001820160405280156131285781602001600182028036833780820191505090505b5090507f3000000000000000000000000000000000000000000000000000000000000000816000815181106131605761315f6158d9565b5b60200101907effffffffffffffffffffffffffffffffffffffffffffffffffffffffffffff1916908160001a9053507f7800000000000000000000000000000000000000000000000000000000000000816001815181106131c4576131c36158d9565b5b60200101907effffffffffffffffffffffffffffffffffffffffffffffffffffffffffffff1916908160001a905350600060018460026132049190614ab0565b61320e9190614e6a565b90505b60018111156132ae577f3031323334353637383961626364656600000000000000000000000000000000600f8616601081106132505761324f6158d9565b5b1a60f81b828281518110613267576132666158d9565b5b60200101907effffffffffffffffffffffffffffffffffffffffffffffffffffffffffffff1916908160001a905350600485901c9450806132a790615908565b9050613211565b50600084146132f2576040517f08c379a00000000000000000000000000000000000000000000000000000000081526004016132e99061597e565b60405180910390fd5b8091505092915050565b600061331d8473ffffffffffffffffffffffffffffffffffffffff166138c1565b15613486578373ffffffffffffffffffffffffffffffffffffffff1663150b7a02613346612262565b8786866040518563ffffffff1660e01b815260040161336894939291906159f3565b602060405180830381600087803b15801561338257600080fd5b505af19250505080156133b357506040513d601f19601f820116820180604052508101906133b09190615a54565b60015b613436573d80600081146133e3576040519150601f19603f3d011682016040523d82523d6000602084013e6133e8565b606091505b5060008151141561342e576040517f08c379a000000000000000000000000000000000000000000000000000000000815260040161342590615715565b60405180910390fd5b805181602001fd5b63150b7a0260e01b7bffffffffffffffffffffffffffffffffffffffffffffffffffffffff1916817bffffffffffffffffffffffffffffffffffffffffffffffffffffffff19161491505061348b565b600190505b949350505050565b61349d83836138e4565b6134aa60008484846132fc565b6134e9576040517f08c379a00000000000000000000000000000000000000000000000000000000081526004016134e090615715565b60405180910390fd5b505050565b60606000821415613536576040518060400160405280600181526020017f3000000000000000000000000000000000000000000000000000000000000000815250905061364a565b600082905060005b6000821461356857808061355190615a81565b915050600a826135619190614b39565b915061353e565b60008167ffffffffffffffff811115613584576135836143d1565b5b6040519080825280601f01601f1916602001820160405280156135b65781602001600182028036833780820191505090505b5090505b60008514613643576001826135cf9190615531565b9150600a856135de9190615aca565b60306135ea9190614e6a565b60f81b818381518110613600576135ff6158d9565b5b60200101907effffffffffffffffffffffffffffffffffffffffffffffffffffffffffffff1916908160001a905350600a8561363c9190614b39565b94506135ba565b8093505050505b919050565b600061366261365c613abe565b83613bd8565b9050919050565b6000806041835114156136ab5760008060006020860151925060408601519150606086015160001a905061369f87828585613c0b565b945094505050506136e5565b6040835114156136dc5760008060208501519150604085015190506136d1868383613d18565b9350935050506136e5565b60006002915091505b9250929050565b60006004811115613700576136ff615afb565b5b81600481111561371357613712615afb565b5b141561371e576138be565b6001600481111561373257613731615afb565b5b81600481111561374557613744615afb565b5b1415613786576040517f08c379a000000000000000000000000000000000000000000000000000000000815260040161377d90615b76565b60405180910390fd5b6002600481111561379a57613799615afb565b5b8160048111156137ad576137ac615afb565b5b14156137ee576040517f08c379a00000000000000000000000000000000000000000000000000000000081526004016137e590615be2565b60405180910390fd5b6003600481111561380257613801615afb565b5b81600481111561381557613814615afb565b5b1415613856576040517f08c379a000000000000000000000000000000000000000000000000000000000815260040161384d90615c74565b60405180910390fd5b60048081111561386957613868615afb565b5b81600481111561387c5761387b615afb565b5b14156138bd576040517f08c379a00000000000000000000000000000000000000000000000000000000081526004016138b490615d06565b60405180910390fd5b5b50565b6000808273ffffffffffffffffffffffffffffffffffffffff163b119050919050565b600073ffffffffffffffffffffffffffffffffffffffff168273ffffffffffffffffffffffffffffffffffffffff161415613954576040517f08c379a000000000000000000000000000000000000000000000000000000000815260040161394b90615d72565b60405180910390fd5b61395d81612400565b1561399d576040517f08c379a000000000000000000000000000000000000000000000000000000000815260040161399490615dde565b60405180910390fd5b6139a9600083836130b6565b6001600360008473ffffffffffffffffffffffffffffffffffffffff1673ffffffffffffffffffffffffffffffffffffffff16815260200190815260200160002060008282546139f99190614e6a565b92505081905550816002600083815260200190815260200160002060006101000a81548173ffffffffffffffffffffffffffffffffffffffff021916908373ffffffffffffffffffffffffffffffffffffffff160217905550808273ffffffffffffffffffffffffffffffffffffffff16600073ffffffffffffffffffffffffffffffffffffffff167fddf252ad1be2c89b69c2b068fc378daa952ba7f163c4a11628f55a4df523b3ef60405160405180910390a4613aba600083836130bb565b5050565b60007f000000000000000000000000000000000000000000000000000000000000000073ffffffffffffffffffffffffffffffffffffffff163073ffffffffffffffffffffffffffffffffffffffff16148015613b3a57507f000000000000000000000000000000000000000000000000000000000000000046145b15613b67577f00000000000000000000000000000000000000000000000000000000000000009050613bd5565b613bd27f00000000000000000000000000000000000000000000000000000000000000007f00000000000000000000000000000000000000000000000000000000000000007f0000000000000000000000000000000000000000000000000000000000000000613d77565b90505b90565b60008282604051602001613bed929190615e6b565b60405160208183030381529060405280519060200120905092915050565b6000807f7fffffffffffffffffffffffffffffff5d576e7357a4501ddfe92f46681b20a08360001c1115613c46576000600391509150613d0f565b601b8560ff1614158015613c5e5750601c8560ff1614155b15613c70576000600491509150613d0f565b600060018787878760405160008152602001604052604051613c959493929190615ebe565b6020604051602081039080840390855afa158015613cb7573d6000803e3d6000fd5b505050602060405103519050600073ffffffffffffffffffffffffffffffffffffffff168173ffffffffffffffffffffffffffffffffffffffff161415613d0657600060019250925050613d0f565b80600092509250505b94509492505050565b60008060007f7fffffffffffffffffffffffffffffffffffffffffffffffffffffffffffffff60001b841690506000601b60ff8660001c901c613d5b9190614e6a565b9050613d6987828885613c0b565b935093505050935093915050565b60008383834630604051602001613d92959493929190615f03565b6040516020818303038152906040528051906020012090509392505050565b828054613dbd90614807565b90600052602060002090601f016020900481019282613ddf5760008555613e26565b82601f10613df857805160ff1916838001178555613e26565b82800160010185558215613e26579182015b82811115613e25578251825591602001919060010190613e0a565b5b509050613e339190613e37565b5090565b5b80821115613e50576000816000905550600101613e38565b5090565b6000604051905090565b600080fd5b600080fd5b60007fffffffff0000000000000000000000000000000000000000000000000000000082169050919050565b613e9d81613e68565b8114613ea857600080fd5b50565b600081359050613eba81613e94565b92915050565b600060208284031215613ed657613ed5613e5e565b5b6000613ee484828501613eab565b91505092915050565b60008115159050919050565b613f0281613eed565b82525050565b6000602082019050613f1d6000830184613ef9565b92915050565b600073ffffffffffffffffffffffffffffffffffffffff82169050919050565b6000613f4e82613f23565b9050919050565b613f5e81613f43565b8114613f6957600080fd5b50565b600081359050613f7b81613f55565b92915050565b600060208284031215613f9757613f96613e5e565b5b6000613fa584828501613f6c565b91505092915050565b600081519050919050565b600082825260208201905092915050565b60005b83811015613fe8578082015181840152602081019050613fcd565b83811115613ff7576000848401525b50505050565b6000601f19601f8301169050919050565b600061401982613fae565b6140238185613fb9565b9350614033818560208601613fca565b61403c81613ffd565b840191505092915050565b60006020820190508181036000830152614061818461400e565b905092915050565b6000819050919050565b61407c81614069565b811461408757600080fd5b50565b60008135905061409981614073565b92915050565b6000602082840312156140b5576140b4613e5e565b5b60006140c38482850161408a565b91505092915050565b6140d581613f43565b82525050565b60006020820190506140f060008301846140cc565b92915050565b6000806040838503121561410d5761410c613e5e565b5b600061411b85828601613f6c565b925050602061412c8582860161408a565b9150509250929050565b600080fd5b60006060828403121561415157614150614136565b5b81905092915050565b6000602082840312156141705761416f613e5e565b5b600082013567ffffffffffffffff81111561418e5761418d613e63565b5b61419a8482850161413b565b91505092915050565b6141ac81614069565b82525050565b60006020820190506141c760008301846141a3565b92915050565b6000806000606084860312156141e6576141e5613e5e565b5b60006141f486828701613f6c565b935050602061420586828701613f6c565b92505060406142168682870161408a565b9150509250925092565b6000819050919050565b61423381614220565b811461423e57600080fd5b50565b6000813590506142508161422a565b92915050565b60006020828403121561426c5761426b613e5e565b5b600061427a84828501614241565b91505092915050565b61428c81614220565b82525050565b60006020820190506142a76000830184614283565b92915050565b600080604083850312156142c4576142c3613e5e565b5b60006142d28582860161408a565b92505060206142e38582860161408a565b9150509250929050565b600060408201905061430260008301856140cc565b61430f60208301846141a3565b9392505050565b6000806040838503121561432d5761432c613e5e565b5b600061433b85828601614241565b925050602061434c85828601613f6c565b9150509250929050565b60006bffffffffffffffffffffffff82169050919050565b61437781614356565b811461438257600080fd5b50565b6000813590506143948161436e565b92915050565b6000602082840312156143b0576143af613e5e565b5b60006143be84828501614385565b91505092915050565b600080fd5b600080fd5b7f4e487b7100000000000000000000000000000000000000000000000000000000600052604160045260246000fd5b61440982613ffd565b810181811067ffffffffffffffff82111715614428576144276143d1565b5b80604052505050565b600061443b613e54565b90506144478282614400565b919050565b600067ffffffffffffffff821115614467576144666143d1565b5b61447082613ffd565b9050602081019050919050565b82818337600083830152505050565b600061449f61449a8461444c565b614431565b9050828152602081018484840111156144bb576144ba6143cc565b5b6144c684828561447d565b509392505050565b600082601f8301126144e3576144e26143c7565b5b81356144f384826020860161448c565b91505092915050565b60006020828403121561451257614511613e5e565b5b600082013567ffffffffffffffff8111156145305761452f613e63565b5b61453c848285016144ce565b91505092915050565b61454e81613eed565b811461455957600080fd5b50565b60008135905061456b81614545565b92915050565b6000806040838503121561458857614587613e5e565b5b600061459685828601613f6c565b92505060206145a78582860161455c565b9150509250929050565b6000602082840312156145c7576145c6613e5e565b5b60006145d58482850161455c565b91505092915050565b600067ffffffffffffffff8211156145f9576145f86143d1565b5b61460282613ffd565b9050602081019050919050565b600061462261461d846145de565b614431565b90508281526020810184848401111561463e5761463d6143cc565b5b61464984828561447d565b509392505050565b600082601f830112614666576146656143c7565b5b813561467684826020860161460f565b91505092915050565b6000806000806080858703121561469957614698613e5e565b5b60006146a787828801613f6c565b94505060206146b887828801613f6c565b93505060406146c98782880161408a565b925050606085013567ffffffffffffffff8111156146ea576146e9613e63565b5b6146f687828801614651565b91505092959194509250565b61470b81614356565b82525050565b60006020820190506147266000830184614702565b92915050565b6000806040838503121561474357614742613e5e565b5b600061475185828601613f6c565b925050602061476285828601613f6c565b9150509250929050565b7f4f776e61626c653a2063616c6c6572206973206e6f7420746865206f776e6572600082015250565b60006147a2602083613fb9565b91506147ad8261476c565b602082019050919050565b600060208201905081810360008301526147d181614795565b9050919050565b7f4e487b7100000000000000000000000000000000000000000000000000000000600052602260045260246000fd5b6000600282049050600182168061481f57607f821691505b60208210811415614833576148326147d8565b5b50919050565b7f4552433732313a20617070726f76656420717565727920666f72206e6f6e657860008201527f697374656e7420746f6b656e0000000000000000000000000000000000000000602082015250565b6000614895602c83613fb9565b91506148a082614839565b604082019050919050565b600060208201905081810360008301526148c481614888565b9050919050565b7f4552433732313a20617070726f76616c20746f2063757272656e74206f776e6560008201527f7200000000000000000000000000000000000000000000000000000000000000602082015250565b6000614927602183613fb9565b9150614932826148cb565b604082019050919050565b600060208201905081810360008301526149568161491a565b9050919050565b7f4552433732313a20617070726f76652063616c6c6572206973206e6f74206f7760008201527f6e6572206e6f7220617070726f76656420666f7220616c6c0000000000000000602082015250565b60006149b9603883613fb9565b91506149c48261495d565b604082019050919050565b600060208201905081810360008301526149e8816149ac565b9050919050565b7f4552433732313a207472616e736665722063616c6c6572206973206e6f74206f60008201527f776e6572206e6f7220617070726f766564000000000000000000000000000000602082015250565b6000614a4b603183613fb9565b9150614a56826149ef565b604082019050919050565b60006020820190508181036000830152614a7a81614a3e565b9050919050565b7f4e487b7100000000000000000000000000000000000000000000000000000000600052601160045260246000fd5b6000614abb82614069565b9150614ac683614069565b9250817fffffffffffffffffffffffffffffffffffffffffffffffffffffffffffffffff0483118215151615614aff57614afe614a81565b5b828202905092915050565b7f4e487b7100000000000000000000000000000000000000000000000000000000600052601260045260246000fd5b6000614b4482614069565b9150614b4f83614069565b925082614b5f57614b5e614b0a565b5b828204905092915050565b7f416363657373436f6e74726f6c3a2063616e206f6e6c792072656e6f756e636560008201527f20726f6c657320666f722073656c660000000000000000000000000000000000602082015250565b6000614bc6602f83613fb9565b9150614bd182614b6a565b604082019050919050565b60006020820190508181036000830152614bf581614bb9565b9050919050565b7f5661756c7420496e76616c696400000000000000000000000000000000000000600082015250565b6000614c32600d83613fb9565b9150614c3d82614bfc565b602082019050919050565b60006020820190508181036000830152614c6181614c25565b9050919050565b600080fd5b600080fd5b600080fd5b60008083356001602003843603038112614c9457614c93614c68565b5b80840192508235915067ffffffffffffffff821115614cb657614cb5614c6d565b5b602083019250600182023603831315614cd257614cd1614c72565b5b509250929050565b7f4552433732313a206f776e657220717565727920666f72206e6f6e657869737460008201527f656e7420746f6b656e0000000000000000000000000000000000000000000000602082015250565b6000614d36602983613fb9565b9150614d4182614cda565b604082019050919050565b60006020820190508181036000830152614d6581614d29565b9050919050565b7f4552433732313a2062616c616e636520717565727920666f7220746865207a6560008201527f726f206164647265737300000000000000000000000000000000000000000000602082015250565b6000614dc8602a83613fb9565b9150614dd382614d6c565b604082019050919050565b60006020820190508181036000830152614df781614dbb565b9050919050565b7f53616c65206d7573742062652061637469766520746f206d696e740000000000600082015250565b6000614e34601b83613fb9565b9150614e3f82614dfe565b602082019050919050565b60006020820190508181036000830152614e6381614e27565b9050919050565b6000614e7582614069565b9150614e8083614069565b9250827fffffffffffffffffffffffffffffffffffffffffffffffffffffffffffffffff03821115614eb557614eb4614a81565b5b828201905092915050565b7f52656163686564206d617820737570706c792e00000000000000000000000000600082015250565b6000614ef6601383613fb9565b9150614f0182614ec0565b602082019050919050565b60006020820190508181036000830152614f2581614ee9565b9050919050565b7f5468652063616c6c657220697320616e6f7468657220636f6e74726163742e00600082015250565b6000614f62601f83613fb9565b9150614f6d82614f2c565b602082019050919050565b60006020820190508181036000830152614f9181614f55565b9050919050565b7f4e65656420746f2073656e64206d6f7265204554482e00000000000000000000600082015250565b6000614fce601683613fb9565b9150614fd982614f98565b602082019050919050565b60006020820190508181036000830152614ffd81614fc1565b9050919050565b7f5369676e617475726520696e76616c6964206f7220756e617574686f72697a6560008201527f6400000000000000000000000000000000000000000000000000000000000000602082015250565b6000615060602183613fb9565b915061506b82615004565b604082019050919050565b6000602082019050818103600083015261508f81615053565b9050919050565b7f45524337323155524953746f726167653a2055524920717565727920666f722060008201527f6e6f6e6578697374656e7420746f6b656e000000000000000000000000000000602082015250565b60006150f2603183613fb9565b91506150fd82615096565b604082019050919050565b60006020820190508181036000830152615121816150e5565b9050919050565b600081905092915050565b600061513e82613fae565b6151488185615128565b9350615158818560208601613fca565b80840191505092915050565b60006151708285615133565b915061517c8284615133565b91508190509392505050565b7f4f776e61626c653a206e6577206f776e657220697320746865207a65726f206160008201527f6464726573730000000000000000000000000000000000000000000000000000602082015250565b60006151e4602683613fb9565b91506151ef82615188565b604082019050919050565b60006020820190508181036000830152615213816151d7565b9050919050565b6000808335600160200384360303811261523757615236614c68565b5b80840192508235915067ffffffffffffffff82111561525957615258614c6d565b5b60208301925060018202360383131561527557615274614c72565b5b509250929050565b7f455243323938313a20726f79616c7479206665652077696c6c2065786365656460008201527f2073616c65507269636500000000000000000000000000000000000000000000602082015250565b60006152d9602a83613fb9565b91506152e48261527d565b604082019050919050565b60006020820190508181036000830152615308816152cc565b9050919050565b7f455243323938313a20696e76616c696420726563656976657200000000000000600082015250565b6000615345601983613fb9565b91506153508261530f565b602082019050919050565b6000602082019050818103600083015261537481615338565b9050919050565b7f4552433732313a206f70657261746f7220717565727920666f72206e6f6e657860008201527f697374656e7420746f6b656e0000000000000000000000000000000000000000602082015250565b60006153d7602c83613fb9565b91506153e28261537b565b604082019050919050565b60006020820190508181036000830152615406816153ca565b9050919050565b7f4552433732313a207472616e736665722066726f6d20696e636f72726563742060008201527f6f776e6572000000000000000000000000000000000000000000000000000000602082015250565b6000615469602583613fb9565b91506154748261540d565b604082019050919050565b600060208201905081810360008301526154988161545c565b9050919050565b7f4552433732313a207472616e7366657220746f20746865207a65726f2061646460008201527f7265737300000000000000000000000000000000000000000000000000000000602082015250565b60006154fb602483613fb9565b91506155068261549f565b604082019050919050565b6000602082019050818103600083015261552a816154ee565b9050919050565b600061553c82614069565b915061554783614069565b92508282101561555a57615559614a81565b5b828203905092915050565b7f416363657373436f6e74726f6c3a206163636f756e7420000000000000000000600082015250565b600061559b601783615128565b91506155a682615565565b601782019050919050565b7f206973206d697373696e6720726f6c6520000000000000000000000000000000600082015250565b60006155e7601183615128565b91506155f2826155b1565b601182019050919050565b60006156088261558e565b91506156148285615133565b915061561f826155da565b915061562b8284615133565b91508190509392505050565b7f4552433732313a20617070726f766520746f2063616c6c657200000000000000600082015250565b600061566d601983613fb9565b915061567882615637565b602082019050919050565b6000602082019050818103600083015261569c81615660565b9050919050565b7f4552433732313a207472616e7366657220746f206e6f6e20455243373231526560008201527f63656976657220696d706c656d656e7465720000000000000000000000000000602082015250565b60006156ff603283613fb9565b915061570a826156a3565b604082019050919050565b6000602082019050818103600083015261572e816156f2565b9050919050565b7f45524337323155524953746f726167653a2055524920736574206f66206e6f6e60008201527f6578697374656e7420746f6b656e000000000000000000000000000000000000602082015250565b6000615791602e83613fb9565b915061579c82615735565b604082019050919050565b600060208201905081810360008301526157c081615784565b9050919050565b7f4552433732314d657461646174613a2055524920717565727920666f72206e6f60008201527f6e6578697374656e7420746f6b656e0000000000000000000000000000000000602082015250565b6000615823602f83613fb9565b915061582e826157c7565b604082019050919050565b6000602082019050818103600083015261585281615816565b9050919050565b600081905092915050565b60006158708385615859565b935061587d83858461447d565b82840190509392505050565b6000615896828486615864565b91508190509392505050565b60006060820190506158b76000830186614283565b6158c460208301856141a3565b6158d16040830184614283565b949350505050565b7f4e487b7100000000000000000000000000000000000000000000000000000000600052603260045260246000fd5b600061591382614069565b9150600082141561592757615926614a81565b5b600182039050919050565b7f537472696e67733a20686578206c656e67746820696e73756666696369656e74600082015250565b6000615968602083613fb9565b915061597382615932565b602082019050919050565b600060208201905081810360008301526159978161595b565b9050919050565b600081519050919050565b600082825260208201905092915050565b60006159c58261599e565b6159cf81856159a9565b93506159df818560208601613fca565b6159e881613ffd565b840191505092915050565b6000608082019050615a0860008301876140cc565b615a1560208301866140cc565b615a2260408301856141a3565b8181036060830152615a3481846159ba565b905095945050505050565b600081519050615a4e81613e94565b92915050565b600060208284031215615a6a57615a69613e5e565b5b6000615a7884828501615a3f565b91505092915050565b6000615a8c82614069565b91507fffffffffffffffffffffffffffffffffffffffffffffffffffffffffffffffff821415615abf57615abe614a81565b5b600182019050919050565b6000615ad582614069565b9150615ae083614069565b925082615af057615aef614b0a565b5b828206905092915050565b7f4e487b7100000000000000000000000000000000000000000000000000000000600052602160045260246000fd5b7f45434453413a20696e76616c6964207369676e61747572650000000000000000600082015250565b6000615b60601883613fb9565b9150615b6b82615b2a565b602082019050919050565b60006020820190508181036000830152615b8f81615b53565b9050919050565b7f45434453413a20696e76616c6964207369676e6174757265206c656e67746800600082015250565b6000615bcc601f83613fb9565b9150615bd782615b96565b602082019050919050565b60006020820190508181036000830152615bfb81615bbf565b9050919050565b7f45434453413a20696e76616c6964207369676e6174757265202773272076616c60008201527f7565000000000000000000000000000000000000000000000000000000000000602082015250565b6000615c5e602283613fb9565b9150615c6982615c02565b604082019050919050565b60006020820190508181036000830152615c8d81615c51565b9050919050565b7f45434453413a20696e76616c6964207369676e6174757265202776272076616c60008201527f7565000000000000000000000000000000000000000000000000000000000000602082015250565b6000615cf0602283613fb9565b9150615cfb82615c94565b604082019050919050565b60006020820190508181036000830152615d1f81615ce3565b9050919050565b7f4552433732313a206d696e7420746f20746865207a65726f2061646472657373600082015250565b6000615d5c602083613fb9565b9150615d6782615d26565b602082019050919050565b60006020820190508181036000830152615d8b81615d4f565b9050919050565b7f4552433732313a20746f6b656e20616c7265616479206d696e74656400000000600082015250565b6000615dc8601c83613fb9565b9150615dd382615d92565b602082019050919050565b60006020820190508181036000830152615df781615dbb565b9050919050565b7f1901000000000000000000000000000000000000000000000000000000000000600082015250565b6000615e34600283615128565b9150615e3f82615dfe565b600282019050919050565b6000819050919050565b615e65615e6082614220565b615e4a565b82525050565b6000615e7682615e27565b9150615e828285615e54565b602082019150615e928284615e54565b6020820191508190509392505050565b600060ff82169050919050565b615eb881615ea2565b82525050565b6000608082019050615ed36000830187614283565b615ee06020830186615eaf565b615eed6040830185614283565b615efa6060830184614283565b95945050505050565b600060a082019050615f186000830188614283565b615f256020830187614283565b615f326040830186614283565b615f3f60608301856141a3565b615f4c60808301846140cc565b969550505050505056fea26469706673582212209fddab8503d0883a170b77a21cf91e66172e099503506f9c001a69271ddf7e0064736f6c63430008090033",
  "linkReferences": {},
  "deployedLinkReferences": {}
}