{
  "_format": "hh-sol-artifact-1",
  "contractName": "UniqueSample",
  "sourceName": "contracts/UniqueSample.sol",
  "abi": [
    {
      "inputs": [],
      "stateMutability": "nonpayable",
      "type": "constructor"
    },
    {
      "anonymous": false,
      "inputs": [
        {
          "indexed": true,
          "internalType": "address",
          "name": "owner",
          "type": "address"
        },
        {
          "indexed": true,
          "internalType": "address",
          "name": "approved",
          "type": "address"
        },
        {
          "indexed": true,
          "internalType": "uint256",
          "name": "tokenId",
          "type": "uint256"
        }
      ],
      "name": "Approval",
      "type": "event"
    },
    {
      "anonymous": false,
      "inputs": [
        {
          "indexed": true,
          "internalType": "address",
          "name": "owner",
          "type": "address"
        },
        {
          "indexed": true,
          "internalType": "address",
          "name": "operator",
          "type": "address"
        },
        {
          "indexed": false,
          "internalType": "bool",
          "name": "approved",
          "type": "bool"
        }
      ],
      "name": "ApprovalForAll",
      "type": "event"
    },
    {
      "anonymous": false,
      "inputs": [
        {
          "indexed": true,
          "internalType": "address",
          "name": "from",
          "type": "address"
        },
        {
          "indexed": true,
          "internalType": "address",
          "name": "to",
          "type": "address"
        },
        {
          "indexed": true,
          "internalType": "uint256",
          "name": "tokenId",
          "type": "uint256"
        }
      ],
      "name": "Transfer",
      "type": "event"
    },
    {
      "inputs": [
        {
          "internalType": "address",
          "name": "to",
          "type": "address"
        },
        {
          "internalType": "uint256",
          "name": "tokenId",
          "type": "uint256"
        }
      ],
      "name": "approve",
      "outputs": [],
      "stateMutability": "nonpayable",
      "type": "function"
    },
    {
      "inputs": [
        {
          "internalType": "address",
          "name": "owner",
          "type": "address"
        }
      ],
      "name": "balanceOf",
      "outputs": [
        {
          "internalType": "uint256",
          "name": "",
          "type": "uint256"
        }
      ],
      "stateMutability": "view",
      "type": "function"
    },
    {
      "inputs": [
        {
          "internalType": "uint256",
          "name": "tokenId",
          "type": "uint256"
        }
      ],
      "name": "getApproved",
      "outputs": [
        {
          "internalType": "address",
          "name": "",
          "type": "address"
        }
      ],
      "stateMutability": "view",
      "type": "function"
    },
    {
      "inputs": [
        {
          "internalType": "address",
          "name": "owner",
          "type": "address"
        },
        {
          "internalType": "address",
          "name": "operator",
          "type": "address"
        }
      ],
      "name": "isApprovedForAll",
      "outputs": [
        {
          "internalType": "bool",
          "name": "",
          "type": "bool"
        }
      ],
      "stateMutability": "view",
      "type": "function"
    },
    {
      "inputs": [
        {
          "internalType": "string",
          "name": "tokenURI",
          "type": "string"
        }
      ],
      "name": "mint",
      "outputs": [
        {
          "internalType": "uint256",
          "name": "",
          "type": "uint256"
        }
      ],
      "stateMutability": "nonpayable",
      "type": "function"
    },
    {
      "inputs": [
        {
          "internalType": "address",
          "name": "delegator",
          "type": "address"
        },
        {
          "internalType": "string",
          "name": "tokenURI",
          "type": "string"
        }
      ],
      "name": "mintWithEvent",
      "outputs": [
        {
          "internalType": "uint256",
          "name": "",
          "type": "uint256"
        }
      ],
      "stateMutability": "nonpayable",
      "type": "function"
    },
    {
      "inputs": [
        {
          "internalType": "address",
          "name": "delegator",
          "type": "address"
        },
        {
          "internalType": "string",
          "name": "tokenURI",
          "type": "string"
        }
      ],
      "name": "mintWithTransfer",
      "outputs": [
        {
          "internalType": "uint256",
          "name": "",
          "type": "uint256"
        }
      ],
      "stateMutability": "nonpayable",
      "type": "function"
    },
    {
      "inputs": [],
      "name": "name",
      "outputs": [
        {
          "internalType": "string",
          "name": "",
          "type": "string"
        }
      ],
      "stateMutability": "view",
      "type": "function"
    },
    {
      "inputs": [
        {
          "internalType": "uint256",
          "name": "tokenId",
          "type": "uint256"
        }
      ],
      "name": "ownerOf",
      "outputs": [
        {
          "internalType": "address",
          "name": "",
          "type": "address"
        }
      ],
      "stateMutability": "view",
      "type": "function"
    },
    {
      "inputs": [
        {
          "components": [
            {
              "internalType": "uint256",
              "name": "tokenId",
              "type": "uint256"
            },
            {
              "internalType": "bytes",
              "name": "signature",
              "type": "bytes"
            }
          ],
          "internalType": "struct UniqueSample.NFTVoucher",
          "name": "voucher",
          "type": "tuple"
        },
        {
          "internalType": "string",
          "name": "tokenURI",
          "type": "string"
        }
      ],
      "name": "redeem",
      "outputs": [
        {
          "internalType": "uint256",
          "name": "",
          "type": "uint256"
        }
      ],
      "stateMutability": "nonpayable",
      "type": "function"
    },
    {
      "inputs": [
        {
          "internalType": "address",
          "name": "from",
          "type": "address"
        },
        {
          "internalType": "address",
          "name": "to",
          "type": "address"
        },
        {
          "internalType": "uint256",
          "name": "tokenId",
          "type": "uint256"
        }
      ],
      "name": "safeTransferFrom",
      "outputs": [],
      "stateMutability": "nonpayable",
      "type": "function"
    },
    {
      "inputs": [
        {
          "internalType": "address",
          "name": "from",
          "type": "address"
        },
        {
          "internalType": "address",
          "name": "to",
          "type": "address"
        },
        {
          "internalType": "uint256",
          "name": "tokenId",
          "type": "uint256"
        },
        {
          "internalType": "bytes",
          "name": "_data",
          "type": "bytes"
        }
      ],
      "name": "safeTransferFrom",
      "outputs": [],
      "stateMutability": "nonpayable",
      "type": "function"
    },
    {
      "inputs": [
        {
          "internalType": "address",
          "name": "operator",
          "type": "address"
        },
        {
          "internalType": "bool",
          "name": "approved",
          "type": "bool"
        }
      ],
      "name": "setApprovalForAll",
      "outputs": [],
      "stateMutability": "nonpayable",
      "type": "function"
    },
    {
      "inputs": [
        {
          "internalType": "bytes4",
          "name": "interfaceId",
          "type": "bytes4"
        }
      ],
      "name": "supportsInterface",
      "outputs": [
        {
          "internalType": "bool",
          "name": "",
          "type": "bool"
        }
      ],
      "stateMutability": "view",
      "type": "function"
    },
    {
      "inputs": [],
      "name": "symbol",
      "outputs": [
        {
          "internalType": "string",
          "name": "",
          "type": "string"
        }
      ],
      "stateMutability": "view",
      "type": "function"
    },
    {
      "inputs": [
        {
          "internalType": "uint256",
          "name": "tokenId",
          "type": "uint256"
        }
      ],
      "name": "tokenURI",
      "outputs": [
        {
          "internalType": "string",
          "name": "",
          "type": "string"
        }
      ],
      "stateMutability": "view",
      "type": "function"
    },
    {
      "inputs": [
        {
          "internalType": "address",
          "name": "from",
          "type": "address"
        },
        {
          "internalType": "address",
          "name": "to",
          "type": "address"
        },
        {
          "internalType": "uint256",
          "name": "tokenId",
          "type": "uint256"
        }
      ],
      "name": "transferFrom",
      "outputs": [],
      "stateMutability": "nonpayable",
      "type": "function"
    }
  ],
  "bytecode": "0x6101406040523480156200001257600080fd5b506040518060400160405280600d81526020017f556e697175652053616d706c65000000000000000000000000000000000000008152506040518060400160405280600181526020017f31000000000000000000000000000000000000000000000000000000000000008152506040518060400160405280600d81526020017f556e697175652053616d706c65000000000000000000000000000000000000008152506040518060400160405280600281526020017f555300000000000000000000000000000000000000000000000000000000000081525081600090805190602001906200010392919062000213565b5080600190805190602001906200011c92919062000213565b50505060008280519060200120905060008280519060200120905060007f8b73c3c69bb8fe3d512ecc4cf759cc79239f7b179b0ffacaa9a75d522b39400f90508260e081815250508161010081815250504660a0818152505062000188818484620001d760201b60201c565b608081815250503073ffffffffffffffffffffffffffffffffffffffff1660c08173ffffffffffffffffffffffffffffffffffffffff1681525050806101208181525050505050505062000400565b60008383834630604051602001620001f49594939291906200033e565b6040516020818303038152906040528051906020012090509392505050565b8280546200022190620003ca565b90600052602060002090601f01602090048101928262000245576000855562000291565b82601f106200026057805160ff191683800117855562000291565b8280016001018555821562000291579182015b828111156200029057825182559160200191906001019062000273565b5b509050620002a09190620002a4565b5090565b5b80821115620002bf576000816000905550600101620002a5565b5090565b6000819050919050565b620002d881620002c3565b82525050565b6000819050919050565b620002f381620002de565b82525050565b600073ffffffffffffffffffffffffffffffffffffffff82169050919050565b60006200032682620002f9565b9050919050565b620003388162000319565b82525050565b600060a082019050620003556000830188620002cd565b620003646020830187620002cd565b620003736040830186620002cd565b620003826060830185620002e8565b6200039160808301846200032d565b9695505050505050565b7f4e487b7100000000000000000000000000000000000000000000000000000000600052602260045260246000fd5b60006002820490506001821680620003e357607f821691505b60208210811415620003fa57620003f96200039b565b5b50919050565b60805160a05160c05160e051610100516101205161398f620004506000396000611e8101526000611ec301526000611ea201526000611dd701526000611e2d01526000611e56015261398f6000f3fe608060405234801561001057600080fd5b506004361061010b5760003560e01c806395d89b41116100a2578063b88d4fde11610071578063b88d4fde146102dc578063c87b56dd146102f8578063c95cacfa14610328578063d85d3d2714610358578063e985e9c5146103885761010b565b806395d89b4114610242578063a22cb46514610260578063ac47d4901461027c578063b6ffdbd1146102ac5761010b565b806323b872dd116100de57806323b872dd146101aa57806342842e0e146101c65780636352211e146101e257806370a08231146102125761010b565b806301ffc9a71461011057806306fdde0314610140578063081812fc1461015e578063095ea7b31461018e575b600080fd5b61012a600480360381019061012591906121d5565b6103b8565b604051610137919061221d565b60405180910390f35b61014861049a565b60405161015591906122d1565b60405180910390f35b61017860048036038101906101739190612329565b61052c565b6040516101859190612397565b60405180910390f35b6101a860048036038101906101a391906123de565b6105b1565b005b6101c460048036038101906101bf919061241e565b6106c9565b005b6101e060048036038101906101db919061241e565b610729565b005b6101fc60048036038101906101f79190612329565b610749565b6040516102099190612397565b60405180910390f35b61022c60048036038101906102279190612471565b6107fb565b60405161023991906124ad565b60405180910390f35b61024a6108b3565b60405161025791906122d1565b60405180910390f35b61027a600480360381019061027591906124f4565b610945565b005b6102966004803603810190610291919061268d565b61095b565b6040516102a391906124ad565b60405180910390f35b6102c660048036038101906102c19190612705565b6109a2565b6040516102d391906124ad565b60405180910390f35b6102f660048036038101906102f19190612802565b610a35565b005b610312600480360381019061030d9190612329565b610a97565b60405161031f91906122d1565b60405180910390f35b610342600480360381019061033d9190612705565b610be9565b60405161034f91906124ad565b60405180910390f35b610372600480360381019061036d9190612885565b610c2c565b60405161037f91906124ad565b60405180910390f35b6103a2600480360381019061039d91906128ce565b610c63565b6040516103af919061221d565b60405180910390f35b60007f80ac58cd000000000000000000000000000000000000000000000000000000007bffffffffffffffffffffffffffffffffffffffffffffffffffffffff1916827bffffffffffffffffffffffffffffffffffffffffffffffffffffffff1916148061048357507f5b5e139f000000000000000000000000000000000000000000000000000000007bffffffffffffffffffffffffffffffffffffffffffffffffffffffff1916827bffffffffffffffffffffffffffffffffffffffffffffffffffffffff1916145b80610493575061049282610cf7565b5b9050919050565b6060600080546104a99061293d565b80601f01602080910402602001604051908101604052809291908181526020018280546104d59061293d565b80156105225780601f106104f757610100808354040283529160200191610522565b820191906000526020600020905b81548152906001019060200180831161050557829003601f168201915b5050505050905090565b600061053782610d61565b610576576040517f08c379a000000000000000000000000000000000000000000000000000000000815260040161056d906129e1565b60405180910390fd5b6004600083815260200190815260200160002060009054906101000a900473ffffffffffffffffffffffffffffffffffffffff169050919050565b60006105bc82610749565b90508073ffffffffffffffffffffffffffffffffffffffff168373ffffffffffffffffffffffffffffffffffffffff16141561062d576040517f08c379a000000000000000000000000000000000000000000000000000000000815260040161062490612a73565b60405180910390fd5b8073ffffffffffffffffffffffffffffffffffffffff1661064c610dcd565b73ffffffffffffffffffffffffffffffffffffffff16148061067b575061067a81610675610dcd565b610c63565b5b6106ba576040517f08c379a00000000000000000000000000000000000000000000000000000000081526004016106b190612b05565b60405180910390fd5b6106c48383610dd5565b505050565b6106da6106d4610dcd565b82610e8e565b610719576040517f08c379a000000000000000000000000000000000000000000000000000000000815260040161071090612b97565b60405180910390fd5b610724838383610f6c565b505050565b61074483838360405180602001604052806000815250610a35565b505050565b6000806002600084815260200190815260200160002060009054906101000a900473ffffffffffffffffffffffffffffffffffffffff169050600073ffffffffffffffffffffffffffffffffffffffff168173ffffffffffffffffffffffffffffffffffffffff1614156107f2576040517f08c379a00000000000000000000000000000000000000000000000000000000081526004016107e990612c29565b60405180910390fd5b80915050919050565b60008073ffffffffffffffffffffffffffffffffffffffff168273ffffffffffffffffffffffffffffffffffffffff16141561086c576040517f08c379a000000000000000000000000000000000000000000000000000000000815260040161086390612cbb565b60405180910390fd5b600360008373ffffffffffffffffffffffffffffffffffffffff1673ffffffffffffffffffffffffffffffffffffffff168152602001908152602001600020549050919050565b6060600180546108c29061293d565b80601f01602080910402602001604051908101604052809291908181526020018280546108ee9061293d565b801561093b5780601f106109105761010080835404028352916020019161093b565b820191906000526020600020905b81548152906001019060200180831161091e57829003601f168201915b5050505050905090565b610957610950610dcd565b83836111d3565b5050565b60008061096784611340565b90506109773385600001356113b2565b6109858460000135846113d0565b61099433828660000135610f6c565b836000013591505092915050565b60006109ae6007611444565b60006109ba600761145a565b90506109c633826113b2565b6109d081846113d0565b808473ffffffffffffffffffffffffffffffffffffffff163373ffffffffffffffffffffffffffffffffffffffff167fddf252ad1be2c89b69c2b068fc378daa952ba7f163c4a11628f55a4df523b3ef60405160405180910390a48091505092915050565b610a46610a40610dcd565b83610e8e565b610a85576040517f08c379a0000000000000000000000000000000000000000000000000000000008152600401610a7c90612b97565b60405180910390fd5b610a9184848484611468565b50505050565b6060610aa282610d61565b610ae1576040517f08c379a0000000000000000000000000000000000000000000000000000000008152600401610ad890612d4d565b60405180910390fd5b6000600660008481526020019081526020016000208054610b019061293d565b80601f0160208091040260200160405190810160405280929190818152602001828054610b2d9061293d565b8015610b7a5780601f10610b4f57610100808354040283529160200191610b7a565b820191906000526020600020905b815481529060010190602001808311610b5d57829003601f168201915b505050505090506000610b8b6114c4565b9050600081511415610ba1578192505050610be4565b600082511115610bd6578082604051602001610bbe929190612da9565b60405160208183030381529060405292505050610be4565b610bdf846114db565b925050505b919050565b6000610bf56007611444565b6000610c01600761145a565b9050610c0d33826113b2565b610c1781846113d0565b610c22338583610f6c565b8091505092915050565b6000610c386007611444565b6000610c44600761145a565b9050610c5033826113b2565b610c5a81846113d0565b80915050919050565b6000600560008473ffffffffffffffffffffffffffffffffffffffff1673ffffffffffffffffffffffffffffffffffffffff16815260200190815260200160002060008373ffffffffffffffffffffffffffffffffffffffff1673ffffffffffffffffffffffffffffffffffffffff16815260200190815260200160002060009054906101000a900460ff16905092915050565b60007f01ffc9a7000000000000000000000000000000000000000000000000000000007bffffffffffffffffffffffffffffffffffffffffffffffffffffffff1916827bffffffffffffffffffffffffffffffffffffffffffffffffffffffff1916149050919050565b60008073ffffffffffffffffffffffffffffffffffffffff166002600084815260200190815260200160002060009054906101000a900473ffffffffffffffffffffffffffffffffffffffff1673ffffffffffffffffffffffffffffffffffffffff1614159050919050565b600033905090565b816004600083815260200190815260200160002060006101000a81548173ffffffffffffffffffffffffffffffffffffffff021916908373ffffffffffffffffffffffffffffffffffffffff160217905550808273ffffffffffffffffffffffffffffffffffffffff16610e4883610749565b73ffffffffffffffffffffffffffffffffffffffff167f8c5be1e5ebec7d5bd14f71427d1e84f3dd0314c0f7b2291e5b200ac8c7c3b92560405160405180910390a45050565b6000610e9982610d61565b610ed8576040517f08c379a0000000000000000000000000000000000000000000000000000000008152600401610ecf90612e3f565b60405180910390fd5b6000610ee383610749565b90508073ffffffffffffffffffffffffffffffffffffffff168473ffffffffffffffffffffffffffffffffffffffff161480610f5257508373ffffffffffffffffffffffffffffffffffffffff16610f3a8461052c565b73ffffffffffffffffffffffffffffffffffffffff16145b80610f635750610f628185610c63565b5b91505092915050565b8273ffffffffffffffffffffffffffffffffffffffff16610f8c82610749565b73ffffffffffffffffffffffffffffffffffffffff1614610fe2576040517f08c379a0000000000000000000000000000000000000000000000000000000008152600401610fd990612ed1565b60405180910390fd5b600073ffffffffffffffffffffffffffffffffffffffff168273ffffffffffffffffffffffffffffffffffffffff161415611052576040517f08c379a000000000000000000000000000000000000000000000000000000000815260040161104990612f63565b60405180910390fd5b61105d838383611582565b611068600082610dd5565b6001600360008573ffffffffffffffffffffffffffffffffffffffff1673ffffffffffffffffffffffffffffffffffffffff16815260200190815260200160002060008282546110b89190612fb2565b925050819055506001600360008473ffffffffffffffffffffffffffffffffffffffff1673ffffffffffffffffffffffffffffffffffffffff168152602001908152602001600020600082825461110f9190612fe6565b92505081905550816002600083815260200190815260200160002060006101000a81548173ffffffffffffffffffffffffffffffffffffffff021916908373ffffffffffffffffffffffffffffffffffffffff160217905550808273ffffffffffffffffffffffffffffffffffffffff168473ffffffffffffffffffffffffffffffffffffffff167fddf252ad1be2c89b69c2b068fc378daa952ba7f163c4a11628f55a4df523b3ef60405160405180910390a46111ce838383611587565b505050565b8173ffffffffffffffffffffffffffffffffffffffff168373ffffffffffffffffffffffffffffffffffffffff161415611242576040517f08c379a000000000000000000000000000000000000000000000000000000000815260040161123990613088565b60405180910390fd5b80600560008573ffffffffffffffffffffffffffffffffffffffff1673ffffffffffffffffffffffffffffffffffffffff16815260200190815260200160002060008473ffffffffffffffffffffffffffffffffffffffff1673ffffffffffffffffffffffffffffffffffffffff16815260200190815260200160002060006101000a81548160ff0219169083151502179055508173ffffffffffffffffffffffffffffffffffffffff168373ffffffffffffffffffffffffffffffffffffffff167f17307eab39ab6107e8899845ad3d59bd9653f200f220920489ca2b5937696c3183604051611333919061221d565b60405180910390a3505050565b60008061134c8361158c565b90506113aa8184806020019061136291906130b7565b8080601f016020809104026020016040519081016040528093929190818152602001838380828437600081840152601f19601f820116905080830192505050505050506115ea565b915050919050565b6113cc828260405180602001604052806000815250611611565b5050565b6113d982610d61565b611418576040517f08c379a000000000000000000000000000000000000000000000000000000000815260040161140f9061318c565b60405180910390fd5b8060066000848152602001908152602001600020908051906020019061143f9291906120c6565b505050565b6001816000016000828254019250508190555050565b600081600001549050919050565b611473848484610f6c565b61147f8484848461166c565b6114be576040517f08c379a00000000000000000000000000000000000000000000000000000000081526004016114b59061321e565b60405180910390fd5b50505050565b606060405180602001604052806000815250905090565b60606114e682610d61565b611525576040517f08c379a000000000000000000000000000000000000000000000000000000000815260040161151c906132b0565b60405180910390fd5b600061152f6114c4565b9050600081511161154f576040518060200160405280600081525061157a565b8061155984611803565b60405160200161156a929190612da9565b6040516020818303038152906040525b915050919050565b505050565b505050565b60006115e37faa5ac5e8b3947cfdfb46b0ea715a97161b414b7217ba36b5c047c5968b20b0bd83600001356040516020016115c89291906132e9565b60405160208183030381529060405280519060200120611964565b9050919050565b60008060006115f9858561197e565b9150915061160681611a01565b819250505092915050565b61161b8383611bd6565b611628600084848461166c565b611667576040517f08c379a000000000000000000000000000000000000000000000000000000000815260040161165e9061321e565b60405180910390fd5b505050565b600061168d8473ffffffffffffffffffffffffffffffffffffffff16611db0565b156117f6578373ffffffffffffffffffffffffffffffffffffffff1663150b7a026116b6610dcd565b8786866040518563ffffffff1660e01b81526004016116d89493929190613367565b602060405180830381600087803b1580156116f257600080fd5b505af192505050801561172357506040513d601f19601f8201168201806040525081019061172091906133c8565b60015b6117a6573d8060008114611753576040519150601f19603f3d011682016040523d82523d6000602084013e611758565b606091505b5060008151141561179e576040517f08c379a00000000000000000000000000000000000000000000000000000000081526004016117959061321e565b60405180910390fd5b805181602001fd5b63150b7a0260e01b7bffffffffffffffffffffffffffffffffffffffffffffffffffffffff1916817bffffffffffffffffffffffffffffffffffffffffffffffffffffffff1916149150506117fb565b600190505b949350505050565b6060600082141561184b576040518060400160405280600181526020017f3000000000000000000000000000000000000000000000000000000000000000815250905061195f565b600082905060005b6000821461187d578080611866906133f5565b915050600a82611876919061346d565b9150611853565b60008167ffffffffffffffff81111561189957611898612562565b5b6040519080825280601f01601f1916602001820160405280156118cb5781602001600182028036833780820191505090505b5090505b60008514611958576001826118e49190612fb2565b9150600a856118f3919061349e565b60306118ff9190612fe6565b60f81b818381518110611915576119146134cf565b5b60200101907effffffffffffffffffffffffffffffffffffffffffffffffffffffffffffff1916908160001a905350600a85611951919061346d565b94506118cf565b8093505050505b919050565b6000611977611971611dd3565b83611eed565b9050919050565b6000806041835114156119c05760008060006020860151925060408601519150606086015160001a90506119b487828585611f20565b945094505050506119fa565b6040835114156119f15760008060208501519150604085015190506119e686838361202d565b9350935050506119fa565b60006002915091505b9250929050565b60006004811115611a1557611a146134fe565b5b816004811115611a2857611a276134fe565b5b1415611a3357611bd3565b60016004811115611a4757611a466134fe565b5b816004811115611a5a57611a596134fe565b5b1415611a9b576040517f08c379a0000000000000000000000000000000000000000000000000000000008152600401611a9290613579565b60405180910390fd5b60026004811115611aaf57611aae6134fe565b5b816004811115611ac257611ac16134fe565b5b1415611b03576040517f08c379a0000000000000000000000000000000000000000000000000000000008152600401611afa906135e5565b60405180910390fd5b60036004811115611b1757611b166134fe565b5b816004811115611b2a57611b296134fe565b5b1415611b6b576040517f08c379a0000000000000000000000000000000000000000000000000000000008152600401611b6290613677565b60405180910390fd5b600480811115611b7e57611b7d6134fe565b5b816004811115611b9157611b906134fe565b5b1415611bd2576040517f08c379a0000000000000000000000000000000000000000000000000000000008152600401611bc990613709565b60405180910390fd5b5b50565b600073ffffffffffffffffffffffffffffffffffffffff168273ffffffffffffffffffffffffffffffffffffffff161415611c46576040517f08c379a0000000000000000000000000000000000000000000000000000000008152600401611c3d90613775565b60405180910390fd5b611c4f81610d61565b15611c8f576040517f08c379a0000000000000000000000000000000000000000000000000000000008152600401611c86906137e1565b60405180910390fd5b611c9b60008383611582565b6001600360008473ffffffffffffffffffffffffffffffffffffffff1673ffffffffffffffffffffffffffffffffffffffff1681526020019081526020016000206000828254611ceb9190612fe6565b92505081905550816002600083815260200190815260200160002060006101000a81548173ffffffffffffffffffffffffffffffffffffffff021916908373ffffffffffffffffffffffffffffffffffffffff160217905550808273ffffffffffffffffffffffffffffffffffffffff16600073ffffffffffffffffffffffffffffffffffffffff167fddf252ad1be2c89b69c2b068fc378daa952ba7f163c4a11628f55a4df523b3ef60405160405180910390a4611dac60008383611587565b5050565b6000808273ffffffffffffffffffffffffffffffffffffffff163b119050919050565b60007f000000000000000000000000000000000000000000000000000000000000000073ffffffffffffffffffffffffffffffffffffffff163073ffffffffffffffffffffffffffffffffffffffff16148015611e4f57507f000000000000000000000000000000000000000000000000000000000000000046145b15611e7c577f00000000000000000000000000000000000000000000000000000000000000009050611eea565b611ee77f00000000000000000000000000000000000000000000000000000000000000007f00000000000000000000000000000000000000000000000000000000000000007f000000000000000000000000000000000000000000000000000000000000000061208c565b90505b90565b60008282604051602001611f0292919061386e565b60405160208183030381529060405280519060200120905092915050565b6000807f7fffffffffffffffffffffffffffffff5d576e7357a4501ddfe92f46681b20a08360001c1115611f5b576000600391509150612024565b601b8560ff1614158015611f735750601c8560ff1614155b15611f85576000600491509150612024565b600060018787878760405160008152602001604052604051611faa94939291906138c1565b6020604051602081039080840390855afa158015611fcc573d6000803e3d6000fd5b505050602060405103519050600073ffffffffffffffffffffffffffffffffffffffff168173ffffffffffffffffffffffffffffffffffffffff16141561201b57600060019250925050612024565b80600092509250505b94509492505050565b60008060007f7fffffffffffffffffffffffffffffffffffffffffffffffffffffffffffffff60001b841690506000601b60ff8660001c901c6120709190612fe6565b905061207e87828885611f20565b935093505050935093915050565b600083838346306040516020016120a7959493929190613906565b6040516020818303038152906040528051906020012090509392505050565b8280546120d29061293d565b90600052602060002090601f0160209004810192826120f4576000855561213b565b82601f1061210d57805160ff191683800117855561213b565b8280016001018555821561213b579182015b8281111561213a57825182559160200191906001019061211f565b5b509050612148919061214c565b5090565b5b8082111561216557600081600090555060010161214d565b5090565b6000604051905090565b600080fd5b600080fd5b60007fffffffff0000000000000000000000000000000000000000000000000000000082169050919050565b6121b28161217d565b81146121bd57600080fd5b50565b6000813590506121cf816121a9565b92915050565b6000602082840312156121eb576121ea612173565b5b60006121f9848285016121c0565b91505092915050565b60008115159050919050565b61221781612202565b82525050565b6000602082019050612232600083018461220e565b92915050565b600081519050919050565b600082825260208201905092915050565b60005b83811015612272578082015181840152602081019050612257565b83811115612281576000848401525b50505050565b6000601f19601f8301169050919050565b60006122a382612238565b6122ad8185612243565b93506122bd818560208601612254565b6122c681612287565b840191505092915050565b600060208201905081810360008301526122eb8184612298565b905092915050565b6000819050919050565b612306816122f3565b811461231157600080fd5b50565b600081359050612323816122fd565b92915050565b60006020828403121561233f5761233e612173565b5b600061234d84828501612314565b91505092915050565b600073ffffffffffffffffffffffffffffffffffffffff82169050919050565b600061238182612356565b9050919050565b61239181612376565b82525050565b60006020820190506123ac6000830184612388565b92915050565b6123bb81612376565b81146123c657600080fd5b50565b6000813590506123d8816123b2565b92915050565b600080604083850312156123f5576123f4612173565b5b6000612403858286016123c9565b925050602061241485828601612314565b9150509250929050565b60008060006060848603121561243757612436612173565b5b6000612445868287016123c9565b9350506020612456868287016123c9565b925050604061246786828701612314565b9150509250925092565b60006020828403121561248757612486612173565b5b6000612495848285016123c9565b91505092915050565b6124a7816122f3565b82525050565b60006020820190506124c2600083018461249e565b92915050565b6124d181612202565b81146124dc57600080fd5b50565b6000813590506124ee816124c8565b92915050565b6000806040838503121561250b5761250a612173565b5b6000612519858286016123c9565b925050602061252a858286016124df565b9150509250929050565b600080fd5b60006040828403121561254f5761254e612534565b5b81905092915050565b600080fd5b600080fd5b7f4e487b7100000000000000000000000000000000000000000000000000000000600052604160045260246000fd5b61259a82612287565b810181811067ffffffffffffffff821117156125b9576125b8612562565b5b80604052505050565b60006125cc612169565b90506125d88282612591565b919050565b600067ffffffffffffffff8211156125f8576125f7612562565b5b61260182612287565b9050602081019050919050565b82818337600083830152505050565b600061263061262b846125dd565b6125c2565b90508281526020810184848401111561264c5761264b61255d565b5b61265784828561260e565b509392505050565b600082601f83011261267457612673612558565b5b813561268484826020860161261d565b91505092915050565b600080604083850312156126a4576126a3612173565b5b600083013567ffffffffffffffff8111156126c2576126c1612178565b5b6126ce85828601612539565b925050602083013567ffffffffffffffff8111156126ef576126ee612178565b5b6126fb8582860161265f565b9150509250929050565b6000806040838503121561271c5761271b612173565b5b600061272a858286016123c9565b925050602083013567ffffffffffffffff81111561274b5761274a612178565b5b6127578582860161265f565b9150509250929050565b600067ffffffffffffffff82111561277c5761277b612562565b5b61278582612287565b9050602081019050919050565b60006127a56127a084612761565b6125c2565b9050828152602081018484840111156127c1576127c061255d565b5b6127cc84828561260e565b509392505050565b600082601f8301126127e9576127e8612558565b5b81356127f9848260208601612792565b91505092915050565b6000806000806080858703121561281c5761281b612173565b5b600061282a878288016123c9565b945050602061283b878288016123c9565b935050604061284c87828801612314565b925050606085013567ffffffffffffffff81111561286d5761286c612178565b5b612879878288016127d4565b91505092959194509250565b60006020828403121561289b5761289a612173565b5b600082013567ffffffffffffffff8111156128b9576128b8612178565b5b6128c58482850161265f565b91505092915050565b600080604083850312156128e5576128e4612173565b5b60006128f3858286016123c9565b9250506020612904858286016123c9565b9150509250929050565b7f4e487b7100000000000000000000000000000000000000000000000000000000600052602260045260246000fd5b6000600282049050600182168061295557607f821691505b602082108114156129695761296861290e565b5b50919050565b7f4552433732313a20617070726f76656420717565727920666f72206e6f6e657860008201527f697374656e7420746f6b656e0000000000000000000000000000000000000000602082015250565b60006129cb602c83612243565b91506129d68261296f565b604082019050919050565b600060208201905081810360008301526129fa816129be565b9050919050565b7f4552433732313a20617070726f76616c20746f2063757272656e74206f776e6560008201527f7200000000000000000000000000000000000000000000000000000000000000602082015250565b6000612a5d602183612243565b9150612a6882612a01565b604082019050919050565b60006020820190508181036000830152612a8c81612a50565b9050919050565b7f4552433732313a20617070726f76652063616c6c6572206973206e6f74206f7760008201527f6e6572206e6f7220617070726f76656420666f7220616c6c0000000000000000602082015250565b6000612aef603883612243565b9150612afa82612a93565b604082019050919050565b60006020820190508181036000830152612b1e81612ae2565b9050919050565b7f4552433732313a207472616e736665722063616c6c6572206973206e6f74206f60008201527f776e6572206e6f7220617070726f766564000000000000000000000000000000602082015250565b6000612b81603183612243565b9150612b8c82612b25565b604082019050919050565b60006020820190508181036000830152612bb081612b74565b9050919050565b7f4552433732313a206f776e657220717565727920666f72206e6f6e657869737460008201527f656e7420746f6b656e0000000000000000000000000000000000000000000000602082015250565b6000612c13602983612243565b9150612c1e82612bb7565b604082019050919050565b60006020820190508181036000830152612c4281612c06565b9050919050565b7f4552433732313a2062616c616e636520717565727920666f7220746865207a6560008201527f726f206164647265737300000000000000000000000000000000000000000000602082015250565b6000612ca5602a83612243565b9150612cb082612c49565b604082019050919050565b60006020820190508181036000830152612cd481612c98565b9050919050565b7f45524337323155524953746f726167653a2055524920717565727920666f722060008201527f6e6f6e6578697374656e7420746f6b656e000000000000000000000000000000602082015250565b6000612d37603183612243565b9150612d4282612cdb565b604082019050919050565b60006020820190508181036000830152612d6681612d2a565b9050919050565b600081905092915050565b6000612d8382612238565b612d8d8185612d6d565b9350612d9d818560208601612254565b80840191505092915050565b6000612db58285612d78565b9150612dc18284612d78565b91508190509392505050565b7f4552433732313a206f70657261746f7220717565727920666f72206e6f6e657860008201527f697374656e7420746f6b656e0000000000000000000000000000000000000000602082015250565b6000612e29602c83612243565b9150612e3482612dcd565b604082019050919050565b60006020820190508181036000830152612e5881612e1c565b9050919050565b7f4552433732313a207472616e736665722066726f6d20696e636f72726563742060008201527f6f776e6572000000000000000000000000000000000000000000000000000000602082015250565b6000612ebb602583612243565b9150612ec682612e5f565b604082019050919050565b60006020820190508181036000830152612eea81612eae565b9050919050565b7f4552433732313a207472616e7366657220746f20746865207a65726f2061646460008201527f7265737300000000000000000000000000000000000000000000000000000000602082015250565b6000612f4d602483612243565b9150612f5882612ef1565b604082019050919050565b60006020820190508181036000830152612f7c81612f40565b9050919050565b7f4e487b7100000000000000000000000000000000000000000000000000000000600052601160045260246000fd5b6000612fbd826122f3565b9150612fc8836122f3565b925082821015612fdb57612fda612f83565b5b828203905092915050565b6000612ff1826122f3565b9150612ffc836122f3565b9250827fffffffffffffffffffffffffffffffffffffffffffffffffffffffffffffffff0382111561303157613030612f83565b5b828201905092915050565b7f4552433732313a20617070726f766520746f2063616c6c657200000000000000600082015250565b6000613072601983612243565b915061307d8261303c565b602082019050919050565b600060208201905081810360008301526130a181613065565b9050919050565b600080fd5b600080fd5b600080fd5b600080833560016020038436030381126130d4576130d36130a8565b5b80840192508235915067ffffffffffffffff8211156130f6576130f56130ad565b5b602083019250600182023603831315613112576131116130b2565b5b509250929050565b7f45524337323155524953746f726167653a2055524920736574206f66206e6f6e60008201527f6578697374656e7420746f6b656e000000000000000000000000000000000000602082015250565b6000613176602e83612243565b91506131818261311a565b604082019050919050565b600060208201905081810360008301526131a581613169565b9050919050565b7f4552433732313a207472616e7366657220746f206e6f6e20455243373231526560008201527f63656976657220696d706c656d656e7465720000000000000000000000000000602082015250565b6000613208603283612243565b9150613213826131ac565b604082019050919050565b60006020820190508181036000830152613237816131fb565b9050919050565b7f4552433732314d657461646174613a2055524920717565727920666f72206e6f60008201527f6e6578697374656e7420746f6b656e0000000000000000000000000000000000602082015250565b600061329a602f83612243565b91506132a58261323e565b604082019050919050565b600060208201905081810360008301526132c98161328d565b9050919050565b6000819050919050565b6132e3816132d0565b82525050565b60006040820190506132fe60008301856132da565b61330b602083018461249e565b9392505050565b600081519050919050565b600082825260208201905092915050565b600061333982613312565b613343818561331d565b9350613353818560208601612254565b61335c81612287565b840191505092915050565b600060808201905061337c6000830187612388565b6133896020830186612388565b613396604083018561249e565b81810360608301526133a8818461332e565b905095945050505050565b6000815190506133c2816121a9565b92915050565b6000602082840312156133de576133dd612173565b5b60006133ec848285016133b3565b91505092915050565b6000613400826122f3565b91507fffffffffffffffffffffffffffffffffffffffffffffffffffffffffffffffff82141561343357613432612f83565b5b600182019050919050565b7f4e487b7100000000000000000000000000000000000000000000000000000000600052601260045260246000fd5b6000613478826122f3565b9150613483836122f3565b9250826134935761349261343e565b5b828204905092915050565b60006134a9826122f3565b91506134b4836122f3565b9250826134c4576134c361343e565b5b828206905092915050565b7f4e487b7100000000000000000000000000000000000000000000000000000000600052603260045260246000fd5b7f4e487b7100000000000000000000000000000000000000000000000000000000600052602160045260246000fd5b7f45434453413a20696e76616c6964207369676e61747572650000000000000000600082015250565b6000613563601883612243565b915061356e8261352d565b602082019050919050565b6000602082019050818103600083015261359281613556565b9050919050565b7f45434453413a20696e76616c6964207369676e6174757265206c656e67746800600082015250565b60006135cf601f83612243565b91506135da82613599565b602082019050919050565b600060208201905081810360008301526135fe816135c2565b9050919050565b7f45434453413a20696e76616c6964207369676e6174757265202773272076616c60008201527f7565000000000000000000000000000000000000000000000000000000000000602082015250565b6000613661602283612243565b915061366c82613605565b604082019050919050565b6000602082019050818103600083015261369081613654565b9050919050565b7f45434453413a20696e76616c6964207369676e6174757265202776272076616c60008201527f7565000000000000000000000000000000000000000000000000000000000000602082015250565b60006136f3602283612243565b91506136fe82613697565b604082019050919050565b60006020820190508181036000830152613722816136e6565b9050919050565b7f4552433732313a206d696e7420746f20746865207a65726f2061646472657373600082015250565b600061375f602083612243565b915061376a82613729565b602082019050919050565b6000602082019050818103600083015261378e81613752565b9050919050565b7f4552433732313a20746f6b656e20616c7265616479206d696e74656400000000600082015250565b60006137cb601c83612243565b91506137d682613795565b602082019050919050565b600060208201905081810360008301526137fa816137be565b9050919050565b7f1901000000000000000000000000000000000000000000000000000000000000600082015250565b6000613837600283612d6d565b915061384282613801565b600282019050919050565b6000819050919050565b613868613863826132d0565b61384d565b82525050565b60006138798261382a565b91506138858285613857565b6020820191506138958284613857565b6020820191508190509392505050565b600060ff82169050919050565b6138bb816138a5565b82525050565b60006080820190506138d660008301876132da565b6138e360208301866138b2565b6138f060408301856132da565b6138fd60608301846132da565b95945050505050565b600060a08201905061391b60008301886132da565b61392860208301876132da565b61393560408301866132da565b613942606083018561249e565b61394f6080830184612388565b969550505050505056fea264697066735822122085a0d72d9bcfd6181b5b27f0f396ca579696417a4269d563209c92acd1cfb7f764736f6c63430008090033",
  "linkReferences": {},
  "deployedLinkReferences": {}
}