{
  "_format": "hh-sol-artifact-1",
  "contractName": "UniqueSample",
  "sourceName": "contracts/UniqueSample.sol",
  "abi": [
    {
      "inputs": [],
      "stateMutability": "nonpayable",
      "type": "constructor"
    },
    {
      "anonymous": false,
      "inputs": [
        {
          "indexed": true,
          "internalType": "address",
          "name": "owner",
          "type": "address"
        },
        {
          "indexed": true,
          "internalType": "address",
          "name": "approved",
          "type": "address"
        },
        {
          "indexed": true,
          "internalType": "uint256",
          "name": "tokenId",
          "type": "uint256"
        }
      ],
      "name": "Approval",
      "type": "event"
    },
    {
      "anonymous": false,
      "inputs": [
        {
          "indexed": true,
          "internalType": "address",
          "name": "owner",
          "type": "address"
        },
        {
          "indexed": true,
          "internalType": "address",
          "name": "operator",
          "type": "address"
        },
        {
          "indexed": false,
          "internalType": "bool",
          "name": "approved",
          "type": "bool"
        }
      ],
      "name": "ApprovalForAll",
      "type": "event"
    },
    {
      "anonymous": false,
      "inputs": [
        {
          "indexed": true,
          "internalType": "address",
          "name": "from",
          "type": "address"
        },
        {
          "indexed": true,
          "internalType": "address",
          "name": "to",
          "type": "address"
        },
        {
          "indexed": true,
          "internalType": "uint256",
          "name": "tokenId",
          "type": "uint256"
        }
      ],
      "name": "Transfer",
      "type": "event"
    },
    {
      "inputs": [
        {
          "internalType": "address",
          "name": "to",
          "type": "address"
        },
        {
          "internalType": "uint256",
          "name": "tokenId",
          "type": "uint256"
        }
      ],
      "name": "approve",
      "outputs": [],
      "stateMutability": "nonpayable",
      "type": "function"
    },
    {
      "inputs": [
        {
          "internalType": "address",
          "name": "owner",
          "type": "address"
        }
      ],
      "name": "balanceOf",
      "outputs": [
        {
          "internalType": "uint256",
          "name": "",
          "type": "uint256"
        }
      ],
      "stateMutability": "view",
      "type": "function"
    },
    {
      "inputs": [
        {
          "internalType": "uint256",
          "name": "tokenId",
          "type": "uint256"
        }
      ],
      "name": "getApproved",
      "outputs": [
        {
          "internalType": "address",
          "name": "",
          "type": "address"
        }
      ],
      "stateMutability": "view",
      "type": "function"
    },
    {
      "inputs": [],
      "name": "getChainID",
      "outputs": [
        {
          "internalType": "uint256",
          "name": "",
          "type": "uint256"
        }
      ],
      "stateMutability": "view",
      "type": "function"
    },
    {
      "inputs": [
        {
          "internalType": "address",
          "name": "owner",
          "type": "address"
        },
        {
          "internalType": "address",
          "name": "operator",
          "type": "address"
        }
      ],
      "name": "isApprovedForAll",
      "outputs": [
        {
          "internalType": "bool",
          "name": "",
          "type": "bool"
        }
      ],
      "stateMutability": "view",
      "type": "function"
    },
    {
      "inputs": [
        {
          "internalType": "string",
          "name": "tokenURI",
          "type": "string"
        }
      ],
      "name": "mint",
      "outputs": [
        {
          "internalType": "uint256",
          "name": "",
          "type": "uint256"
        }
      ],
      "stateMutability": "nonpayable",
      "type": "function"
    },
    {
      "inputs": [
        {
          "internalType": "address",
          "name": "delegator",
          "type": "address"
        },
        {
          "internalType": "string",
          "name": "tokenURI",
          "type": "string"
        }
      ],
      "name": "mintWithEvent",
      "outputs": [
        {
          "internalType": "uint256",
          "name": "",
          "type": "uint256"
        }
      ],
      "stateMutability": "nonpayable",
      "type": "function"
    },
    {
      "inputs": [
        {
          "internalType": "address",
          "name": "delegator",
          "type": "address"
        },
        {
          "internalType": "string",
          "name": "tokenURI",
          "type": "string"
        }
      ],
      "name": "mintWithTransfer",
      "outputs": [
        {
          "internalType": "uint256",
          "name": "",
          "type": "uint256"
        }
      ],
      "stateMutability": "nonpayable",
      "type": "function"
    },
    {
      "inputs": [],
      "name": "name",
      "outputs": [
        {
          "internalType": "string",
          "name": "",
          "type": "string"
        }
      ],
      "stateMutability": "view",
      "type": "function"
    },
    {
      "inputs": [
        {
          "internalType": "uint256",
          "name": "tokenId",
          "type": "uint256"
        }
      ],
      "name": "ownerOf",
      "outputs": [
        {
          "internalType": "address",
          "name": "",
          "type": "address"
        }
      ],
      "stateMutability": "view",
      "type": "function"
    },
    {
      "inputs": [
        {
          "components": [
            {
              "internalType": "uint256",
              "name": "tokenId",
              "type": "uint256"
            },
            {
              "internalType": "bytes",
              "name": "signature",
              "type": "bytes"
            }
          ],
          "internalType": "struct UniqueSample.NFTVoucher",
          "name": "voucher",
          "type": "tuple"
        },
        {
          "internalType": "string",
          "name": "tokenURI",
          "type": "string"
        }
      ],
      "name": "redeem",
      "outputs": [
        {
          "internalType": "uint256",
          "name": "",
          "type": "uint256"
        }
      ],
      "stateMutability": "nonpayable",
      "type": "function"
    },
    {
      "inputs": [
        {
          "internalType": "address",
          "name": "from",
          "type": "address"
        },
        {
          "internalType": "address",
          "name": "to",
          "type": "address"
        },
        {
          "internalType": "uint256",
          "name": "tokenId",
          "type": "uint256"
        }
      ],
      "name": "safeTransferFrom",
      "outputs": [],
      "stateMutability": "nonpayable",
      "type": "function"
    },
    {
      "inputs": [
        {
          "internalType": "address",
          "name": "from",
          "type": "address"
        },
        {
          "internalType": "address",
          "name": "to",
          "type": "address"
        },
        {
          "internalType": "uint256",
          "name": "tokenId",
          "type": "uint256"
        },
        {
          "internalType": "bytes",
          "name": "_data",
          "type": "bytes"
        }
      ],
      "name": "safeTransferFrom",
      "outputs": [],
      "stateMutability": "nonpayable",
      "type": "function"
    },
    {
      "inputs": [
        {
          "internalType": "address",
          "name": "operator",
          "type": "address"
        },
        {
          "internalType": "bool",
          "name": "approved",
          "type": "bool"
        }
      ],
      "name": "setApprovalForAll",
      "outputs": [],
      "stateMutability": "nonpayable",
      "type": "function"
    },
    {
      "inputs": [
        {
          "internalType": "bytes4",
          "name": "interfaceId",
          "type": "bytes4"
        }
      ],
      "name": "supportsInterface",
      "outputs": [
        {
          "internalType": "bool",
          "name": "",
          "type": "bool"
        }
      ],
      "stateMutability": "view",
      "type": "function"
    },
    {
      "inputs": [],
      "name": "symbol",
      "outputs": [
        {
          "internalType": "string",
          "name": "",
          "type": "string"
        }
      ],
      "stateMutability": "view",
      "type": "function"
    },
    {
      "inputs": [
        {
          "internalType": "uint256",
          "name": "tokenId",
          "type": "uint256"
        }
      ],
      "name": "tokenURI",
      "outputs": [
        {
          "internalType": "string",
          "name": "",
          "type": "string"
        }
      ],
      "stateMutability": "view",
      "type": "function"
    },
    {
      "inputs": [
        {
          "internalType": "address",
          "name": "from",
          "type": "address"
        },
        {
          "internalType": "address",
          "name": "to",
          "type": "address"
        },
        {
          "internalType": "uint256",
          "name": "tokenId",
          "type": "uint256"
        }
      ],
      "name": "transferFrom",
      "outputs": [],
      "stateMutability": "nonpayable",
      "type": "function"
    }
  ],
  "bytecode": "0x6101406040523480156200001257600080fd5b506040518060400160405280600d81526020017f556e697175652053616d706c65000000000000000000000000000000000000008152506040518060400160405280600181526020017f31000000000000000000000000000000000000000000000000000000000000008152506040518060400160405280600d81526020017f556e697175652053616d706c65000000000000000000000000000000000000008152506040518060400160405280600281526020017f555300000000000000000000000000000000000000000000000000000000000081525081600090805190602001906200010392919062000213565b5080600190805190602001906200011c92919062000213565b50505060008280519060200120905060008280519060200120905060007f8b73c3c69bb8fe3d512ecc4cf759cc79239f7b179b0ffacaa9a75d522b39400f90508260e081815250508161010081815250504660a0818152505062000188818484620001d760201b60201c565b608081815250503073ffffffffffffffffffffffffffffffffffffffff1660c08173ffffffffffffffffffffffffffffffffffffffff1681525050806101208181525050505050505062000400565b60008383834630604051602001620001f49594939291906200033e565b6040516020818303038152906040528051906020012090509392505050565b8280546200022190620003ca565b90600052602060002090601f01602090048101928262000245576000855562000291565b82601f106200026057805160ff191683800117855562000291565b8280016001018555821562000291579182015b828111156200029057825182559160200191906001019062000273565b5b509050620002a09190620002a4565b5090565b5b80821115620002bf576000816000905550600101620002a5565b5090565b6000819050919050565b620002d881620002c3565b82525050565b6000819050919050565b620002f381620002de565b82525050565b600073ffffffffffffffffffffffffffffffffffffffff82169050919050565b60006200032682620002f9565b9050919050565b620003388162000319565b82525050565b600060a082019050620003556000830188620002cd565b620003646020830187620002cd565b620003736040830186620002cd565b620003826060830185620002e8565b6200039160808301846200032d565b9695505050505050565b7f4e487b7100000000000000000000000000000000000000000000000000000000600052602260045260246000fd5b60006002820490506001821680620003e357607f821691505b60208210811415620003fa57620003f96200039b565b5b50919050565b60805160a05160c05160e05161010051610120516139c5620004506000396000611eb701526000611ef901526000611ed801526000611e0d01526000611e6301526000611e8c01526139c56000f3fe608060405234801561001057600080fd5b50600436106101165760003560e01c806395d89b41116100a2578063b88d4fde11610071578063b88d4fde14610305578063c87b56dd14610321578063c95cacfa14610351578063d85d3d2714610381578063e985e9c5146103b157610116565b806395d89b411461026b578063a22cb46514610289578063ac47d490146102a5578063b6ffdbd1146102d557610116565b806323b872dd116100e957806323b872dd146101b557806342842e0e146101d1578063564b81ef146101ed5780636352211e1461020b57806370a082311461023b57610116565b806301ffc9a71461011b57806306fdde031461014b578063081812fc14610169578063095ea7b314610199575b600080fd5b6101356004803603810190610130919061220b565b6103e1565b6040516101429190612253565b60405180910390f35b6101536104c3565b6040516101609190612307565b60405180910390f35b610183600480360381019061017e919061235f565b610555565b60405161019091906123cd565b60405180910390f35b6101b360048036038101906101ae9190612414565b6105da565b005b6101cf60048036038101906101ca9190612454565b6106f2565b005b6101eb60048036038101906101e69190612454565b610752565b005b6101f5610772565b60405161020291906124b6565b60405180910390f35b6102256004803603810190610220919061235f565b61077f565b60405161023291906123cd565b60405180910390f35b610255600480360381019061025091906124d1565b610831565b60405161026291906124b6565b60405180910390f35b6102736108e9565b6040516102809190612307565b60405180910390f35b6102a3600480360381019061029e919061252a565b61097b565b005b6102bf60048036038101906102ba91906126c3565b610991565b6040516102cc91906124b6565b60405180910390f35b6102ef60048036038101906102ea919061273b565b6109d8565b6040516102fc91906124b6565b60405180910390f35b61031f600480360381019061031a9190612838565b610a6b565b005b61033b6004803603810190610336919061235f565b610acd565b6040516103489190612307565b60405180910390f35b61036b6004803603810190610366919061273b565b610c1f565b60405161037891906124b6565b60405180910390f35b61039b600480360381019061039691906128bb565b610c62565b6040516103a891906124b6565b60405180910390f35b6103cb60048036038101906103c69190612904565b610c99565b6040516103d89190612253565b60405180910390f35b60007f80ac58cd000000000000000000000000000000000000000000000000000000007bffffffffffffffffffffffffffffffffffffffffffffffffffffffff1916827bffffffffffffffffffffffffffffffffffffffffffffffffffffffff191614806104ac57507f5b5e139f000000000000000000000000000000000000000000000000000000007bffffffffffffffffffffffffffffffffffffffffffffffffffffffff1916827bffffffffffffffffffffffffffffffffffffffffffffffffffffffff1916145b806104bc57506104bb82610d2d565b5b9050919050565b6060600080546104d290612973565b80601f01602080910402602001604051908101604052809291908181526020018280546104fe90612973565b801561054b5780601f106105205761010080835404028352916020019161054b565b820191906000526020600020905b81548152906001019060200180831161052e57829003601f168201915b5050505050905090565b600061056082610d97565b61059f576040517f08c379a000000000000000000000000000000000000000000000000000000000815260040161059690612a17565b60405180910390fd5b6004600083815260200190815260200160002060009054906101000a900473ffffffffffffffffffffffffffffffffffffffff169050919050565b60006105e58261077f565b90508073ffffffffffffffffffffffffffffffffffffffff168373ffffffffffffffffffffffffffffffffffffffff161415610656576040517f08c379a000000000000000000000000000000000000000000000000000000000815260040161064d90612aa9565b60405180910390fd5b8073ffffffffffffffffffffffffffffffffffffffff16610675610e03565b73ffffffffffffffffffffffffffffffffffffffff1614806106a457506106a38161069e610e03565b610c99565b5b6106e3576040517f08c379a00000000000000000000000000000000000000000000000000000000081526004016106da90612b3b565b60405180910390fd5b6106ed8383610e0b565b505050565b6107036106fd610e03565b82610ec4565b610742576040517f08c379a000000000000000000000000000000000000000000000000000000000815260040161073990612bcd565b60405180910390fd5b61074d838383610fa2565b505050565b61076d83838360405180602001604052806000815250610a6b565b505050565b6000804690508091505090565b6000806002600084815260200190815260200160002060009054906101000a900473ffffffffffffffffffffffffffffffffffffffff169050600073ffffffffffffffffffffffffffffffffffffffff168173ffffffffffffffffffffffffffffffffffffffff161415610828576040517f08c379a000000000000000000000000000000000000000000000000000000000815260040161081f90612c5f565b60405180910390fd5b80915050919050565b60008073ffffffffffffffffffffffffffffffffffffffff168273ffffffffffffffffffffffffffffffffffffffff1614156108a2576040517f08c379a000000000000000000000000000000000000000000000000000000000815260040161089990612cf1565b60405180910390fd5b600360008373ffffffffffffffffffffffffffffffffffffffff1673ffffffffffffffffffffffffffffffffffffffff168152602001908152602001600020549050919050565b6060600180546108f890612973565b80601f016020809104026020016040519081016040528092919081815260200182805461092490612973565b80156109715780601f1061094657610100808354040283529160200191610971565b820191906000526020600020905b81548152906001019060200180831161095457829003601f168201915b5050505050905090565b61098d610986610e03565b8383611209565b5050565b60008061099d84611376565b90506109ad3385600001356113e8565b6109bb846000013584611406565b6109ca33828660000135610fa2565b836000013591505092915050565b60006109e4600761147a565b60006109f06007611490565b90506109fc33826113e8565b610a068184611406565b808473ffffffffffffffffffffffffffffffffffffffff163373ffffffffffffffffffffffffffffffffffffffff167fddf252ad1be2c89b69c2b068fc378daa952ba7f163c4a11628f55a4df523b3ef60405160405180910390a48091505092915050565b610a7c610a76610e03565b83610ec4565b610abb576040517f08c379a0000000000000000000000000000000000000000000000000000000008152600401610ab290612bcd565b60405180910390fd5b610ac78484848461149e565b50505050565b6060610ad882610d97565b610b17576040517f08c379a0000000000000000000000000000000000000000000000000000000008152600401610b0e90612d83565b60405180910390fd5b6000600660008481526020019081526020016000208054610b3790612973565b80601f0160208091040260200160405190810160405280929190818152602001828054610b6390612973565b8015610bb05780601f10610b8557610100808354040283529160200191610bb0565b820191906000526020600020905b815481529060010190602001808311610b9357829003601f168201915b505050505090506000610bc16114fa565b9050600081511415610bd7578192505050610c1a565b600082511115610c0c578082604051602001610bf4929190612ddf565b60405160208183030381529060405292505050610c1a565b610c1584611511565b925050505b919050565b6000610c2b600761147a565b6000610c376007611490565b9050610c4333826113e8565b610c4d8184611406565b610c58338583610fa2565b8091505092915050565b6000610c6e600761147a565b6000610c7a6007611490565b9050610c8633826113e8565b610c908184611406565b80915050919050565b6000600560008473ffffffffffffffffffffffffffffffffffffffff1673ffffffffffffffffffffffffffffffffffffffff16815260200190815260200160002060008373ffffffffffffffffffffffffffffffffffffffff1673ffffffffffffffffffffffffffffffffffffffff16815260200190815260200160002060009054906101000a900460ff16905092915050565b60007f01ffc9a7000000000000000000000000000000000000000000000000000000007bffffffffffffffffffffffffffffffffffffffffffffffffffffffff1916827bffffffffffffffffffffffffffffffffffffffffffffffffffffffff1916149050919050565b60008073ffffffffffffffffffffffffffffffffffffffff166002600084815260200190815260200160002060009054906101000a900473ffffffffffffffffffffffffffffffffffffffff1673ffffffffffffffffffffffffffffffffffffffff1614159050919050565b600033905090565b816004600083815260200190815260200160002060006101000a81548173ffffffffffffffffffffffffffffffffffffffff021916908373ffffffffffffffffffffffffffffffffffffffff160217905550808273ffffffffffffffffffffffffffffffffffffffff16610e7e8361077f565b73ffffffffffffffffffffffffffffffffffffffff167f8c5be1e5ebec7d5bd14f71427d1e84f3dd0314c0f7b2291e5b200ac8c7c3b92560405160405180910390a45050565b6000610ecf82610d97565b610f0e576040517f08c379a0000000000000000000000000000000000000000000000000000000008152600401610f0590612e75565b60405180910390fd5b6000610f198361077f565b90508073ffffffffffffffffffffffffffffffffffffffff168473ffffffffffffffffffffffffffffffffffffffff161480610f8857508373ffffffffffffffffffffffffffffffffffffffff16610f7084610555565b73ffffffffffffffffffffffffffffffffffffffff16145b80610f995750610f988185610c99565b5b91505092915050565b8273ffffffffffffffffffffffffffffffffffffffff16610fc28261077f565b73ffffffffffffffffffffffffffffffffffffffff1614611018576040517f08c379a000000000000000000000000000000000000000000000000000000000815260040161100f90612f07565b60405180910390fd5b600073ffffffffffffffffffffffffffffffffffffffff168273ffffffffffffffffffffffffffffffffffffffff161415611088576040517f08c379a000000000000000000000000000000000000000000000000000000000815260040161107f90612f99565b60405180910390fd5b6110938383836115b8565b61109e600082610e0b565b6001600360008573ffffffffffffffffffffffffffffffffffffffff1673ffffffffffffffffffffffffffffffffffffffff16815260200190815260200160002060008282546110ee9190612fe8565b925050819055506001600360008473ffffffffffffffffffffffffffffffffffffffff1673ffffffffffffffffffffffffffffffffffffffff1681526020019081526020016000206000828254611145919061301c565b92505081905550816002600083815260200190815260200160002060006101000a81548173ffffffffffffffffffffffffffffffffffffffff021916908373ffffffffffffffffffffffffffffffffffffffff160217905550808273ffffffffffffffffffffffffffffffffffffffff168473ffffffffffffffffffffffffffffffffffffffff167fddf252ad1be2c89b69c2b068fc378daa952ba7f163c4a11628f55a4df523b3ef60405160405180910390a46112048383836115bd565b505050565b8173ffffffffffffffffffffffffffffffffffffffff168373ffffffffffffffffffffffffffffffffffffffff161415611278576040517f08c379a000000000000000000000000000000000000000000000000000000000815260040161126f906130be565b60405180910390fd5b80600560008573ffffffffffffffffffffffffffffffffffffffff1673ffffffffffffffffffffffffffffffffffffffff16815260200190815260200160002060008473ffffffffffffffffffffffffffffffffffffffff1673ffffffffffffffffffffffffffffffffffffffff16815260200190815260200160002060006101000a81548160ff0219169083151502179055508173ffffffffffffffffffffffffffffffffffffffff168373ffffffffffffffffffffffffffffffffffffffff167f17307eab39ab6107e8899845ad3d59bd9653f200f220920489ca2b5937696c31836040516113699190612253565b60405180910390a3505050565b600080611382836115c2565b90506113e08184806020019061139891906130ed565b8080601f016020809104026020016040519081016040528093929190818152602001838380828437600081840152601f19601f82011690508083019250505050505050611620565b915050919050565b611402828260405180602001604052806000815250611647565b5050565b61140f82610d97565b61144e576040517f08c379a0000000000000000000000000000000000000000000000000000000008152600401611445906131c2565b60405180910390fd5b806006600084815260200190815260200160002090805190602001906114759291906120fc565b505050565b6001816000016000828254019250508190555050565b600081600001549050919050565b6114a9848484610fa2565b6114b5848484846116a2565b6114f4576040517f08c379a00000000000000000000000000000000000000000000000000000000081526004016114eb90613254565b60405180910390fd5b50505050565b606060405180602001604052806000815250905090565b606061151c82610d97565b61155b576040517f08c379a0000000000000000000000000000000000000000000000000000000008152600401611552906132e6565b60405180910390fd5b60006115656114fa565b9050600081511161158557604051806020016040528060008152506115b0565b8061158f84611839565b6040516020016115a0929190612ddf565b6040516020818303038152906040525b915050919050565b505050565b505050565b60006116197faa5ac5e8b3947cfdfb46b0ea715a97161b414b7217ba36b5c047c5968b20b0bd83600001356040516020016115fe92919061331f565b6040516020818303038152906040528051906020012061199a565b9050919050565b600080600061162f85856119b4565b9150915061163c81611a37565b819250505092915050565b6116518383611c0c565b61165e60008484846116a2565b61169d576040517f08c379a000000000000000000000000000000000000000000000000000000000815260040161169490613254565b60405180910390fd5b505050565b60006116c38473ffffffffffffffffffffffffffffffffffffffff16611de6565b1561182c578373ffffffffffffffffffffffffffffffffffffffff1663150b7a026116ec610e03565b8786866040518563ffffffff1660e01b815260040161170e949392919061339d565b602060405180830381600087803b15801561172857600080fd5b505af192505050801561175957506040513d601f19601f8201168201806040525081019061175691906133fe565b60015b6117dc573d8060008114611789576040519150601f19603f3d011682016040523d82523d6000602084013e61178e565b606091505b506000815114156117d4576040517f08c379a00000000000000000000000000000000000000000000000000000000081526004016117cb90613254565b60405180910390fd5b805181602001fd5b63150b7a0260e01b7bffffffffffffffffffffffffffffffffffffffffffffffffffffffff1916817bffffffffffffffffffffffffffffffffffffffffffffffffffffffff191614915050611831565b600190505b949350505050565b60606000821415611881576040518060400160405280600181526020017f30000000000000000000000000000000000000000000000000000000000000008152509050611995565b600082905060005b600082146118b357808061189c9061342b565b915050600a826118ac91906134a3565b9150611889565b60008167ffffffffffffffff8111156118cf576118ce612598565b5b6040519080825280601f01601f1916602001820160405280156119015781602001600182028036833780820191505090505b5090505b6000851461198e5760018261191a9190612fe8565b9150600a8561192991906134d4565b6030611935919061301c565b60f81b81838151811061194b5761194a613505565b5b60200101907effffffffffffffffffffffffffffffffffffffffffffffffffffffffffffff1916908160001a905350600a8561198791906134a3565b9450611905565b8093505050505b919050565b60006119ad6119a7611e09565b83611f23565b9050919050565b6000806041835114156119f65760008060006020860151925060408601519150606086015160001a90506119ea87828585611f56565b94509450505050611a30565b604083511415611a27576000806020850151915060408501519050611a1c868383612063565b935093505050611a30565b60006002915091505b9250929050565b60006004811115611a4b57611a4a613534565b5b816004811115611a5e57611a5d613534565b5b1415611a6957611c09565b60016004811115611a7d57611a7c613534565b5b816004811115611a9057611a8f613534565b5b1415611ad1576040517f08c379a0000000000000000000000000000000000000000000000000000000008152600401611ac8906135af565b60405180910390fd5b60026004811115611ae557611ae4613534565b5b816004811115611af857611af7613534565b5b1415611b39576040517f08c379a0000000000000000000000000000000000000000000000000000000008152600401611b309061361b565b60405180910390fd5b60036004811115611b4d57611b4c613534565b5b816004811115611b6057611b5f613534565b5b1415611ba1576040517f08c379a0000000000000000000000000000000000000000000000000000000008152600401611b98906136ad565b60405180910390fd5b600480811115611bb457611bb3613534565b5b816004811115611bc757611bc6613534565b5b1415611c08576040517f08c379a0000000000000000000000000000000000000000000000000000000008152600401611bff9061373f565b60405180910390fd5b5b50565b600073ffffffffffffffffffffffffffffffffffffffff168273ffffffffffffffffffffffffffffffffffffffff161415611c7c576040517f08c379a0000000000000000000000000000000000000000000000000000000008152600401611c73906137ab565b60405180910390fd5b611c8581610d97565b15611cc5576040517f08c379a0000000000000000000000000000000000000000000000000000000008152600401611cbc90613817565b60405180910390fd5b611cd1600083836115b8565b6001600360008473ffffffffffffffffffffffffffffffffffffffff1673ffffffffffffffffffffffffffffffffffffffff1681526020019081526020016000206000828254611d21919061301c565b92505081905550816002600083815260200190815260200160002060006101000a81548173ffffffffffffffffffffffffffffffffffffffff021916908373ffffffffffffffffffffffffffffffffffffffff160217905550808273ffffffffffffffffffffffffffffffffffffffff16600073ffffffffffffffffffffffffffffffffffffffff167fddf252ad1be2c89b69c2b068fc378daa952ba7f163c4a11628f55a4df523b3ef60405160405180910390a4611de2600083836115bd565b5050565b6000808273ffffffffffffffffffffffffffffffffffffffff163b119050919050565b60007f000000000000000000000000000000000000000000000000000000000000000073ffffffffffffffffffffffffffffffffffffffff163073ffffffffffffffffffffffffffffffffffffffff16148015611e8557507f000000000000000000000000000000000000000000000000000000000000000046145b15611eb2577f00000000000000000000000000000000000000000000000000000000000000009050611f20565b611f1d7f00000000000000000000000000000000000000000000000000000000000000007f00000000000000000000000000000000000000000000000000000000000000007f00000000000000000000000000000000000000000000000000000000000000006120c2565b90505b90565b60008282604051602001611f389291906138a4565b60405160208183030381529060405280519060200120905092915050565b6000807f7fffffffffffffffffffffffffffffff5d576e7357a4501ddfe92f46681b20a08360001c1115611f9157600060039150915061205a565b601b8560ff1614158015611fa95750601c8560ff1614155b15611fbb57600060049150915061205a565b600060018787878760405160008152602001604052604051611fe094939291906138f7565b6020604051602081039080840390855afa158015612002573d6000803e3d6000fd5b505050602060405103519050600073ffffffffffffffffffffffffffffffffffffffff168173ffffffffffffffffffffffffffffffffffffffff1614156120515760006001925092505061205a565b80600092509250505b94509492505050565b60008060007f7fffffffffffffffffffffffffffffffffffffffffffffffffffffffffffffff60001b841690506000601b60ff8660001c901c6120a6919061301c565b90506120b487828885611f56565b935093505050935093915050565b600083838346306040516020016120dd95949392919061393c565b6040516020818303038152906040528051906020012090509392505050565b82805461210890612973565b90600052602060002090601f01602090048101928261212a5760008555612171565b82601f1061214357805160ff1916838001178555612171565b82800160010185558215612171579182015b82811115612170578251825591602001919060010190612155565b5b50905061217e9190612182565b5090565b5b8082111561219b576000816000905550600101612183565b5090565b6000604051905090565b600080fd5b600080fd5b60007fffffffff0000000000000000000000000000000000000000000000000000000082169050919050565b6121e8816121b3565b81146121f357600080fd5b50565b600081359050612205816121df565b92915050565b600060208284031215612221576122206121a9565b5b600061222f848285016121f6565b91505092915050565b60008115159050919050565b61224d81612238565b82525050565b60006020820190506122686000830184612244565b92915050565b600081519050919050565b600082825260208201905092915050565b60005b838110156122a857808201518184015260208101905061228d565b838111156122b7576000848401525b50505050565b6000601f19601f8301169050919050565b60006122d98261226e565b6122e38185612279565b93506122f381856020860161228a565b6122fc816122bd565b840191505092915050565b6000602082019050818103600083015261232181846122ce565b905092915050565b6000819050919050565b61233c81612329565b811461234757600080fd5b50565b60008135905061235981612333565b92915050565b600060208284031215612375576123746121a9565b5b60006123838482850161234a565b91505092915050565b600073ffffffffffffffffffffffffffffffffffffffff82169050919050565b60006123b78261238c565b9050919050565b6123c7816123ac565b82525050565b60006020820190506123e260008301846123be565b92915050565b6123f1816123ac565b81146123fc57600080fd5b50565b60008135905061240e816123e8565b92915050565b6000806040838503121561242b5761242a6121a9565b5b6000612439858286016123ff565b925050602061244a8582860161234a565b9150509250929050565b60008060006060848603121561246d5761246c6121a9565b5b600061247b868287016123ff565b935050602061248c868287016123ff565b925050604061249d8682870161234a565b9150509250925092565b6124b081612329565b82525050565b60006020820190506124cb60008301846124a7565b92915050565b6000602082840312156124e7576124e66121a9565b5b60006124f5848285016123ff565b91505092915050565b61250781612238565b811461251257600080fd5b50565b600081359050612524816124fe565b92915050565b60008060408385031215612541576125406121a9565b5b600061254f858286016123ff565b925050602061256085828601612515565b9150509250929050565b600080fd5b6000604082840312156125855761258461256a565b5b81905092915050565b600080fd5b600080fd5b7f4e487b7100000000000000000000000000000000000000000000000000000000600052604160045260246000fd5b6125d0826122bd565b810181811067ffffffffffffffff821117156125ef576125ee612598565b5b80604052505050565b600061260261219f565b905061260e82826125c7565b919050565b600067ffffffffffffffff82111561262e5761262d612598565b5b612637826122bd565b9050602081019050919050565b82818337600083830152505050565b600061266661266184612613565b6125f8565b90508281526020810184848401111561268257612681612593565b5b61268d848285612644565b509392505050565b600082601f8301126126aa576126a961258e565b5b81356126ba848260208601612653565b91505092915050565b600080604083850312156126da576126d96121a9565b5b600083013567ffffffffffffffff8111156126f8576126f76121ae565b5b6127048582860161256f565b925050602083013567ffffffffffffffff811115612725576127246121ae565b5b61273185828601612695565b9150509250929050565b60008060408385031215612752576127516121a9565b5b6000612760858286016123ff565b925050602083013567ffffffffffffffff811115612781576127806121ae565b5b61278d85828601612695565b9150509250929050565b600067ffffffffffffffff8211156127b2576127b1612598565b5b6127bb826122bd565b9050602081019050919050565b60006127db6127d684612797565b6125f8565b9050828152602081018484840111156127f7576127f6612593565b5b612802848285612644565b509392505050565b600082601f83011261281f5761281e61258e565b5b813561282f8482602086016127c8565b91505092915050565b60008060008060808587031215612852576128516121a9565b5b6000612860878288016123ff565b9450506020612871878288016123ff565b93505060406128828782880161234a565b925050606085013567ffffffffffffffff8111156128a3576128a26121ae565b5b6128af8782880161280a565b91505092959194509250565b6000602082840312156128d1576128d06121a9565b5b600082013567ffffffffffffffff8111156128ef576128ee6121ae565b5b6128fb84828501612695565b91505092915050565b6000806040838503121561291b5761291a6121a9565b5b6000612929858286016123ff565b925050602061293a858286016123ff565b9150509250929050565b7f4e487b7100000000000000000000000000000000000000000000000000000000600052602260045260246000fd5b6000600282049050600182168061298b57607f821691505b6020821081141561299f5761299e612944565b5b50919050565b7f4552433732313a20617070726f76656420717565727920666f72206e6f6e657860008201527f697374656e7420746f6b656e0000000000000000000000000000000000000000602082015250565b6000612a01602c83612279565b9150612a0c826129a5565b604082019050919050565b60006020820190508181036000830152612a30816129f4565b9050919050565b7f4552433732313a20617070726f76616c20746f2063757272656e74206f776e6560008201527f7200000000000000000000000000000000000000000000000000000000000000602082015250565b6000612a93602183612279565b9150612a9e82612a37565b604082019050919050565b60006020820190508181036000830152612ac281612a86565b9050919050565b7f4552433732313a20617070726f76652063616c6c6572206973206e6f74206f7760008201527f6e6572206e6f7220617070726f76656420666f7220616c6c0000000000000000602082015250565b6000612b25603883612279565b9150612b3082612ac9565b604082019050919050565b60006020820190508181036000830152612b5481612b18565b9050919050565b7f4552433732313a207472616e736665722063616c6c6572206973206e6f74206f60008201527f776e6572206e6f7220617070726f766564000000000000000000000000000000602082015250565b6000612bb7603183612279565b9150612bc282612b5b565b604082019050919050565b60006020820190508181036000830152612be681612baa565b9050919050565b7f4552433732313a206f776e657220717565727920666f72206e6f6e657869737460008201527f656e7420746f6b656e0000000000000000000000000000000000000000000000602082015250565b6000612c49602983612279565b9150612c5482612bed565b604082019050919050565b60006020820190508181036000830152612c7881612c3c565b9050919050565b7f4552433732313a2062616c616e636520717565727920666f7220746865207a6560008201527f726f206164647265737300000000000000000000000000000000000000000000602082015250565b6000612cdb602a83612279565b9150612ce682612c7f565b604082019050919050565b60006020820190508181036000830152612d0a81612cce565b9050919050565b7f45524337323155524953746f726167653a2055524920717565727920666f722060008201527f6e6f6e6578697374656e7420746f6b656e000000000000000000000000000000602082015250565b6000612d6d603183612279565b9150612d7882612d11565b604082019050919050565b60006020820190508181036000830152612d9c81612d60565b9050919050565b600081905092915050565b6000612db98261226e565b612dc38185612da3565b9350612dd381856020860161228a565b80840191505092915050565b6000612deb8285612dae565b9150612df78284612dae565b91508190509392505050565b7f4552433732313a206f70657261746f7220717565727920666f72206e6f6e657860008201527f697374656e7420746f6b656e0000000000000000000000000000000000000000602082015250565b6000612e5f602c83612279565b9150612e6a82612e03565b604082019050919050565b60006020820190508181036000830152612e8e81612e52565b9050919050565b7f4552433732313a207472616e736665722066726f6d20696e636f72726563742060008201527f6f776e6572000000000000000000000000000000000000000000000000000000602082015250565b6000612ef1602583612279565b9150612efc82612e95565b604082019050919050565b60006020820190508181036000830152612f2081612ee4565b9050919050565b7f4552433732313a207472616e7366657220746f20746865207a65726f2061646460008201527f7265737300000000000000000000000000000000000000000000000000000000602082015250565b6000612f83602483612279565b9150612f8e82612f27565b604082019050919050565b60006020820190508181036000830152612fb281612f76565b9050919050565b7f4e487b7100000000000000000000000000000000000000000000000000000000600052601160045260246000fd5b6000612ff382612329565b9150612ffe83612329565b92508282101561301157613010612fb9565b5b828203905092915050565b600061302782612329565b915061303283612329565b9250827fffffffffffffffffffffffffffffffffffffffffffffffffffffffffffffffff0382111561306757613066612fb9565b5b828201905092915050565b7f4552433732313a20617070726f766520746f2063616c6c657200000000000000600082015250565b60006130a8601983612279565b91506130b382613072565b602082019050919050565b600060208201905081810360008301526130d78161309b565b9050919050565b600080fd5b600080fd5b600080fd5b6000808335600160200384360303811261310a576131096130de565b5b80840192508235915067ffffffffffffffff82111561312c5761312b6130e3565b5b602083019250600182023603831315613148576131476130e8565b5b509250929050565b7f45524337323155524953746f726167653a2055524920736574206f66206e6f6e60008201527f6578697374656e7420746f6b656e000000000000000000000000000000000000602082015250565b60006131ac602e83612279565b91506131b782613150565b604082019050919050565b600060208201905081810360008301526131db8161319f565b9050919050565b7f4552433732313a207472616e7366657220746f206e6f6e20455243373231526560008201527f63656976657220696d706c656d656e7465720000000000000000000000000000602082015250565b600061323e603283612279565b9150613249826131e2565b604082019050919050565b6000602082019050818103600083015261326d81613231565b9050919050565b7f4552433732314d657461646174613a2055524920717565727920666f72206e6f60008201527f6e6578697374656e7420746f6b656e0000000000000000000000000000000000602082015250565b60006132d0602f83612279565b91506132db82613274565b604082019050919050565b600060208201905081810360008301526132ff816132c3565b9050919050565b6000819050919050565b61331981613306565b82525050565b60006040820190506133346000830185613310565b61334160208301846124a7565b9392505050565b600081519050919050565b600082825260208201905092915050565b600061336f82613348565b6133798185613353565b935061338981856020860161228a565b613392816122bd565b840191505092915050565b60006080820190506133b260008301876123be565b6133bf60208301866123be565b6133cc60408301856124a7565b81810360608301526133de8184613364565b905095945050505050565b6000815190506133f8816121df565b92915050565b600060208284031215613414576134136121a9565b5b6000613422848285016133e9565b91505092915050565b600061343682612329565b91507fffffffffffffffffffffffffffffffffffffffffffffffffffffffffffffffff82141561346957613468612fb9565b5b600182019050919050565b7f4e487b7100000000000000000000000000000000000000000000000000000000600052601260045260246000fd5b60006134ae82612329565b91506134b983612329565b9250826134c9576134c8613474565b5b828204905092915050565b60006134df82612329565b91506134ea83612329565b9250826134fa576134f9613474565b5b828206905092915050565b7f4e487b7100000000000000000000000000000000000000000000000000000000600052603260045260246000fd5b7f4e487b7100000000000000000000000000000000000000000000000000000000600052602160045260246000fd5b7f45434453413a20696e76616c6964207369676e61747572650000000000000000600082015250565b6000613599601883612279565b91506135a482613563565b602082019050919050565b600060208201905081810360008301526135c88161358c565b9050919050565b7f45434453413a20696e76616c6964207369676e6174757265206c656e67746800600082015250565b6000613605601f83612279565b9150613610826135cf565b602082019050919050565b60006020820190508181036000830152613634816135f8565b9050919050565b7f45434453413a20696e76616c6964207369676e6174757265202773272076616c60008201527f7565000000000000000000000000000000000000000000000000000000000000602082015250565b6000613697602283612279565b91506136a28261363b565b604082019050919050565b600060208201905081810360008301526136c68161368a565b9050919050565b7f45434453413a20696e76616c6964207369676e6174757265202776272076616c60008201527f7565000000000000000000000000000000000000000000000000000000000000602082015250565b6000613729602283612279565b9150613734826136cd565b604082019050919050565b600060208201905081810360008301526137588161371c565b9050919050565b7f4552433732313a206d696e7420746f20746865207a65726f2061646472657373600082015250565b6000613795602083612279565b91506137a08261375f565b602082019050919050565b600060208201905081810360008301526137c481613788565b9050919050565b7f4552433732313a20746f6b656e20616c7265616479206d696e74656400000000600082015250565b6000613801601c83612279565b915061380c826137cb565b602082019050919050565b60006020820190508181036000830152613830816137f4565b9050919050565b7f1901000000000000000000000000000000000000000000000000000000000000600082015250565b600061386d600283612da3565b915061387882613837565b600282019050919050565b6000819050919050565b61389e61389982613306565b613883565b82525050565b60006138af82613860565b91506138bb828561388d565b6020820191506138cb828461388d565b6020820191508190509392505050565b600060ff82169050919050565b6138f1816138db565b82525050565b600060808201905061390c6000830187613310565b61391960208301866138e8565b6139266040830185613310565b6139336060830184613310565b95945050505050565b600060a0820190506139516000830188613310565b61395e6020830187613310565b61396b6040830186613310565b61397860608301856124a7565b61398560808301846123be565b969550505050505056fea26469706673582212202ebf64e2b7911dc1194993e2b20798d2896b9902fab866684372540a6c6a946364736f6c63430008090033",
  "linkReferences": {},
  "deployedLinkReferences": {}
}