{
  "_format": "hh-sol-artifact-1",
  "contractName": "UniqueAlphaDev",
  "sourceName": "contracts/UniqueAlphaDev.sol",
  "abi": [
    {
      "inputs": [
        {
          "internalType": "address",
          "name": "minter",
          "type": "address"
        }
      ],
      "stateMutability": "nonpayable",
      "type": "constructor"
    },
    {
      "anonymous": false,
      "inputs": [
        {
          "indexed": true,
          "internalType": "address",
          "name": "owner",
          "type": "address"
        },
        {
          "indexed": true,
          "internalType": "address",
          "name": "approved",
          "type": "address"
        },
        {
          "indexed": true,
          "internalType": "uint256",
          "name": "tokenId",
          "type": "uint256"
        }
      ],
      "name": "Approval",
      "type": "event"
    },
    {
      "anonymous": false,
      "inputs": [
        {
          "indexed": true,
          "internalType": "address",
          "name": "owner",
          "type": "address"
        },
        {
          "indexed": true,
          "internalType": "address",
          "name": "operator",
          "type": "address"
        },
        {
          "indexed": false,
          "internalType": "bool",
          "name": "approved",
          "type": "bool"
        }
      ],
      "name": "ApprovalForAll",
      "type": "event"
    },
    {
      "anonymous": false,
      "inputs": [
        {
          "indexed": true,
          "internalType": "bytes32",
          "name": "role",
          "type": "bytes32"
        },
        {
          "indexed": true,
          "internalType": "bytes32",
          "name": "previousAdminRole",
          "type": "bytes32"
        },
        {
          "indexed": true,
          "internalType": "bytes32",
          "name": "newAdminRole",
          "type": "bytes32"
        }
      ],
      "name": "RoleAdminChanged",
      "type": "event"
    },
    {
      "anonymous": false,
      "inputs": [
        {
          "indexed": true,
          "internalType": "bytes32",
          "name": "role",
          "type": "bytes32"
        },
        {
          "indexed": true,
          "internalType": "address",
          "name": "account",
          "type": "address"
        },
        {
          "indexed": true,
          "internalType": "address",
          "name": "sender",
          "type": "address"
        }
      ],
      "name": "RoleGranted",
      "type": "event"
    },
    {
      "anonymous": false,
      "inputs": [
        {
          "indexed": true,
          "internalType": "bytes32",
          "name": "role",
          "type": "bytes32"
        },
        {
          "indexed": true,
          "internalType": "address",
          "name": "account",
          "type": "address"
        },
        {
          "indexed": true,
          "internalType": "address",
          "name": "sender",
          "type": "address"
        }
      ],
      "name": "RoleRevoked",
      "type": "event"
    },
    {
      "anonymous": false,
      "inputs": [
        {
          "indexed": true,
          "internalType": "address",
          "name": "from",
          "type": "address"
        },
        {
          "indexed": true,
          "internalType": "address",
          "name": "to",
          "type": "address"
        },
        {
          "indexed": true,
          "internalType": "uint256",
          "name": "tokenId",
          "type": "uint256"
        }
      ],
      "name": "Transfer",
      "type": "event"
    },
    {
      "inputs": [],
      "name": "DEFAULT_ADMIN_ROLE",
      "outputs": [
        {
          "internalType": "bytes32",
          "name": "",
          "type": "bytes32"
        }
      ],
      "stateMutability": "view",
      "type": "function"
    },
    {
      "inputs": [],
      "name": "MINTER_ROLE",
      "outputs": [
        {
          "internalType": "bytes32",
          "name": "",
          "type": "bytes32"
        }
      ],
      "stateMutability": "view",
      "type": "function"
    },
    {
      "inputs": [
        {
          "internalType": "address",
          "name": "to",
          "type": "address"
        },
        {
          "internalType": "uint256",
          "name": "tokenId",
          "type": "uint256"
        }
      ],
      "name": "approve",
      "outputs": [],
      "stateMutability": "nonpayable",
      "type": "function"
    },
    {
      "inputs": [
        {
          "internalType": "address",
          "name": "owner",
          "type": "address"
        }
      ],
      "name": "balanceOf",
      "outputs": [
        {
          "internalType": "uint256",
          "name": "",
          "type": "uint256"
        }
      ],
      "stateMutability": "view",
      "type": "function"
    },
    {
      "inputs": [
        {
          "internalType": "uint256",
          "name": "tokenId",
          "type": "uint256"
        }
      ],
      "name": "getApproved",
      "outputs": [
        {
          "internalType": "address",
          "name": "",
          "type": "address"
        }
      ],
      "stateMutability": "view",
      "type": "function"
    },
    {
      "inputs": [],
      "name": "getChainID",
      "outputs": [
        {
          "internalType": "uint256",
          "name": "",
          "type": "uint256"
        }
      ],
      "stateMutability": "view",
      "type": "function"
    },
    {
      "inputs": [
        {
          "internalType": "bytes32",
          "name": "role",
          "type": "bytes32"
        }
      ],
      "name": "getRoleAdmin",
      "outputs": [
        {
          "internalType": "bytes32",
          "name": "",
          "type": "bytes32"
        }
      ],
      "stateMutability": "view",
      "type": "function"
    },
    {
      "inputs": [
        {
          "internalType": "bytes32",
          "name": "role",
          "type": "bytes32"
        },
        {
          "internalType": "address",
          "name": "account",
          "type": "address"
        }
      ],
      "name": "grantRole",
      "outputs": [],
      "stateMutability": "nonpayable",
      "type": "function"
    },
    {
      "inputs": [
        {
          "internalType": "bytes32",
          "name": "role",
          "type": "bytes32"
        },
        {
          "internalType": "address",
          "name": "account",
          "type": "address"
        }
      ],
      "name": "hasRole",
      "outputs": [
        {
          "internalType": "bool",
          "name": "",
          "type": "bool"
        }
      ],
      "stateMutability": "view",
      "type": "function"
    },
    {
      "inputs": [
        {
          "internalType": "address",
          "name": "owner",
          "type": "address"
        },
        {
          "internalType": "address",
          "name": "operator",
          "type": "address"
        }
      ],
      "name": "isApprovedForAll",
      "outputs": [
        {
          "internalType": "bool",
          "name": "",
          "type": "bool"
        }
      ],
      "stateMutability": "view",
      "type": "function"
    },
    {
      "inputs": [],
      "name": "name",
      "outputs": [
        {
          "internalType": "string",
          "name": "",
          "type": "string"
        }
      ],
      "stateMutability": "view",
      "type": "function"
    },
    {
      "inputs": [
        {
          "internalType": "uint256",
          "name": "tokenId",
          "type": "uint256"
        }
      ],
      "name": "ownerOf",
      "outputs": [
        {
          "internalType": "address",
          "name": "",
          "type": "address"
        }
      ],
      "stateMutability": "view",
      "type": "function"
    },
    {
      "inputs": [
        {
          "components": [
            {
              "internalType": "uint256",
              "name": "tokenId",
              "type": "uint256"
            },
            {
              "internalType": "bytes",
              "name": "signature",
              "type": "bytes"
            }
          ],
          "internalType": "struct UniqueAlphaDev.NFTVoucher",
          "name": "voucher",
          "type": "tuple"
        },
        {
          "internalType": "string",
          "name": "tokenURI",
          "type": "string"
        }
      ],
      "name": "redeem",
      "outputs": [
        {
          "internalType": "uint256",
          "name": "",
          "type": "uint256"
        }
      ],
      "stateMutability": "nonpayable",
      "type": "function"
    },
    {
      "inputs": [
        {
          "internalType": "bytes32",
          "name": "role",
          "type": "bytes32"
        },
        {
          "internalType": "address",
          "name": "account",
          "type": "address"
        }
      ],
      "name": "renounceRole",
      "outputs": [],
      "stateMutability": "nonpayable",
      "type": "function"
    },
    {
      "inputs": [
        {
          "internalType": "bytes32",
          "name": "role",
          "type": "bytes32"
        },
        {
          "internalType": "address",
          "name": "account",
          "type": "address"
        }
      ],
      "name": "revokeRole",
      "outputs": [],
      "stateMutability": "nonpayable",
      "type": "function"
    },
    {
      "inputs": [
        {
          "internalType": "address",
          "name": "from",
          "type": "address"
        },
        {
          "internalType": "address",
          "name": "to",
          "type": "address"
        },
        {
          "internalType": "uint256",
          "name": "tokenId",
          "type": "uint256"
        }
      ],
      "name": "safeTransferFrom",
      "outputs": [],
      "stateMutability": "nonpayable",
      "type": "function"
    },
    {
      "inputs": [
        {
          "internalType": "address",
          "name": "from",
          "type": "address"
        },
        {
          "internalType": "address",
          "name": "to",
          "type": "address"
        },
        {
          "internalType": "uint256",
          "name": "tokenId",
          "type": "uint256"
        },
        {
          "internalType": "bytes",
          "name": "_data",
          "type": "bytes"
        }
      ],
      "name": "safeTransferFrom",
      "outputs": [],
      "stateMutability": "nonpayable",
      "type": "function"
    },
    {
      "inputs": [
        {
          "internalType": "address",
          "name": "operator",
          "type": "address"
        },
        {
          "internalType": "bool",
          "name": "approved",
          "type": "bool"
        }
      ],
      "name": "setApprovalForAll",
      "outputs": [],
      "stateMutability": "nonpayable",
      "type": "function"
    },
    {
      "inputs": [
        {
          "internalType": "bytes4",
          "name": "interfaceId",
          "type": "bytes4"
        }
      ],
      "name": "supportsInterface",
      "outputs": [
        {
          "internalType": "bool",
          "name": "",
          "type": "bool"
        }
      ],
      "stateMutability": "view",
      "type": "function"
    },
    {
      "inputs": [],
      "name": "symbol",
      "outputs": [
        {
          "internalType": "string",
          "name": "",
          "type": "string"
        }
      ],
      "stateMutability": "view",
      "type": "function"
    },
    {
      "inputs": [
        {
          "internalType": "uint256",
          "name": "tokenId",
          "type": "uint256"
        }
      ],
      "name": "tokenURI",
      "outputs": [
        {
          "internalType": "string",
          "name": "",
          "type": "string"
        }
      ],
      "stateMutability": "view",
      "type": "function"
    },
    {
      "inputs": [
        {
          "internalType": "address",
          "name": "from",
          "type": "address"
        },
        {
          "internalType": "address",
          "name": "to",
          "type": "address"
        },
        {
          "internalType": "uint256",
          "name": "tokenId",
          "type": "uint256"
        }
      ],
      "name": "transferFrom",
      "outputs": [],
      "stateMutability": "nonpayable",
      "type": "function"
    }
  ],
  "bytecode": "0x6101406040523480156200001257600080fd5b50604051620049bd380380620049bd833981810160405281019062000038919062000500565b6040518060400160405280600e81526020017f556e69717565416c7068614465760000000000000000000000000000000000008152506040518060400160405280600181526020017f31000000000000000000000000000000000000000000000000000000000000008152506040518060400160405280600e81526020017f556e69717565416c7068614465760000000000000000000000000000000000008152506040518060400160405280600381526020017f5541440000000000000000000000000000000000000000000000000000000000815250816000908051906020019062000128929190620003e6565b50806001908051906020019062000141929190620003e6565b50505060008280519060200120905060008280519060200120905060007f8b73c3c69bb8fe3d512ecc4cf759cc79239f7b179b0ffacaa9a75d522b39400f90508260e081815250508161010081815250504660a08181525050620001ad8184846200022f60201b60201c565b608081815250503073ffffffffffffffffffffffffffffffffffffffff1660c08173ffffffffffffffffffffffffffffffffffffffff16815250508061012081815250505050505050620002287f9f2df0fed2c77648de5860a4cc508cd0818c85b8b8a1ab4ceeef8d981c8956a6826200026b60201b60201c565b506200063b565b600083838346306040516020016200024c95949392919062000579565b6040516020818303038152906040528051906020012090509392505050565b6200027d82826200028160201b60201c565b5050565b6200029382826200037360201b60201c565b6200036f5760016007600084815260200190815260200160002060000160008373ffffffffffffffffffffffffffffffffffffffff1673ffffffffffffffffffffffffffffffffffffffff16815260200190815260200160002060006101000a81548160ff02191690831515021790555062000314620003de60201b60201c565b73ffffffffffffffffffffffffffffffffffffffff168173ffffffffffffffffffffffffffffffffffffffff16837f2f8788117e7eff1d82e926ec794901d17c78024a50270940304540a733656f0d60405160405180910390a45b5050565b60006007600084815260200190815260200160002060000160008373ffffffffffffffffffffffffffffffffffffffff1673ffffffffffffffffffffffffffffffffffffffff16815260200190815260200160002060009054906101000a900460ff16905092915050565b600033905090565b828054620003f49062000605565b90600052602060002090601f01602090048101928262000418576000855562000464565b82601f106200043357805160ff191683800117855562000464565b8280016001018555821562000464579182015b828111156200046357825182559160200191906001019062000446565b5b50905062000473919062000477565b5090565b5b808211156200049257600081600090555060010162000478565b5090565b600080fd5b600073ffffffffffffffffffffffffffffffffffffffff82169050919050565b6000620004c8826200049b565b9050919050565b620004da81620004bb565b8114620004e657600080fd5b50565b600081519050620004fa81620004cf565b92915050565b60006020828403121562000519576200051862000496565b5b60006200052984828501620004e9565b91505092915050565b6000819050919050565b620005478162000532565b82525050565b6000819050919050565b62000562816200054d565b82525050565b6200057381620004bb565b82525050565b600060a0820190506200059060008301886200053c565b6200059f60208301876200053c565b620005ae60408301866200053c565b620005bd606083018562000557565b620005cc608083018462000568565b9695505050505050565b7f4e487b7100000000000000000000000000000000000000000000000000000000600052602260045260246000fd5b600060028204905060018216806200061e57607f821691505b60208210811415620006355762000634620005d6565b5b50919050565b60805160a05160c05160e05161010051610120516143326200068b600039600061252f015260006125710152600061255001526000612485015260006124db0152600061250401526143326000f3fe608060405234801561001057600080fd5b50600436106101425760003560e01c806370a08231116100b8578063ac47d4901161007c578063ac47d49014610387578063b88d4fde146103b7578063c87b56dd146103d3578063d539139314610403578063d547741f14610421578063e985e9c51461043d57610142565b806370a08231146102cf57806391d14854146102ff57806395d89b411461032f578063a217fddf1461034d578063a22cb4651461036b57610142565b8063248a9ca31161010a578063248a9ca3146101fd5780632f2ff15d1461022d57806336568abe1461024957806342842e0e14610265578063564b81ef146102815780636352211e1461029f57610142565b806301ffc9a71461014757806306fdde0314610177578063081812fc14610195578063095ea7b3146101c557806323b872dd146101e1575b600080fd5b610161600480360381019061015c9190612883565b61046d565b60405161016e91906128cb565b60405180910390f35b61017f61048f565b60405161018c919061297f565b60405180910390f35b6101af60048036038101906101aa91906129d7565b610521565b6040516101bc9190612a45565b60405180910390f35b6101df60048036038101906101da9190612a8c565b6105a6565b005b6101fb60048036038101906101f69190612acc565b6106be565b005b61021760048036038101906102129190612b55565b61071e565b6040516102249190612b91565b60405180910390f35b61024760048036038101906102429190612bac565b61073e565b005b610263600480360381019061025e9190612bac565b610767565b005b61027f600480360381019061027a9190612acc565b6107ea565b005b61028961080a565b6040516102969190612bfb565b60405180910390f35b6102b960048036038101906102b491906129d7565b610817565b6040516102c69190612a45565b60405180910390f35b6102e960048036038101906102e49190612c16565b6108c9565b6040516102f69190612bfb565b60405180910390f35b61031960048036038101906103149190612bac565b610981565b60405161032691906128cb565b60405180910390f35b6103376109ec565b604051610344919061297f565b60405180910390f35b610355610a7e565b6040516103629190612b91565b60405180910390f35b61038560048036038101906103809190612c6f565b610a85565b005b6103a1600480360381019061039c9190612e08565b610a9b565b6040516103ae9190612bfb565b60405180910390f35b6103d160048036038101906103cc9190612f21565b610b3c565b005b6103ed60048036038101906103e891906129d7565b610b9e565b6040516103fa919061297f565b60405180910390f35b61040b610cf0565b6040516104189190612b91565b60405180910390f35b61043b60048036038101906104369190612bac565b610d14565b005b61045760048036038101906104529190612fa4565b610d3d565b60405161046491906128cb565b60405180910390f35b600061047882610dd1565b80610488575061048782610eb3565b5b9050919050565b60606000805461049e90613013565b80601f01602080910402602001604051908101604052809291908181526020018280546104ca90613013565b80156105175780601f106104ec57610100808354040283529160200191610517565b820191906000526020600020905b8154815290600101906020018083116104fa57829003601f168201915b5050505050905090565b600061052c82610f2d565b61056b576040517f08c379a0000000000000000000000000000000000000000000000000000000008152600401610562906130b7565b60405180910390fd5b6004600083815260200190815260200160002060009054906101000a900473ffffffffffffffffffffffffffffffffffffffff169050919050565b60006105b182610817565b90508073ffffffffffffffffffffffffffffffffffffffff168373ffffffffffffffffffffffffffffffffffffffff161415610622576040517f08c379a000000000000000000000000000000000000000000000000000000000815260040161061990613149565b60405180910390fd5b8073ffffffffffffffffffffffffffffffffffffffff16610641610f99565b73ffffffffffffffffffffffffffffffffffffffff161480610670575061066f8161066a610f99565b610d3d565b5b6106af576040517f08c379a00000000000000000000000000000000000000000000000000000000081526004016106a6906131db565b60405180910390fd5b6106b98383610fa1565b505050565b6106cf6106c9610f99565b8261105a565b61070e576040517f08c379a00000000000000000000000000000000000000000000000000000000081526004016107059061326d565b60405180910390fd5b610719838383611138565b505050565b600060076000838152602001908152602001600020600101549050919050565b6107478261071e565b61075881610753610f99565b61139f565b610762838361143c565b505050565b61076f610f99565b73ffffffffffffffffffffffffffffffffffffffff168173ffffffffffffffffffffffffffffffffffffffff16146107dc576040517f08c379a00000000000000000000000000000000000000000000000000000000081526004016107d3906132ff565b60405180910390fd5b6107e6828261151d565b5050565b61080583838360405180602001604052806000815250610b3c565b505050565b6000804690508091505090565b6000806002600084815260200190815260200160002060009054906101000a900473ffffffffffffffffffffffffffffffffffffffff169050600073ffffffffffffffffffffffffffffffffffffffff168173ffffffffffffffffffffffffffffffffffffffff1614156108c0576040517f08c379a00000000000000000000000000000000000000000000000000000000081526004016108b790613391565b60405180910390fd5b80915050919050565b60008073ffffffffffffffffffffffffffffffffffffffff168273ffffffffffffffffffffffffffffffffffffffff16141561093a576040517f08c379a000000000000000000000000000000000000000000000000000000000815260040161093190613423565b60405180910390fd5b600360008373ffffffffffffffffffffffffffffffffffffffff1673ffffffffffffffffffffffffffffffffffffffff168152602001908152602001600020549050919050565b60006007600084815260200190815260200160002060000160008373ffffffffffffffffffffffffffffffffffffffff1673ffffffffffffffffffffffffffffffffffffffff16815260200190815260200160002060009054906101000a900460ff16905092915050565b6060600180546109fb90613013565b80601f0160208091040260200160405190810160405280929190818152602001828054610a2790613013565b8015610a745780601f10610a4957610100808354040283529160200191610a74565b820191906000526020600020905b815481529060010190602001808311610a5757829003601f168201915b5050505050905090565b6000801b81565b610a97610a90610f99565b83836115ff565b5050565b600080610aa78461176c565b9050610ad37f9f2df0fed2c77648de5860a4cc508cd0818c85b8b8a1ab4ceeef8d981c8956a682610981565b610b12576040517f08c379a0000000000000000000000000000000000000000000000000000000008152600401610b09906134b5565b60405180910390fd5b610b203385600001356117de565b610b2e8460000135846117fc565b836000013591505092915050565b610b4d610b47610f99565b8361105a565b610b8c576040517f08c379a0000000000000000000000000000000000000000000000000000000008152600401610b839061326d565b60405180910390fd5b610b9884848484611870565b50505050565b6060610ba982610f2d565b610be8576040517f08c379a0000000000000000000000000000000000000000000000000000000008152600401610bdf90613547565b60405180910390fd5b6000600660008481526020019081526020016000208054610c0890613013565b80601f0160208091040260200160405190810160405280929190818152602001828054610c3490613013565b8015610c815780601f10610c5657610100808354040283529160200191610c81565b820191906000526020600020905b815481529060010190602001808311610c6457829003601f168201915b505050505090506000610c926118cc565b9050600081511415610ca8578192505050610ceb565b600082511115610cdd578082604051602001610cc59291906135a3565b60405160208183030381529060405292505050610ceb565b610ce6846118e3565b925050505b919050565b7f9f2df0fed2c77648de5860a4cc508cd0818c85b8b8a1ab4ceeef8d981c8956a681565b610d1d8261071e565b610d2e81610d29610f99565b61139f565b610d38838361151d565b505050565b6000600560008473ffffffffffffffffffffffffffffffffffffffff1673ffffffffffffffffffffffffffffffffffffffff16815260200190815260200160002060008373ffffffffffffffffffffffffffffffffffffffff1673ffffffffffffffffffffffffffffffffffffffff16815260200190815260200160002060009054906101000a900460ff16905092915050565b60007f80ac58cd000000000000000000000000000000000000000000000000000000007bffffffffffffffffffffffffffffffffffffffffffffffffffffffff1916827bffffffffffffffffffffffffffffffffffffffffffffffffffffffff19161480610e9c57507f5b5e139f000000000000000000000000000000000000000000000000000000007bffffffffffffffffffffffffffffffffffffffffffffffffffffffff1916827bffffffffffffffffffffffffffffffffffffffffffffffffffffffff1916145b80610eac5750610eab8261198a565b5b9050919050565b60007f7965db0b000000000000000000000000000000000000000000000000000000007bffffffffffffffffffffffffffffffffffffffffffffffffffffffff1916827bffffffffffffffffffffffffffffffffffffffffffffffffffffffff19161480610f265750610f2582610dd1565b5b9050919050565b60008073ffffffffffffffffffffffffffffffffffffffff166002600084815260200190815260200160002060009054906101000a900473ffffffffffffffffffffffffffffffffffffffff1673ffffffffffffffffffffffffffffffffffffffff1614159050919050565b600033905090565b816004600083815260200190815260200160002060006101000a81548173ffffffffffffffffffffffffffffffffffffffff021916908373ffffffffffffffffffffffffffffffffffffffff160217905550808273ffffffffffffffffffffffffffffffffffffffff1661101483610817565b73ffffffffffffffffffffffffffffffffffffffff167f8c5be1e5ebec7d5bd14f71427d1e84f3dd0314c0f7b2291e5b200ac8c7c3b92560405160405180910390a45050565b600061106582610f2d565b6110a4576040517f08c379a000000000000000000000000000000000000000000000000000000000815260040161109b90613639565b60405180910390fd5b60006110af83610817565b90508073ffffffffffffffffffffffffffffffffffffffff168473ffffffffffffffffffffffffffffffffffffffff16148061111e57508373ffffffffffffffffffffffffffffffffffffffff1661110684610521565b73ffffffffffffffffffffffffffffffffffffffff16145b8061112f575061112e8185610d3d565b5b91505092915050565b8273ffffffffffffffffffffffffffffffffffffffff1661115882610817565b73ffffffffffffffffffffffffffffffffffffffff16146111ae576040517f08c379a00000000000000000000000000000000000000000000000000000000081526004016111a5906136cb565b60405180910390fd5b600073ffffffffffffffffffffffffffffffffffffffff168273ffffffffffffffffffffffffffffffffffffffff16141561121e576040517f08c379a00000000000000000000000000000000000000000000000000000000081526004016112159061375d565b60405180910390fd5b6112298383836119f4565b611234600082610fa1565b6001600360008573ffffffffffffffffffffffffffffffffffffffff1673ffffffffffffffffffffffffffffffffffffffff168152602001908152602001600020600082825461128491906137ac565b925050819055506001600360008473ffffffffffffffffffffffffffffffffffffffff1673ffffffffffffffffffffffffffffffffffffffff16815260200190815260200160002060008282546112db91906137e0565b92505081905550816002600083815260200190815260200160002060006101000a81548173ffffffffffffffffffffffffffffffffffffffff021916908373ffffffffffffffffffffffffffffffffffffffff160217905550808273ffffffffffffffffffffffffffffffffffffffff168473ffffffffffffffffffffffffffffffffffffffff167fddf252ad1be2c89b69c2b068fc378daa952ba7f163c4a11628f55a4df523b3ef60405160405180910390a461139a8383836119f9565b505050565b6113a98282610981565b611438576113ce8173ffffffffffffffffffffffffffffffffffffffff1660146119fe565b6113dc8360001c60206119fe565b6040516020016113ed9291906138ce565b6040516020818303038152906040526040517f08c379a000000000000000000000000000000000000000000000000000000000815260040161142f919061297f565b60405180910390fd5b5050565b6114468282610981565b6115195760016007600084815260200190815260200160002060000160008373ffffffffffffffffffffffffffffffffffffffff1673ffffffffffffffffffffffffffffffffffffffff16815260200190815260200160002060006101000a81548160ff0219169083151502179055506114be610f99565b73ffffffffffffffffffffffffffffffffffffffff168173ffffffffffffffffffffffffffffffffffffffff16837f2f8788117e7eff1d82e926ec794901d17c78024a50270940304540a733656f0d60405160405180910390a45b5050565b6115278282610981565b156115fb5760006007600084815260200190815260200160002060000160008373ffffffffffffffffffffffffffffffffffffffff1673ffffffffffffffffffffffffffffffffffffffff16815260200190815260200160002060006101000a81548160ff0219169083151502179055506115a0610f99565b73ffffffffffffffffffffffffffffffffffffffff168173ffffffffffffffffffffffffffffffffffffffff16837ff6391f5c32d9c69d2a47ea670b442974b53935d1edc7fd64eb21e047a839171b60405160405180910390a45b5050565b8173ffffffffffffffffffffffffffffffffffffffff168373ffffffffffffffffffffffffffffffffffffffff16141561166e576040517f08c379a000000000000000000000000000000000000000000000000000000000815260040161166590613954565b60405180910390fd5b80600560008573ffffffffffffffffffffffffffffffffffffffff1673ffffffffffffffffffffffffffffffffffffffff16815260200190815260200160002060008473ffffffffffffffffffffffffffffffffffffffff1673ffffffffffffffffffffffffffffffffffffffff16815260200190815260200160002060006101000a81548160ff0219169083151502179055508173ffffffffffffffffffffffffffffffffffffffff168373ffffffffffffffffffffffffffffffffffffffff167f17307eab39ab6107e8899845ad3d59bd9653f200f220920489ca2b5937696c318360405161175f91906128cb565b60405180910390a3505050565b60008061177883611c3a565b90506117d68184806020019061178e9190613983565b8080601f016020809104026020016040519081016040528093929190818152602001838380828437600081840152601f19601f82011690508083019250505050505050611c98565b915050919050565b6117f8828260405180602001604052806000815250611cbf565b5050565b61180582610f2d565b611844576040517f08c379a000000000000000000000000000000000000000000000000000000000815260040161183b90613a58565b60405180910390fd5b8060066000848152602001908152602001600020908051906020019061186b929190612774565b505050565b61187b848484611138565b61188784848484611d1a565b6118c6576040517f08c379a00000000000000000000000000000000000000000000000000000000081526004016118bd90613aea565b60405180910390fd5b50505050565b606060405180602001604052806000815250905090565b60606118ee82610f2d565b61192d576040517f08c379a000000000000000000000000000000000000000000000000000000000815260040161192490613b7c565b60405180910390fd5b60006119376118cc565b905060008151116119575760405180602001604052806000815250611982565b8061196184611eb1565b6040516020016119729291906135a3565b6040516020818303038152906040525b915050919050565b60007f01ffc9a7000000000000000000000000000000000000000000000000000000007bffffffffffffffffffffffffffffffffffffffffffffffffffffffff1916827bffffffffffffffffffffffffffffffffffffffffffffffffffffffff1916149050919050565b505050565b505050565b606060006002836002611a119190613b9c565b611a1b91906137e0565b67ffffffffffffffff811115611a3457611a33612cdd565b5b6040519080825280601f01601f191660200182016040528015611a665781602001600182028036833780820191505090505b5090507f300000000000000000000000000000000000000000000000000000000000000081600081518110611a9e57611a9d613bf6565b5b60200101907effffffffffffffffffffffffffffffffffffffffffffffffffffffffffffff1916908160001a9053507f780000000000000000000000000000000000000000000000000000000000000081600181518110611b0257611b01613bf6565b5b60200101907effffffffffffffffffffffffffffffffffffffffffffffffffffffffffffff1916908160001a90535060006001846002611b429190613b9c565b611b4c91906137e0565b90505b6001811115611bec577f3031323334353637383961626364656600000000000000000000000000000000600f861660108110611b8e57611b8d613bf6565b5b1a60f81b828281518110611ba557611ba4613bf6565b5b60200101907effffffffffffffffffffffffffffffffffffffffffffffffffffffffffffff1916908160001a905350600485901c945080611be590613c25565b9050611b4f565b5060008414611c30576040517f08c379a0000000000000000000000000000000000000000000000000000000008152600401611c2790613c9b565b60405180910390fd5b8091505092915050565b6000611c917faa5ac5e8b3947cfdfb46b0ea715a97161b414b7217ba36b5c047c5968b20b0bd8360000135604051602001611c76929190613cbb565b60405160208183030381529060405280519060200120612012565b9050919050565b6000806000611ca7858561202c565b91509150611cb4816120af565b819250505092915050565b611cc98383612284565b611cd66000848484611d1a565b611d15576040517f08c379a0000000000000000000000000000000000000000000000000000000008152600401611d0c90613aea565b60405180910390fd5b505050565b6000611d3b8473ffffffffffffffffffffffffffffffffffffffff1661245e565b15611ea4578373ffffffffffffffffffffffffffffffffffffffff1663150b7a02611d64610f99565b8786866040518563ffffffff1660e01b8152600401611d869493929190613d39565b602060405180830381600087803b158015611da057600080fd5b505af1925050508015611dd157506040513d601f19601f82011682018060405250810190611dce9190613d9a565b60015b611e54573d8060008114611e01576040519150601f19603f3d011682016040523d82523d6000602084013e611e06565b606091505b50600081511415611e4c576040517f08c379a0000000000000000000000000000000000000000000000000000000008152600401611e4390613aea565b60405180910390fd5b805181602001fd5b63150b7a0260e01b7bffffffffffffffffffffffffffffffffffffffffffffffffffffffff1916817bffffffffffffffffffffffffffffffffffffffffffffffffffffffff191614915050611ea9565b600190505b949350505050565b60606000821415611ef9576040518060400160405280600181526020017f3000000000000000000000000000000000000000000000000000000000000000815250905061200d565b600082905060005b60008214611f2b578080611f1490613dc7565b915050600a82611f249190613e3f565b9150611f01565b60008167ffffffffffffffff811115611f4757611f46612cdd565b5b6040519080825280601f01601f191660200182016040528015611f795781602001600182028036833780820191505090505b5090505b6000851461200657600182611f9291906137ac565b9150600a85611fa19190613e70565b6030611fad91906137e0565b60f81b818381518110611fc357611fc2613bf6565b5b60200101907effffffffffffffffffffffffffffffffffffffffffffffffffffffffffffff1916908160001a905350600a85611fff9190613e3f565b9450611f7d565b8093505050505b919050565b600061202561201f612481565b8361259b565b9050919050565b60008060418351141561206e5760008060006020860151925060408601519150606086015160001a9050612062878285856125ce565b945094505050506120a8565b60408351141561209f5760008060208501519150604085015190506120948683836126db565b9350935050506120a8565b60006002915091505b9250929050565b600060048111156120c3576120c2613ea1565b5b8160048111156120d6576120d5613ea1565b5b14156120e157612281565b600160048111156120f5576120f4613ea1565b5b81600481111561210857612107613ea1565b5b1415612149576040517f08c379a000000000000000000000000000000000000000000000000000000000815260040161214090613f1c565b60405180910390fd5b6002600481111561215d5761215c613ea1565b5b8160048111156121705761216f613ea1565b5b14156121b1576040517f08c379a00000000000000000000000000000000000000000000000000000000081526004016121a890613f88565b60405180910390fd5b600360048111156121c5576121c4613ea1565b5b8160048111156121d8576121d7613ea1565b5b1415612219576040517f08c379a00000000000000000000000000000000000000000000000000000000081526004016122109061401a565b60405180910390fd5b60048081111561222c5761222b613ea1565b5b81600481111561223f5761223e613ea1565b5b1415612280576040517f08c379a0000000000000000000000000000000000000000000000000000000008152600401612277906140ac565b60405180910390fd5b5b50565b600073ffffffffffffffffffffffffffffffffffffffff168273ffffffffffffffffffffffffffffffffffffffff1614156122f4576040517f08c379a00000000000000000000000000000000000000000000000000000000081526004016122eb90614118565b60405180910390fd5b6122fd81610f2d565b1561233d576040517f08c379a000000000000000000000000000000000000000000000000000000000815260040161233490614184565b60405180910390fd5b612349600083836119f4565b6001600360008473ffffffffffffffffffffffffffffffffffffffff1673ffffffffffffffffffffffffffffffffffffffff168152602001908152602001600020600082825461239991906137e0565b92505081905550816002600083815260200190815260200160002060006101000a81548173ffffffffffffffffffffffffffffffffffffffff021916908373ffffffffffffffffffffffffffffffffffffffff160217905550808273ffffffffffffffffffffffffffffffffffffffff16600073ffffffffffffffffffffffffffffffffffffffff167fddf252ad1be2c89b69c2b068fc378daa952ba7f163c4a11628f55a4df523b3ef60405160405180910390a461245a600083836119f9565b5050565b6000808273ffffffffffffffffffffffffffffffffffffffff163b119050919050565b60007f000000000000000000000000000000000000000000000000000000000000000073ffffffffffffffffffffffffffffffffffffffff163073ffffffffffffffffffffffffffffffffffffffff161480156124fd57507f000000000000000000000000000000000000000000000000000000000000000046145b1561252a577f00000000000000000000000000000000000000000000000000000000000000009050612598565b6125957f00000000000000000000000000000000000000000000000000000000000000007f00000000000000000000000000000000000000000000000000000000000000007f000000000000000000000000000000000000000000000000000000000000000061273a565b90505b90565b600082826040516020016125b0929190614211565b60405160208183030381529060405280519060200120905092915050565b6000807f7fffffffffffffffffffffffffffffff5d576e7357a4501ddfe92f46681b20a08360001c11156126095760006003915091506126d2565b601b8560ff16141580156126215750601c8560ff1614155b156126335760006004915091506126d2565b6000600187878787604051600081526020016040526040516126589493929190614264565b6020604051602081039080840390855afa15801561267a573d6000803e3d6000fd5b505050602060405103519050600073ffffffffffffffffffffffffffffffffffffffff168173ffffffffffffffffffffffffffffffffffffffff1614156126c9576000600192509250506126d2565b80600092509250505b94509492505050565b60008060007f7fffffffffffffffffffffffffffffffffffffffffffffffffffffffffffffff60001b841690506000601b60ff8660001c901c61271e91906137e0565b905061272c878288856125ce565b935093505050935093915050565b600083838346306040516020016127559594939291906142a9565b6040516020818303038152906040528051906020012090509392505050565b82805461278090613013565b90600052602060002090601f0160209004810192826127a257600085556127e9565b82601f106127bb57805160ff19168380011785556127e9565b828001600101855582156127e9579182015b828111156127e85782518255916020019190600101906127cd565b5b5090506127f691906127fa565b5090565b5b808211156128135760008160009055506001016127fb565b5090565b6000604051905090565b600080fd5b600080fd5b60007fffffffff0000000000000000000000000000000000000000000000000000000082169050919050565b6128608161282b565b811461286b57600080fd5b50565b60008135905061287d81612857565b92915050565b60006020828403121561289957612898612821565b5b60006128a78482850161286e565b91505092915050565b60008115159050919050565b6128c5816128b0565b82525050565b60006020820190506128e060008301846128bc565b92915050565b600081519050919050565b600082825260208201905092915050565b60005b83811015612920578082015181840152602081019050612905565b8381111561292f576000848401525b50505050565b6000601f19601f8301169050919050565b6000612951826128e6565b61295b81856128f1565b935061296b818560208601612902565b61297481612935565b840191505092915050565b600060208201905081810360008301526129998184612946565b905092915050565b6000819050919050565b6129b4816129a1565b81146129bf57600080fd5b50565b6000813590506129d1816129ab565b92915050565b6000602082840312156129ed576129ec612821565b5b60006129fb848285016129c2565b91505092915050565b600073ffffffffffffffffffffffffffffffffffffffff82169050919050565b6000612a2f82612a04565b9050919050565b612a3f81612a24565b82525050565b6000602082019050612a5a6000830184612a36565b92915050565b612a6981612a24565b8114612a7457600080fd5b50565b600081359050612a8681612a60565b92915050565b60008060408385031215612aa357612aa2612821565b5b6000612ab185828601612a77565b9250506020612ac2858286016129c2565b9150509250929050565b600080600060608486031215612ae557612ae4612821565b5b6000612af386828701612a77565b9350506020612b0486828701612a77565b9250506040612b15868287016129c2565b9150509250925092565b6000819050919050565b612b3281612b1f565b8114612b3d57600080fd5b50565b600081359050612b4f81612b29565b92915050565b600060208284031215612b6b57612b6a612821565b5b6000612b7984828501612b40565b91505092915050565b612b8b81612b1f565b82525050565b6000602082019050612ba66000830184612b82565b92915050565b60008060408385031215612bc357612bc2612821565b5b6000612bd185828601612b40565b9250506020612be285828601612a77565b9150509250929050565b612bf5816129a1565b82525050565b6000602082019050612c106000830184612bec565b92915050565b600060208284031215612c2c57612c2b612821565b5b6000612c3a84828501612a77565b91505092915050565b612c4c816128b0565b8114612c5757600080fd5b50565b600081359050612c6981612c43565b92915050565b60008060408385031215612c8657612c85612821565b5b6000612c9485828601612a77565b9250506020612ca585828601612c5a565b9150509250929050565b600080fd5b600060408284031215612cca57612cc9612caf565b5b81905092915050565b600080fd5b600080fd5b7f4e487b7100000000000000000000000000000000000000000000000000000000600052604160045260246000fd5b612d1582612935565b810181811067ffffffffffffffff82111715612d3457612d33612cdd565b5b80604052505050565b6000612d47612817565b9050612d538282612d0c565b919050565b600067ffffffffffffffff821115612d7357612d72612cdd565b5b612d7c82612935565b9050602081019050919050565b82818337600083830152505050565b6000612dab612da684612d58565b612d3d565b905082815260208101848484011115612dc757612dc6612cd8565b5b612dd2848285612d89565b509392505050565b600082601f830112612def57612dee612cd3565b5b8135612dff848260208601612d98565b91505092915050565b60008060408385031215612e1f57612e1e612821565b5b600083013567ffffffffffffffff811115612e3d57612e3c612826565b5b612e4985828601612cb4565b925050602083013567ffffffffffffffff811115612e6a57612e69612826565b5b612e7685828601612dda565b9150509250929050565b600067ffffffffffffffff821115612e9b57612e9a612cdd565b5b612ea482612935565b9050602081019050919050565b6000612ec4612ebf84612e80565b612d3d565b905082815260208101848484011115612ee057612edf612cd8565b5b612eeb848285612d89565b509392505050565b600082601f830112612f0857612f07612cd3565b5b8135612f18848260208601612eb1565b91505092915050565b60008060008060808587031215612f3b57612f3a612821565b5b6000612f4987828801612a77565b9450506020612f5a87828801612a77565b9350506040612f6b878288016129c2565b925050606085013567ffffffffffffffff811115612f8c57612f8b612826565b5b612f9887828801612ef3565b91505092959194509250565b60008060408385031215612fbb57612fba612821565b5b6000612fc985828601612a77565b9250506020612fda85828601612a77565b9150509250929050565b7f4e487b7100000000000000000000000000000000000000000000000000000000600052602260045260246000fd5b6000600282049050600182168061302b57607f821691505b6020821081141561303f5761303e612fe4565b5b50919050565b7f4552433732313a20617070726f76656420717565727920666f72206e6f6e657860008201527f697374656e7420746f6b656e0000000000000000000000000000000000000000602082015250565b60006130a1602c836128f1565b91506130ac82613045565b604082019050919050565b600060208201905081810360008301526130d081613094565b9050919050565b7f4552433732313a20617070726f76616c20746f2063757272656e74206f776e6560008201527f7200000000000000000000000000000000000000000000000000000000000000602082015250565b60006131336021836128f1565b915061313e826130d7565b604082019050919050565b6000602082019050818103600083015261316281613126565b9050919050565b7f4552433732313a20617070726f76652063616c6c6572206973206e6f74206f7760008201527f6e6572206e6f7220617070726f76656420666f7220616c6c0000000000000000602082015250565b60006131c56038836128f1565b91506131d082613169565b604082019050919050565b600060208201905081810360008301526131f4816131b8565b9050919050565b7f4552433732313a207472616e736665722063616c6c6572206973206e6f74206f60008201527f776e6572206e6f7220617070726f766564000000000000000000000000000000602082015250565b60006132576031836128f1565b9150613262826131fb565b604082019050919050565b600060208201905081810360008301526132868161324a565b9050919050565b7f416363657373436f6e74726f6c3a2063616e206f6e6c792072656e6f756e636560008201527f20726f6c657320666f722073656c660000000000000000000000000000000000602082015250565b60006132e9602f836128f1565b91506132f48261328d565b604082019050919050565b60006020820190508181036000830152613318816132dc565b9050919050565b7f4552433732313a206f776e657220717565727920666f72206e6f6e657869737460008201527f656e7420746f6b656e0000000000000000000000000000000000000000000000602082015250565b600061337b6029836128f1565b91506133868261331f565b604082019050919050565b600060208201905081810360008301526133aa8161336e565b9050919050565b7f4552433732313a2062616c616e636520717565727920666f7220746865207a6560008201527f726f206164647265737300000000000000000000000000000000000000000000602082015250565b600061340d602a836128f1565b9150613418826133b1565b604082019050919050565b6000602082019050818103600083015261343c81613400565b9050919050565b7f5369676e617475726520696e76616c6964206f7220756e617574686f72697a6560008201527f6400000000000000000000000000000000000000000000000000000000000000602082015250565b600061349f6021836128f1565b91506134aa82613443565b604082019050919050565b600060208201905081810360008301526134ce81613492565b9050919050565b7f45524337323155524953746f726167653a2055524920717565727920666f722060008201527f6e6f6e6578697374656e7420746f6b656e000000000000000000000000000000602082015250565b60006135316031836128f1565b915061353c826134d5565b604082019050919050565b6000602082019050818103600083015261356081613524565b9050919050565b600081905092915050565b600061357d826128e6565b6135878185613567565b9350613597818560208601612902565b80840191505092915050565b60006135af8285613572565b91506135bb8284613572565b91508190509392505050565b7f4552433732313a206f70657261746f7220717565727920666f72206e6f6e657860008201527f697374656e7420746f6b656e0000000000000000000000000000000000000000602082015250565b6000613623602c836128f1565b915061362e826135c7565b604082019050919050565b6000602082019050818103600083015261365281613616565b9050919050565b7f4552433732313a207472616e736665722066726f6d20696e636f72726563742060008201527f6f776e6572000000000000000000000000000000000000000000000000000000602082015250565b60006136b56025836128f1565b91506136c082613659565b604082019050919050565b600060208201905081810360008301526136e4816136a8565b9050919050565b7f4552433732313a207472616e7366657220746f20746865207a65726f2061646460008201527f7265737300000000000000000000000000000000000000000000000000000000602082015250565b60006137476024836128f1565b9150613752826136eb565b604082019050919050565b600060208201905081810360008301526137768161373a565b9050919050565b7f4e487b7100000000000000000000000000000000000000000000000000000000600052601160045260246000fd5b60006137b7826129a1565b91506137c2836129a1565b9250828210156137d5576137d461377d565b5b828203905092915050565b60006137eb826129a1565b91506137f6836129a1565b9250827fffffffffffffffffffffffffffffffffffffffffffffffffffffffffffffffff0382111561382b5761382a61377d565b5b828201905092915050565b7f416363657373436f6e74726f6c3a206163636f756e7420000000000000000000600082015250565b600061386c601783613567565b915061387782613836565b601782019050919050565b7f206973206d697373696e6720726f6c6520000000000000000000000000000000600082015250565b60006138b8601183613567565b91506138c382613882565b601182019050919050565b60006138d98261385f565b91506138e58285613572565b91506138f0826138ab565b91506138fc8284613572565b91508190509392505050565b7f4552433732313a20617070726f766520746f2063616c6c657200000000000000600082015250565b600061393e6019836128f1565b915061394982613908565b602082019050919050565b6000602082019050818103600083015261396d81613931565b9050919050565b600080fd5b600080fd5b600080fd5b600080833560016020038436030381126139a05761399f613974565b5b80840192508235915067ffffffffffffffff8211156139c2576139c1613979565b5b6020830192506001820236038313156139de576139dd61397e565b5b509250929050565b7f45524337323155524953746f726167653a2055524920736574206f66206e6f6e60008201527f6578697374656e7420746f6b656e000000000000000000000000000000000000602082015250565b6000613a42602e836128f1565b9150613a4d826139e6565b604082019050919050565b60006020820190508181036000830152613a7181613a35565b9050919050565b7f4552433732313a207472616e7366657220746f206e6f6e20455243373231526560008201527f63656976657220696d706c656d656e7465720000000000000000000000000000602082015250565b6000613ad46032836128f1565b9150613adf82613a78565b604082019050919050565b60006020820190508181036000830152613b0381613ac7565b9050919050565b7f4552433732314d657461646174613a2055524920717565727920666f72206e6f60008201527f6e6578697374656e7420746f6b656e0000000000000000000000000000000000602082015250565b6000613b66602f836128f1565b9150613b7182613b0a565b604082019050919050565b60006020820190508181036000830152613b9581613b59565b9050919050565b6000613ba7826129a1565b9150613bb2836129a1565b9250817fffffffffffffffffffffffffffffffffffffffffffffffffffffffffffffffff0483118215151615613beb57613bea61377d565b5b828202905092915050565b7f4e487b7100000000000000000000000000000000000000000000000000000000600052603260045260246000fd5b6000613c30826129a1565b91506000821415613c4457613c4361377d565b5b600182039050919050565b7f537472696e67733a20686578206c656e67746820696e73756666696369656e74600082015250565b6000613c856020836128f1565b9150613c9082613c4f565b602082019050919050565b60006020820190508181036000830152613cb481613c78565b9050919050565b6000604082019050613cd06000830185612b82565b613cdd6020830184612bec565b9392505050565b600081519050919050565b600082825260208201905092915050565b6000613d0b82613ce4565b613d158185613cef565b9350613d25818560208601612902565b613d2e81612935565b840191505092915050565b6000608082019050613d4e6000830187612a36565b613d5b6020830186612a36565b613d686040830185612bec565b8181036060830152613d7a8184613d00565b905095945050505050565b600081519050613d9481612857565b92915050565b600060208284031215613db057613daf612821565b5b6000613dbe84828501613d85565b91505092915050565b6000613dd2826129a1565b91507fffffffffffffffffffffffffffffffffffffffffffffffffffffffffffffffff821415613e0557613e0461377d565b5b600182019050919050565b7f4e487b7100000000000000000000000000000000000000000000000000000000600052601260045260246000fd5b6000613e4a826129a1565b9150613e55836129a1565b925082613e6557613e64613e10565b5b828204905092915050565b6000613e7b826129a1565b9150613e86836129a1565b925082613e9657613e95613e10565b5b828206905092915050565b7f4e487b7100000000000000000000000000000000000000000000000000000000600052602160045260246000fd5b7f45434453413a20696e76616c6964207369676e61747572650000000000000000600082015250565b6000613f066018836128f1565b9150613f1182613ed0565b602082019050919050565b60006020820190508181036000830152613f3581613ef9565b9050919050565b7f45434453413a20696e76616c6964207369676e6174757265206c656e67746800600082015250565b6000613f72601f836128f1565b9150613f7d82613f3c565b602082019050919050565b60006020820190508181036000830152613fa181613f65565b9050919050565b7f45434453413a20696e76616c6964207369676e6174757265202773272076616c60008201527f7565000000000000000000000000000000000000000000000000000000000000602082015250565b60006140046022836128f1565b915061400f82613fa8565b604082019050919050565b6000602082019050818103600083015261403381613ff7565b9050919050565b7f45434453413a20696e76616c6964207369676e6174757265202776272076616c60008201527f7565000000000000000000000000000000000000000000000000000000000000602082015250565b60006140966022836128f1565b91506140a18261403a565b604082019050919050565b600060208201905081810360008301526140c581614089565b9050919050565b7f4552433732313a206d696e7420746f20746865207a65726f2061646472657373600082015250565b60006141026020836128f1565b915061410d826140cc565b602082019050919050565b60006020820190508181036000830152614131816140f5565b9050919050565b7f4552433732313a20746f6b656e20616c7265616479206d696e74656400000000600082015250565b600061416e601c836128f1565b915061417982614138565b602082019050919050565b6000602082019050818103600083015261419d81614161565b9050919050565b7f1901000000000000000000000000000000000000000000000000000000000000600082015250565b60006141da600283613567565b91506141e5826141a4565b600282019050919050565b6000819050919050565b61420b61420682612b1f565b6141f0565b82525050565b600061421c826141cd565b915061422882856141fa565b60208201915061423882846141fa565b6020820191508190509392505050565b600060ff82169050919050565b61425e81614248565b82525050565b60006080820190506142796000830187612b82565b6142866020830186614255565b6142936040830185612b82565b6142a06060830184612b82565b95945050505050565b600060a0820190506142be6000830188612b82565b6142cb6020830187612b82565b6142d86040830186612b82565b6142e56060830185612bec565b6142f26080830184612a36565b969550505050505056fea26469706673582212205591798a8bf3157ad963708354e337c85be4c5f1b824283eaa291ae5cbeffc3d64736f6c63430008090033",
  "linkReferences": {},
  "deployedLinkReferences": {}
}