{
  "_format": "hh-sol-artifact-1",
  "contractName": "UniqueDev",
  "sourceName": "contracts/UniqueDev.sol",
  "abi": [
    {
      "inputs": [
        {
          "internalType": "address",
          "name": "minter",
          "type": "address"
        }
      ],
      "stateMutability": "nonpayable",
      "type": "constructor"
    },
    {
      "anonymous": false,
      "inputs": [
        {
          "indexed": true,
          "internalType": "address",
          "name": "owner",
          "type": "address"
        },
        {
          "indexed": true,
          "internalType": "address",
          "name": "approved",
          "type": "address"
        },
        {
          "indexed": true,
          "internalType": "uint256",
          "name": "tokenId",
          "type": "uint256"
        }
      ],
      "name": "Approval",
      "type": "event"
    },
    {
      "anonymous": false,
      "inputs": [
        {
          "indexed": true,
          "internalType": "address",
          "name": "owner",
          "type": "address"
        },
        {
          "indexed": true,
          "internalType": "address",
          "name": "operator",
          "type": "address"
        },
        {
          "indexed": false,
          "internalType": "bool",
          "name": "approved",
          "type": "bool"
        }
      ],
      "name": "ApprovalForAll",
      "type": "event"
    },
    {
      "anonymous": false,
      "inputs": [
        {
          "indexed": true,
          "internalType": "bytes32",
          "name": "role",
          "type": "bytes32"
        },
        {
          "indexed": true,
          "internalType": "bytes32",
          "name": "previousAdminRole",
          "type": "bytes32"
        },
        {
          "indexed": true,
          "internalType": "bytes32",
          "name": "newAdminRole",
          "type": "bytes32"
        }
      ],
      "name": "RoleAdminChanged",
      "type": "event"
    },
    {
      "anonymous": false,
      "inputs": [
        {
          "indexed": true,
          "internalType": "bytes32",
          "name": "role",
          "type": "bytes32"
        },
        {
          "indexed": true,
          "internalType": "address",
          "name": "account",
          "type": "address"
        },
        {
          "indexed": true,
          "internalType": "address",
          "name": "sender",
          "type": "address"
        }
      ],
      "name": "RoleGranted",
      "type": "event"
    },
    {
      "anonymous": false,
      "inputs": [
        {
          "indexed": true,
          "internalType": "bytes32",
          "name": "role",
          "type": "bytes32"
        },
        {
          "indexed": true,
          "internalType": "address",
          "name": "account",
          "type": "address"
        },
        {
          "indexed": true,
          "internalType": "address",
          "name": "sender",
          "type": "address"
        }
      ],
      "name": "RoleRevoked",
      "type": "event"
    },
    {
      "anonymous": false,
      "inputs": [
        {
          "indexed": true,
          "internalType": "address",
          "name": "from",
          "type": "address"
        },
        {
          "indexed": true,
          "internalType": "address",
          "name": "to",
          "type": "address"
        },
        {
          "indexed": true,
          "internalType": "uint256",
          "name": "tokenId",
          "type": "uint256"
        }
      ],
      "name": "Transfer",
      "type": "event"
    },
    {
      "inputs": [],
      "name": "DEFAULT_ADMIN_ROLE",
      "outputs": [
        {
          "internalType": "bytes32",
          "name": "",
          "type": "bytes32"
        }
      ],
      "stateMutability": "view",
      "type": "function"
    },
    {
      "inputs": [],
      "name": "MINTER_ROLE",
      "outputs": [
        {
          "internalType": "bytes32",
          "name": "",
          "type": "bytes32"
        }
      ],
      "stateMutability": "view",
      "type": "function"
    },
    {
      "inputs": [
        {
          "internalType": "address",
          "name": "to",
          "type": "address"
        },
        {
          "internalType": "uint256",
          "name": "tokenId",
          "type": "uint256"
        }
      ],
      "name": "approve",
      "outputs": [],
      "stateMutability": "nonpayable",
      "type": "function"
    },
    {
      "inputs": [
        {
          "internalType": "address",
          "name": "owner",
          "type": "address"
        }
      ],
      "name": "balanceOf",
      "outputs": [
        {
          "internalType": "uint256",
          "name": "",
          "type": "uint256"
        }
      ],
      "stateMutability": "view",
      "type": "function"
    },
    {
      "inputs": [
        {
          "internalType": "uint256",
          "name": "tokenId",
          "type": "uint256"
        }
      ],
      "name": "getApproved",
      "outputs": [
        {
          "internalType": "address",
          "name": "",
          "type": "address"
        }
      ],
      "stateMutability": "view",
      "type": "function"
    },
    {
      "inputs": [],
      "name": "getChainID",
      "outputs": [
        {
          "internalType": "uint256",
          "name": "",
          "type": "uint256"
        }
      ],
      "stateMutability": "view",
      "type": "function"
    },
    {
      "inputs": [
        {
          "internalType": "bytes32",
          "name": "role",
          "type": "bytes32"
        }
      ],
      "name": "getRoleAdmin",
      "outputs": [
        {
          "internalType": "bytes32",
          "name": "",
          "type": "bytes32"
        }
      ],
      "stateMutability": "view",
      "type": "function"
    },
    {
      "inputs": [
        {
          "internalType": "bytes32",
          "name": "role",
          "type": "bytes32"
        },
        {
          "internalType": "address",
          "name": "account",
          "type": "address"
        }
      ],
      "name": "grantRole",
      "outputs": [],
      "stateMutability": "nonpayable",
      "type": "function"
    },
    {
      "inputs": [
        {
          "internalType": "bytes32",
          "name": "role",
          "type": "bytes32"
        },
        {
          "internalType": "address",
          "name": "account",
          "type": "address"
        }
      ],
      "name": "hasRole",
      "outputs": [
        {
          "internalType": "bool",
          "name": "",
          "type": "bool"
        }
      ],
      "stateMutability": "view",
      "type": "function"
    },
    {
      "inputs": [
        {
          "internalType": "address",
          "name": "owner",
          "type": "address"
        },
        {
          "internalType": "address",
          "name": "operator",
          "type": "address"
        }
      ],
      "name": "isApprovedForAll",
      "outputs": [
        {
          "internalType": "bool",
          "name": "",
          "type": "bool"
        }
      ],
      "stateMutability": "view",
      "type": "function"
    },
    {
      "inputs": [],
      "name": "name",
      "outputs": [
        {
          "internalType": "string",
          "name": "",
          "type": "string"
        }
      ],
      "stateMutability": "view",
      "type": "function"
    },
    {
      "inputs": [
        {
          "internalType": "uint256",
          "name": "tokenId",
          "type": "uint256"
        }
      ],
      "name": "ownerOf",
      "outputs": [
        {
          "internalType": "address",
          "name": "",
          "type": "address"
        }
      ],
      "stateMutability": "view",
      "type": "function"
    },
    {
      "inputs": [
        {
          "components": [
            {
              "internalType": "uint256",
              "name": "tokenId",
              "type": "uint256"
            },
            {
              "internalType": "bytes",
              "name": "signature",
              "type": "bytes"
            }
          ],
          "internalType": "struct UniqueDev.NFTVoucher",
          "name": "voucher",
          "type": "tuple"
        },
        {
          "internalType": "string",
          "name": "tokenURI",
          "type": "string"
        }
      ],
      "name": "redeem",
      "outputs": [
        {
          "internalType": "uint256",
          "name": "",
          "type": "uint256"
        }
      ],
      "stateMutability": "nonpayable",
      "type": "function"
    },
    {
      "inputs": [
        {
          "internalType": "bytes32",
          "name": "role",
          "type": "bytes32"
        },
        {
          "internalType": "address",
          "name": "account",
          "type": "address"
        }
      ],
      "name": "renounceRole",
      "outputs": [],
      "stateMutability": "nonpayable",
      "type": "function"
    },
    {
      "inputs": [
        {
          "internalType": "bytes32",
          "name": "role",
          "type": "bytes32"
        },
        {
          "internalType": "address",
          "name": "account",
          "type": "address"
        }
      ],
      "name": "revokeRole",
      "outputs": [],
      "stateMutability": "nonpayable",
      "type": "function"
    },
    {
      "inputs": [
        {
          "internalType": "address",
          "name": "from",
          "type": "address"
        },
        {
          "internalType": "address",
          "name": "to",
          "type": "address"
        },
        {
          "internalType": "uint256",
          "name": "tokenId",
          "type": "uint256"
        }
      ],
      "name": "safeTransferFrom",
      "outputs": [],
      "stateMutability": "nonpayable",
      "type": "function"
    },
    {
      "inputs": [
        {
          "internalType": "address",
          "name": "from",
          "type": "address"
        },
        {
          "internalType": "address",
          "name": "to",
          "type": "address"
        },
        {
          "internalType": "uint256",
          "name": "tokenId",
          "type": "uint256"
        },
        {
          "internalType": "bytes",
          "name": "_data",
          "type": "bytes"
        }
      ],
      "name": "safeTransferFrom",
      "outputs": [],
      "stateMutability": "nonpayable",
      "type": "function"
    },
    {
      "inputs": [
        {
          "internalType": "address",
          "name": "operator",
          "type": "address"
        },
        {
          "internalType": "bool",
          "name": "approved",
          "type": "bool"
        }
      ],
      "name": "setApprovalForAll",
      "outputs": [],
      "stateMutability": "nonpayable",
      "type": "function"
    },
    {
      "inputs": [
        {
          "internalType": "bytes4",
          "name": "interfaceId",
          "type": "bytes4"
        }
      ],
      "name": "supportsInterface",
      "outputs": [
        {
          "internalType": "bool",
          "name": "",
          "type": "bool"
        }
      ],
      "stateMutability": "view",
      "type": "function"
    },
    {
      "inputs": [],
      "name": "symbol",
      "outputs": [
        {
          "internalType": "string",
          "name": "",
          "type": "string"
        }
      ],
      "stateMutability": "view",
      "type": "function"
    },
    {
      "inputs": [
        {
          "internalType": "uint256",
          "name": "tokenId",
          "type": "uint256"
        }
      ],
      "name": "tokenURI",
      "outputs": [
        {
          "internalType": "string",
          "name": "",
          "type": "string"
        }
      ],
      "stateMutability": "view",
      "type": "function"
    },
    {
      "inputs": [
        {
          "internalType": "address",
          "name": "from",
          "type": "address"
        },
        {
          "internalType": "address",
          "name": "to",
          "type": "address"
        },
        {
          "internalType": "uint256",
          "name": "tokenId",
          "type": "uint256"
        }
      ],
      "name": "transferFrom",
      "outputs": [],
      "stateMutability": "nonpayable",
      "type": "function"
    }
  ],
  "bytecode": "0x6101406040523480156200001257600080fd5b50604051620049e0380380620049e0833981810160405281019062000038919062000500565b6040518060400160405280600981526020017f556e6971756544657600000000000000000000000000000000000000000000008152506040518060400160405280600181526020017f31000000000000000000000000000000000000000000000000000000000000008152506040518060400160405280600981526020017f556e6971756544657600000000000000000000000000000000000000000000008152506040518060400160405280600281526020017f5544000000000000000000000000000000000000000000000000000000000000815250816000908051906020019062000128929190620003e6565b50806001908051906020019062000141929190620003e6565b50505060008280519060200120905060008280519060200120905060007f8b73c3c69bb8fe3d512ecc4cf759cc79239f7b179b0ffacaa9a75d522b39400f90508260e081815250508161010081815250504660a08181525050620001ad8184846200022f60201b60201c565b608081815250503073ffffffffffffffffffffffffffffffffffffffff1660c08173ffffffffffffffffffffffffffffffffffffffff16815250508061012081815250505050505050620002287f9f2df0fed2c77648de5860a4cc508cd0818c85b8b8a1ab4ceeef8d981c8956a6826200026b60201b60201c565b506200063b565b600083838346306040516020016200024c95949392919062000579565b6040516020818303038152906040528051906020012090509392505050565b6200027d82826200028160201b60201c565b5050565b6200029382826200037360201b60201c565b6200036f5760016007600084815260200190815260200160002060000160008373ffffffffffffffffffffffffffffffffffffffff1673ffffffffffffffffffffffffffffffffffffffff16815260200190815260200160002060006101000a81548160ff02191690831515021790555062000314620003de60201b60201c565b73ffffffffffffffffffffffffffffffffffffffff168173ffffffffffffffffffffffffffffffffffffffff16837f2f8788117e7eff1d82e926ec794901d17c78024a50270940304540a733656f0d60405160405180910390a45b5050565b60006007600084815260200190815260200160002060000160008373ffffffffffffffffffffffffffffffffffffffff1673ffffffffffffffffffffffffffffffffffffffff16815260200190815260200160002060009054906101000a900460ff16905092915050565b600033905090565b828054620003f49062000605565b90600052602060002090601f01602090048101928262000418576000855562000464565b82601f106200043357805160ff191683800117855562000464565b8280016001018555821562000464579182015b828111156200046357825182559160200191906001019062000446565b5b50905062000473919062000477565b5090565b5b808211156200049257600081600090555060010162000478565b5090565b600080fd5b600073ffffffffffffffffffffffffffffffffffffffff82169050919050565b6000620004c8826200049b565b9050919050565b620004da81620004bb565b8114620004e657600080fd5b50565b600081519050620004fa81620004cf565b92915050565b60006020828403121562000519576200051862000496565b5b60006200052984828501620004e9565b91505092915050565b6000819050919050565b620005478162000532565b82525050565b6000819050919050565b62000562816200054d565b82525050565b6200057381620004bb565b82525050565b600060a0820190506200059060008301886200053c565b6200059f60208301876200053c565b620005ae60408301866200053c565b620005bd606083018562000557565b620005cc608083018462000568565b9695505050505050565b7f4e487b7100000000000000000000000000000000000000000000000000000000600052602260045260246000fd5b600060028204905060018216806200061e57607f821691505b60208210811415620006355762000634620005d6565b5b50919050565b60805160a05160c05160e05161010051610120516143556200068b60003960006125520152600061259401526000612573015260006124a8015260006124fe0152600061252701526143556000f3fe608060405234801561001057600080fd5b50600436106101425760003560e01c806370a08231116100b8578063ac47d4901161007c578063ac47d49014610387578063b88d4fde146103b7578063c87b56dd146103d3578063d539139314610403578063d547741f14610421578063e985e9c51461043d57610142565b806370a08231146102cf57806391d14854146102ff57806395d89b411461032f578063a217fddf1461034d578063a22cb4651461036b57610142565b8063248a9ca31161010a578063248a9ca3146101fd5780632f2ff15d1461022d57806336568abe1461024957806342842e0e14610265578063564b81ef146102815780636352211e1461029f57610142565b806301ffc9a71461014757806306fdde0314610177578063081812fc14610195578063095ea7b3146101c557806323b872dd146101e1575b600080fd5b610161600480360381019061015c91906128a6565b61046d565b60405161016e91906128ee565b60405180910390f35b61017f61048f565b60405161018c91906129a2565b60405180910390f35b6101af60048036038101906101aa91906129fa565b610521565b6040516101bc9190612a68565b60405180910390f35b6101df60048036038101906101da9190612aaf565b6105a6565b005b6101fb60048036038101906101f69190612aef565b6106be565b005b61021760048036038101906102129190612b78565b61071e565b6040516102249190612bb4565b60405180910390f35b61024760048036038101906102429190612bcf565b61073e565b005b610263600480360381019061025e9190612bcf565b610767565b005b61027f600480360381019061027a9190612aef565b6107ea565b005b61028961080a565b6040516102969190612c1e565b60405180910390f35b6102b960048036038101906102b491906129fa565b610817565b6040516102c69190612a68565b60405180910390f35b6102e960048036038101906102e49190612c39565b6108c9565b6040516102f69190612c1e565b60405180910390f35b61031960048036038101906103149190612bcf565b610981565b60405161032691906128ee565b60405180910390f35b6103376109ec565b60405161034491906129a2565b60405180910390f35b610355610a7e565b6040516103629190612bb4565b60405180910390f35b61038560048036038101906103809190612c92565b610a85565b005b6103a1600480360381019061039c9190612e2b565b610a9b565b6040516103ae9190612c1e565b60405180910390f35b6103d160048036038101906103cc9190612f44565b610b5f565b005b6103ed60048036038101906103e891906129fa565b610bc1565b6040516103fa91906129a2565b60405180910390f35b61040b610d13565b6040516104189190612bb4565b60405180910390f35b61043b60048036038101906104369190612bcf565b610d37565b005b61045760048036038101906104529190612fc7565b610d60565b60405161046491906128ee565b60405180910390f35b600061047882610df4565b80610488575061048782610ed6565b5b9050919050565b60606000805461049e90613036565b80601f01602080910402602001604051908101604052809291908181526020018280546104ca90613036565b80156105175780601f106104ec57610100808354040283529160200191610517565b820191906000526020600020905b8154815290600101906020018083116104fa57829003601f168201915b5050505050905090565b600061052c82610f50565b61056b576040517f08c379a0000000000000000000000000000000000000000000000000000000008152600401610562906130da565b60405180910390fd5b6004600083815260200190815260200160002060009054906101000a900473ffffffffffffffffffffffffffffffffffffffff169050919050565b60006105b182610817565b90508073ffffffffffffffffffffffffffffffffffffffff168373ffffffffffffffffffffffffffffffffffffffff161415610622576040517f08c379a00000000000000000000000000000000000000000000000000000000081526004016106199061316c565b60405180910390fd5b8073ffffffffffffffffffffffffffffffffffffffff16610641610fbc565b73ffffffffffffffffffffffffffffffffffffffff161480610670575061066f8161066a610fbc565b610d60565b5b6106af576040517f08c379a00000000000000000000000000000000000000000000000000000000081526004016106a6906131fe565b60405180910390fd5b6106b98383610fc4565b505050565b6106cf6106c9610fbc565b8261107d565b61070e576040517f08c379a000000000000000000000000000000000000000000000000000000000815260040161070590613290565b60405180910390fd5b61071983838361115b565b505050565b600060076000838152602001908152602001600020600101549050919050565b6107478261071e565b61075881610753610fbc565b6113c2565b610762838361145f565b505050565b61076f610fbc565b73ffffffffffffffffffffffffffffffffffffffff168173ffffffffffffffffffffffffffffffffffffffff16146107dc576040517f08c379a00000000000000000000000000000000000000000000000000000000081526004016107d390613322565b60405180910390fd5b6107e68282611540565b5050565b61080583838360405180602001604052806000815250610b5f565b505050565b6000804690508091505090565b6000806002600084815260200190815260200160002060009054906101000a900473ffffffffffffffffffffffffffffffffffffffff169050600073ffffffffffffffffffffffffffffffffffffffff168173ffffffffffffffffffffffffffffffffffffffff1614156108c0576040517f08c379a00000000000000000000000000000000000000000000000000000000081526004016108b7906133b4565b60405180910390fd5b80915050919050565b60008073ffffffffffffffffffffffffffffffffffffffff168273ffffffffffffffffffffffffffffffffffffffff16141561093a576040517f08c379a000000000000000000000000000000000000000000000000000000000815260040161093190613446565b60405180910390fd5b600360008373ffffffffffffffffffffffffffffffffffffffff1673ffffffffffffffffffffffffffffffffffffffff168152602001908152602001600020549050919050565b60006007600084815260200190815260200160002060000160008373ffffffffffffffffffffffffffffffffffffffff1673ffffffffffffffffffffffffffffffffffffffff16815260200190815260200160002060009054906101000a900460ff16905092915050565b6060600180546109fb90613036565b80601f0160208091040260200160405190810160405280929190818152602001828054610a2790613036565b8015610a745780601f10610a4957610100808354040283529160200191610a74565b820191906000526020600020905b815481529060010190602001808311610a5757829003601f168201915b5050505050905090565b6000801b81565b610a97610a90610fbc565b8383611622565b5050565b600080610aa78461178f565b9050610ad37f9f2df0fed2c77648de5860a4cc508cd0818c85b8b8a1ab4ceeef8d981c8956a682610981565b610b12576040517f08c379a0000000000000000000000000000000000000000000000000000000008152600401610b09906134d8565b60405180910390fd5b610b20338560000135611801565b610b2e84600001358461181f565b610b5133736a5c5f7964d0ca5a313bd237eca6657f52f17810866000013561115b565b836000013591505092915050565b610b70610b6a610fbc565b8361107d565b610baf576040517f08c379a0000000000000000000000000000000000000000000000000000000008152600401610ba690613290565b60405180910390fd5b610bbb84848484611893565b50505050565b6060610bcc82610f50565b610c0b576040517f08c379a0000000000000000000000000000000000000000000000000000000008152600401610c029061356a565b60405180910390fd5b6000600660008481526020019081526020016000208054610c2b90613036565b80601f0160208091040260200160405190810160405280929190818152602001828054610c5790613036565b8015610ca45780601f10610c7957610100808354040283529160200191610ca4565b820191906000526020600020905b815481529060010190602001808311610c8757829003601f168201915b505050505090506000610cb56118ef565b9050600081511415610ccb578192505050610d0e565b600082511115610d00578082604051602001610ce89291906135c6565b60405160208183030381529060405292505050610d0e565b610d0984611906565b925050505b919050565b7f9f2df0fed2c77648de5860a4cc508cd0818c85b8b8a1ab4ceeef8d981c8956a681565b610d408261071e565b610d5181610d4c610fbc565b6113c2565b610d5b8383611540565b505050565b6000600560008473ffffffffffffffffffffffffffffffffffffffff1673ffffffffffffffffffffffffffffffffffffffff16815260200190815260200160002060008373ffffffffffffffffffffffffffffffffffffffff1673ffffffffffffffffffffffffffffffffffffffff16815260200190815260200160002060009054906101000a900460ff16905092915050565b60007f80ac58cd000000000000000000000000000000000000000000000000000000007bffffffffffffffffffffffffffffffffffffffffffffffffffffffff1916827bffffffffffffffffffffffffffffffffffffffffffffffffffffffff19161480610ebf57507f5b5e139f000000000000000000000000000000000000000000000000000000007bffffffffffffffffffffffffffffffffffffffffffffffffffffffff1916827bffffffffffffffffffffffffffffffffffffffffffffffffffffffff1916145b80610ecf5750610ece826119ad565b5b9050919050565b60007f7965db0b000000000000000000000000000000000000000000000000000000007bffffffffffffffffffffffffffffffffffffffffffffffffffffffff1916827bffffffffffffffffffffffffffffffffffffffffffffffffffffffff19161480610f495750610f4882610df4565b5b9050919050565b60008073ffffffffffffffffffffffffffffffffffffffff166002600084815260200190815260200160002060009054906101000a900473ffffffffffffffffffffffffffffffffffffffff1673ffffffffffffffffffffffffffffffffffffffff1614159050919050565b600033905090565b816004600083815260200190815260200160002060006101000a81548173ffffffffffffffffffffffffffffffffffffffff021916908373ffffffffffffffffffffffffffffffffffffffff160217905550808273ffffffffffffffffffffffffffffffffffffffff1661103783610817565b73ffffffffffffffffffffffffffffffffffffffff167f8c5be1e5ebec7d5bd14f71427d1e84f3dd0314c0f7b2291e5b200ac8c7c3b92560405160405180910390a45050565b600061108882610f50565b6110c7576040517f08c379a00000000000000000000000000000000000000000000000000000000081526004016110be9061365c565b60405180910390fd5b60006110d283610817565b90508073ffffffffffffffffffffffffffffffffffffffff168473ffffffffffffffffffffffffffffffffffffffff16148061114157508373ffffffffffffffffffffffffffffffffffffffff1661112984610521565b73ffffffffffffffffffffffffffffffffffffffff16145b8061115257506111518185610d60565b5b91505092915050565b8273ffffffffffffffffffffffffffffffffffffffff1661117b82610817565b73ffffffffffffffffffffffffffffffffffffffff16146111d1576040517f08c379a00000000000000000000000000000000000000000000000000000000081526004016111c8906136ee565b60405180910390fd5b600073ffffffffffffffffffffffffffffffffffffffff168273ffffffffffffffffffffffffffffffffffffffff161415611241576040517f08c379a000000000000000000000000000000000000000000000000000000000815260040161123890613780565b60405180910390fd5b61124c838383611a17565b611257600082610fc4565b6001600360008573ffffffffffffffffffffffffffffffffffffffff1673ffffffffffffffffffffffffffffffffffffffff16815260200190815260200160002060008282546112a791906137cf565b925050819055506001600360008473ffffffffffffffffffffffffffffffffffffffff1673ffffffffffffffffffffffffffffffffffffffff16815260200190815260200160002060008282546112fe9190613803565b92505081905550816002600083815260200190815260200160002060006101000a81548173ffffffffffffffffffffffffffffffffffffffff021916908373ffffffffffffffffffffffffffffffffffffffff160217905550808273ffffffffffffffffffffffffffffffffffffffff168473ffffffffffffffffffffffffffffffffffffffff167fddf252ad1be2c89b69c2b068fc378daa952ba7f163c4a11628f55a4df523b3ef60405160405180910390a46113bd838383611a1c565b505050565b6113cc8282610981565b61145b576113f18173ffffffffffffffffffffffffffffffffffffffff166014611a21565b6113ff8360001c6020611a21565b6040516020016114109291906138f1565b6040516020818303038152906040526040517f08c379a000000000000000000000000000000000000000000000000000000000815260040161145291906129a2565b60405180910390fd5b5050565b6114698282610981565b61153c5760016007600084815260200190815260200160002060000160008373ffffffffffffffffffffffffffffffffffffffff1673ffffffffffffffffffffffffffffffffffffffff16815260200190815260200160002060006101000a81548160ff0219169083151502179055506114e1610fbc565b73ffffffffffffffffffffffffffffffffffffffff168173ffffffffffffffffffffffffffffffffffffffff16837f2f8788117e7eff1d82e926ec794901d17c78024a50270940304540a733656f0d60405160405180910390a45b5050565b61154a8282610981565b1561161e5760006007600084815260200190815260200160002060000160008373ffffffffffffffffffffffffffffffffffffffff1673ffffffffffffffffffffffffffffffffffffffff16815260200190815260200160002060006101000a81548160ff0219169083151502179055506115c3610fbc565b73ffffffffffffffffffffffffffffffffffffffff168173ffffffffffffffffffffffffffffffffffffffff16837ff6391f5c32d9c69d2a47ea670b442974b53935d1edc7fd64eb21e047a839171b60405160405180910390a45b5050565b8173ffffffffffffffffffffffffffffffffffffffff168373ffffffffffffffffffffffffffffffffffffffff161415611691576040517f08c379a000000000000000000000000000000000000000000000000000000000815260040161168890613977565b60405180910390fd5b80600560008573ffffffffffffffffffffffffffffffffffffffff1673ffffffffffffffffffffffffffffffffffffffff16815260200190815260200160002060008473ffffffffffffffffffffffffffffffffffffffff1673ffffffffffffffffffffffffffffffffffffffff16815260200190815260200160002060006101000a81548160ff0219169083151502179055508173ffffffffffffffffffffffffffffffffffffffff168373ffffffffffffffffffffffffffffffffffffffff167f17307eab39ab6107e8899845ad3d59bd9653f200f220920489ca2b5937696c318360405161178291906128ee565b60405180910390a3505050565b60008061179b83611c5d565b90506117f9818480602001906117b191906139a6565b8080601f016020809104026020016040519081016040528093929190818152602001838380828437600081840152601f19601f82011690508083019250505050505050611cbb565b915050919050565b61181b828260405180602001604052806000815250611ce2565b5050565b61182882610f50565b611867576040517f08c379a000000000000000000000000000000000000000000000000000000000815260040161185e90613a7b565b60405180910390fd5b8060066000848152602001908152602001600020908051906020019061188e929190612797565b505050565b61189e84848461115b565b6118aa84848484611d3d565b6118e9576040517f08c379a00000000000000000000000000000000000000000000000000000000081526004016118e090613b0d565b60405180910390fd5b50505050565b606060405180602001604052806000815250905090565b606061191182610f50565b611950576040517f08c379a000000000000000000000000000000000000000000000000000000000815260040161194790613b9f565b60405180910390fd5b600061195a6118ef565b9050600081511161197a57604051806020016040528060008152506119a5565b8061198484611ed4565b6040516020016119959291906135c6565b6040516020818303038152906040525b915050919050565b60007f01ffc9a7000000000000000000000000000000000000000000000000000000007bffffffffffffffffffffffffffffffffffffffffffffffffffffffff1916827bffffffffffffffffffffffffffffffffffffffffffffffffffffffff1916149050919050565b505050565b505050565b606060006002836002611a349190613bbf565b611a3e9190613803565b67ffffffffffffffff811115611a5757611a56612d00565b5b6040519080825280601f01601f191660200182016040528015611a895781602001600182028036833780820191505090505b5090507f300000000000000000000000000000000000000000000000000000000000000081600081518110611ac157611ac0613c19565b5b60200101907effffffffffffffffffffffffffffffffffffffffffffffffffffffffffffff1916908160001a9053507f780000000000000000000000000000000000000000000000000000000000000081600181518110611b2557611b24613c19565b5b60200101907effffffffffffffffffffffffffffffffffffffffffffffffffffffffffffff1916908160001a90535060006001846002611b659190613bbf565b611b6f9190613803565b90505b6001811115611c0f577f3031323334353637383961626364656600000000000000000000000000000000600f861660108110611bb157611bb0613c19565b5b1a60f81b828281518110611bc857611bc7613c19565b5b60200101907effffffffffffffffffffffffffffffffffffffffffffffffffffffffffffff1916908160001a905350600485901c945080611c0890613c48565b9050611b72565b5060008414611c53576040517f08c379a0000000000000000000000000000000000000000000000000000000008152600401611c4a90613cbe565b60405180910390fd5b8091505092915050565b6000611cb47faa5ac5e8b3947cfdfb46b0ea715a97161b414b7217ba36b5c047c5968b20b0bd8360000135604051602001611c99929190613cde565b60405160208183030381529060405280519060200120612035565b9050919050565b6000806000611cca858561204f565b91509150611cd7816120d2565b819250505092915050565b611cec83836122a7565b611cf96000848484611d3d565b611d38576040517f08c379a0000000000000000000000000000000000000000000000000000000008152600401611d2f90613b0d565b60405180910390fd5b505050565b6000611d5e8473ffffffffffffffffffffffffffffffffffffffff16612481565b15611ec7578373ffffffffffffffffffffffffffffffffffffffff1663150b7a02611d87610fbc565b8786866040518563ffffffff1660e01b8152600401611da99493929190613d5c565b602060405180830381600087803b158015611dc357600080fd5b505af1925050508015611df457506040513d601f19601f82011682018060405250810190611df19190613dbd565b60015b611e77573d8060008114611e24576040519150601f19603f3d011682016040523d82523d6000602084013e611e29565b606091505b50600081511415611e6f576040517f08c379a0000000000000000000000000000000000000000000000000000000008152600401611e6690613b0d565b60405180910390fd5b805181602001fd5b63150b7a0260e01b7bffffffffffffffffffffffffffffffffffffffffffffffffffffffff1916817bffffffffffffffffffffffffffffffffffffffffffffffffffffffff191614915050611ecc565b600190505b949350505050565b60606000821415611f1c576040518060400160405280600181526020017f30000000000000000000000000000000000000000000000000000000000000008152509050612030565b600082905060005b60008214611f4e578080611f3790613dea565b915050600a82611f479190613e62565b9150611f24565b60008167ffffffffffffffff811115611f6a57611f69612d00565b5b6040519080825280601f01601f191660200182016040528015611f9c5781602001600182028036833780820191505090505b5090505b6000851461202957600182611fb591906137cf565b9150600a85611fc49190613e93565b6030611fd09190613803565b60f81b818381518110611fe657611fe5613c19565b5b60200101907effffffffffffffffffffffffffffffffffffffffffffffffffffffffffffff1916908160001a905350600a856120229190613e62565b9450611fa0565b8093505050505b919050565b60006120486120426124a4565b836125be565b9050919050565b6000806041835114156120915760008060006020860151925060408601519150606086015160001a9050612085878285856125f1565b945094505050506120cb565b6040835114156120c25760008060208501519150604085015190506120b78683836126fe565b9350935050506120cb565b60006002915091505b9250929050565b600060048111156120e6576120e5613ec4565b5b8160048111156120f9576120f8613ec4565b5b1415612104576122a4565b6001600481111561211857612117613ec4565b5b81600481111561212b5761212a613ec4565b5b141561216c576040517f08c379a000000000000000000000000000000000000000000000000000000000815260040161216390613f3f565b60405180910390fd5b600260048111156121805761217f613ec4565b5b81600481111561219357612192613ec4565b5b14156121d4576040517f08c379a00000000000000000000000000000000000000000000000000000000081526004016121cb90613fab565b60405180910390fd5b600360048111156121e8576121e7613ec4565b5b8160048111156121fb576121fa613ec4565b5b141561223c576040517f08c379a00000000000000000000000000000000000000000000000000000000081526004016122339061403d565b60405180910390fd5b60048081111561224f5761224e613ec4565b5b81600481111561226257612261613ec4565b5b14156122a3576040517f08c379a000000000000000000000000000000000000000000000000000000000815260040161229a906140cf565b60405180910390fd5b5b50565b600073ffffffffffffffffffffffffffffffffffffffff168273ffffffffffffffffffffffffffffffffffffffff161415612317576040517f08c379a000000000000000000000000000000000000000000000000000000000815260040161230e9061413b565b60405180910390fd5b61232081610f50565b15612360576040517f08c379a0000000000000000000000000000000000000000000000000000000008152600401612357906141a7565b60405180910390fd5b61236c60008383611a17565b6001600360008473ffffffffffffffffffffffffffffffffffffffff1673ffffffffffffffffffffffffffffffffffffffff16815260200190815260200160002060008282546123bc9190613803565b92505081905550816002600083815260200190815260200160002060006101000a81548173ffffffffffffffffffffffffffffffffffffffff021916908373ffffffffffffffffffffffffffffffffffffffff160217905550808273ffffffffffffffffffffffffffffffffffffffff16600073ffffffffffffffffffffffffffffffffffffffff167fddf252ad1be2c89b69c2b068fc378daa952ba7f163c4a11628f55a4df523b3ef60405160405180910390a461247d60008383611a1c565b5050565b6000808273ffffffffffffffffffffffffffffffffffffffff163b119050919050565b60007f000000000000000000000000000000000000000000000000000000000000000073ffffffffffffffffffffffffffffffffffffffff163073ffffffffffffffffffffffffffffffffffffffff1614801561252057507f000000000000000000000000000000000000000000000000000000000000000046145b1561254d577f000000000000000000000000000000000000000000000000000000000000000090506125bb565b6125b87f00000000000000000000000000000000000000000000000000000000000000007f00000000000000000000000000000000000000000000000000000000000000007f000000000000000000000000000000000000000000000000000000000000000061275d565b90505b90565b600082826040516020016125d3929190614234565b60405160208183030381529060405280519060200120905092915050565b6000807f7fffffffffffffffffffffffffffffff5d576e7357a4501ddfe92f46681b20a08360001c111561262c5760006003915091506126f5565b601b8560ff16141580156126445750601c8560ff1614155b156126565760006004915091506126f5565b60006001878787876040516000815260200160405260405161267b9493929190614287565b6020604051602081039080840390855afa15801561269d573d6000803e3d6000fd5b505050602060405103519050600073ffffffffffffffffffffffffffffffffffffffff168173ffffffffffffffffffffffffffffffffffffffff1614156126ec576000600192509250506126f5565b80600092509250505b94509492505050565b60008060007f7fffffffffffffffffffffffffffffffffffffffffffffffffffffffffffffff60001b841690506000601b60ff8660001c901c6127419190613803565b905061274f878288856125f1565b935093505050935093915050565b600083838346306040516020016127789594939291906142cc565b6040516020818303038152906040528051906020012090509392505050565b8280546127a390613036565b90600052602060002090601f0160209004810192826127c5576000855561280c565b82601f106127de57805160ff191683800117855561280c565b8280016001018555821561280c579182015b8281111561280b5782518255916020019190600101906127f0565b5b509050612819919061281d565b5090565b5b8082111561283657600081600090555060010161281e565b5090565b6000604051905090565b600080fd5b600080fd5b60007fffffffff0000000000000000000000000000000000000000000000000000000082169050919050565b6128838161284e565b811461288e57600080fd5b50565b6000813590506128a08161287a565b92915050565b6000602082840312156128bc576128bb612844565b5b60006128ca84828501612891565b91505092915050565b60008115159050919050565b6128e8816128d3565b82525050565b600060208201905061290360008301846128df565b92915050565b600081519050919050565b600082825260208201905092915050565b60005b83811015612943578082015181840152602081019050612928565b83811115612952576000848401525b50505050565b6000601f19601f8301169050919050565b600061297482612909565b61297e8185612914565b935061298e818560208601612925565b61299781612958565b840191505092915050565b600060208201905081810360008301526129bc8184612969565b905092915050565b6000819050919050565b6129d7816129c4565b81146129e257600080fd5b50565b6000813590506129f4816129ce565b92915050565b600060208284031215612a1057612a0f612844565b5b6000612a1e848285016129e5565b91505092915050565b600073ffffffffffffffffffffffffffffffffffffffff82169050919050565b6000612a5282612a27565b9050919050565b612a6281612a47565b82525050565b6000602082019050612a7d6000830184612a59565b92915050565b612a8c81612a47565b8114612a9757600080fd5b50565b600081359050612aa981612a83565b92915050565b60008060408385031215612ac657612ac5612844565b5b6000612ad485828601612a9a565b9250506020612ae5858286016129e5565b9150509250929050565b600080600060608486031215612b0857612b07612844565b5b6000612b1686828701612a9a565b9350506020612b2786828701612a9a565b9250506040612b38868287016129e5565b9150509250925092565b6000819050919050565b612b5581612b42565b8114612b6057600080fd5b50565b600081359050612b7281612b4c565b92915050565b600060208284031215612b8e57612b8d612844565b5b6000612b9c84828501612b63565b91505092915050565b612bae81612b42565b82525050565b6000602082019050612bc96000830184612ba5565b92915050565b60008060408385031215612be657612be5612844565b5b6000612bf485828601612b63565b9250506020612c0585828601612a9a565b9150509250929050565b612c18816129c4565b82525050565b6000602082019050612c336000830184612c0f565b92915050565b600060208284031215612c4f57612c4e612844565b5b6000612c5d84828501612a9a565b91505092915050565b612c6f816128d3565b8114612c7a57600080fd5b50565b600081359050612c8c81612c66565b92915050565b60008060408385031215612ca957612ca8612844565b5b6000612cb785828601612a9a565b9250506020612cc885828601612c7d565b9150509250929050565b600080fd5b600060408284031215612ced57612cec612cd2565b5b81905092915050565b600080fd5b600080fd5b7f4e487b7100000000000000000000000000000000000000000000000000000000600052604160045260246000fd5b612d3882612958565b810181811067ffffffffffffffff82111715612d5757612d56612d00565b5b80604052505050565b6000612d6a61283a565b9050612d768282612d2f565b919050565b600067ffffffffffffffff821115612d9657612d95612d00565b5b612d9f82612958565b9050602081019050919050565b82818337600083830152505050565b6000612dce612dc984612d7b565b612d60565b905082815260208101848484011115612dea57612de9612cfb565b5b612df5848285612dac565b509392505050565b600082601f830112612e1257612e11612cf6565b5b8135612e22848260208601612dbb565b91505092915050565b60008060408385031215612e4257612e41612844565b5b600083013567ffffffffffffffff811115612e6057612e5f612849565b5b612e6c85828601612cd7565b925050602083013567ffffffffffffffff811115612e8d57612e8c612849565b5b612e9985828601612dfd565b9150509250929050565b600067ffffffffffffffff821115612ebe57612ebd612d00565b5b612ec782612958565b9050602081019050919050565b6000612ee7612ee284612ea3565b612d60565b905082815260208101848484011115612f0357612f02612cfb565b5b612f0e848285612dac565b509392505050565b600082601f830112612f2b57612f2a612cf6565b5b8135612f3b848260208601612ed4565b91505092915050565b60008060008060808587031215612f5e57612f5d612844565b5b6000612f6c87828801612a9a565b9450506020612f7d87828801612a9a565b9350506040612f8e878288016129e5565b925050606085013567ffffffffffffffff811115612faf57612fae612849565b5b612fbb87828801612f16565b91505092959194509250565b60008060408385031215612fde57612fdd612844565b5b6000612fec85828601612a9a565b9250506020612ffd85828601612a9a565b9150509250929050565b7f4e487b7100000000000000000000000000000000000000000000000000000000600052602260045260246000fd5b6000600282049050600182168061304e57607f821691505b6020821081141561306257613061613007565b5b50919050565b7f4552433732313a20617070726f76656420717565727920666f72206e6f6e657860008201527f697374656e7420746f6b656e0000000000000000000000000000000000000000602082015250565b60006130c4602c83612914565b91506130cf82613068565b604082019050919050565b600060208201905081810360008301526130f3816130b7565b9050919050565b7f4552433732313a20617070726f76616c20746f2063757272656e74206f776e6560008201527f7200000000000000000000000000000000000000000000000000000000000000602082015250565b6000613156602183612914565b9150613161826130fa565b604082019050919050565b6000602082019050818103600083015261318581613149565b9050919050565b7f4552433732313a20617070726f76652063616c6c6572206973206e6f74206f7760008201527f6e6572206e6f7220617070726f76656420666f7220616c6c0000000000000000602082015250565b60006131e8603883612914565b91506131f38261318c565b604082019050919050565b60006020820190508181036000830152613217816131db565b9050919050565b7f4552433732313a207472616e736665722063616c6c6572206973206e6f74206f60008201527f776e6572206e6f7220617070726f766564000000000000000000000000000000602082015250565b600061327a603183612914565b91506132858261321e565b604082019050919050565b600060208201905081810360008301526132a98161326d565b9050919050565b7f416363657373436f6e74726f6c3a2063616e206f6e6c792072656e6f756e636560008201527f20726f6c657320666f722073656c660000000000000000000000000000000000602082015250565b600061330c602f83612914565b9150613317826132b0565b604082019050919050565b6000602082019050818103600083015261333b816132ff565b9050919050565b7f4552433732313a206f776e657220717565727920666f72206e6f6e657869737460008201527f656e7420746f6b656e0000000000000000000000000000000000000000000000602082015250565b600061339e602983612914565b91506133a982613342565b604082019050919050565b600060208201905081810360008301526133cd81613391565b9050919050565b7f4552433732313a2062616c616e636520717565727920666f7220746865207a6560008201527f726f206164647265737300000000000000000000000000000000000000000000602082015250565b6000613430602a83612914565b915061343b826133d4565b604082019050919050565b6000602082019050818103600083015261345f81613423565b9050919050565b7f5369676e617475726520696e76616c6964206f7220756e617574686f72697a6560008201527f6400000000000000000000000000000000000000000000000000000000000000602082015250565b60006134c2602183612914565b91506134cd82613466565b604082019050919050565b600060208201905081810360008301526134f1816134b5565b9050919050565b7f45524337323155524953746f726167653a2055524920717565727920666f722060008201527f6e6f6e6578697374656e7420746f6b656e000000000000000000000000000000602082015250565b6000613554603183612914565b915061355f826134f8565b604082019050919050565b6000602082019050818103600083015261358381613547565b9050919050565b600081905092915050565b60006135a082612909565b6135aa818561358a565b93506135ba818560208601612925565b80840191505092915050565b60006135d28285613595565b91506135de8284613595565b91508190509392505050565b7f4552433732313a206f70657261746f7220717565727920666f72206e6f6e657860008201527f697374656e7420746f6b656e0000000000000000000000000000000000000000602082015250565b6000613646602c83612914565b9150613651826135ea565b604082019050919050565b6000602082019050818103600083015261367581613639565b9050919050565b7f4552433732313a207472616e736665722066726f6d20696e636f72726563742060008201527f6f776e6572000000000000000000000000000000000000000000000000000000602082015250565b60006136d8602583612914565b91506136e38261367c565b604082019050919050565b60006020820190508181036000830152613707816136cb565b9050919050565b7f4552433732313a207472616e7366657220746f20746865207a65726f2061646460008201527f7265737300000000000000000000000000000000000000000000000000000000602082015250565b600061376a602483612914565b91506137758261370e565b604082019050919050565b600060208201905081810360008301526137998161375d565b9050919050565b7f4e487b7100000000000000000000000000000000000000000000000000000000600052601160045260246000fd5b60006137da826129c4565b91506137e5836129c4565b9250828210156137f8576137f76137a0565b5b828203905092915050565b600061380e826129c4565b9150613819836129c4565b9250827fffffffffffffffffffffffffffffffffffffffffffffffffffffffffffffffff0382111561384e5761384d6137a0565b5b828201905092915050565b7f416363657373436f6e74726f6c3a206163636f756e7420000000000000000000600082015250565b600061388f60178361358a565b915061389a82613859565b601782019050919050565b7f206973206d697373696e6720726f6c6520000000000000000000000000000000600082015250565b60006138db60118361358a565b91506138e6826138a5565b601182019050919050565b60006138fc82613882565b91506139088285613595565b9150613913826138ce565b915061391f8284613595565b91508190509392505050565b7f4552433732313a20617070726f766520746f2063616c6c657200000000000000600082015250565b6000613961601983612914565b915061396c8261392b565b602082019050919050565b6000602082019050818103600083015261399081613954565b9050919050565b600080fd5b600080fd5b600080fd5b600080833560016020038436030381126139c3576139c2613997565b5b80840192508235915067ffffffffffffffff8211156139e5576139e461399c565b5b602083019250600182023603831315613a0157613a006139a1565b5b509250929050565b7f45524337323155524953746f726167653a2055524920736574206f66206e6f6e60008201527f6578697374656e7420746f6b656e000000000000000000000000000000000000602082015250565b6000613a65602e83612914565b9150613a7082613a09565b604082019050919050565b60006020820190508181036000830152613a9481613a58565b9050919050565b7f4552433732313a207472616e7366657220746f206e6f6e20455243373231526560008201527f63656976657220696d706c656d656e7465720000000000000000000000000000602082015250565b6000613af7603283612914565b9150613b0282613a9b565b604082019050919050565b60006020820190508181036000830152613b2681613aea565b9050919050565b7f4552433732314d657461646174613a2055524920717565727920666f72206e6f60008201527f6e6578697374656e7420746f6b656e0000000000000000000000000000000000602082015250565b6000613b89602f83612914565b9150613b9482613b2d565b604082019050919050565b60006020820190508181036000830152613bb881613b7c565b9050919050565b6000613bca826129c4565b9150613bd5836129c4565b9250817fffffffffffffffffffffffffffffffffffffffffffffffffffffffffffffffff0483118215151615613c0e57613c0d6137a0565b5b828202905092915050565b7f4e487b7100000000000000000000000000000000000000000000000000000000600052603260045260246000fd5b6000613c53826129c4565b91506000821415613c6757613c666137a0565b5b600182039050919050565b7f537472696e67733a20686578206c656e67746820696e73756666696369656e74600082015250565b6000613ca8602083612914565b9150613cb382613c72565b602082019050919050565b60006020820190508181036000830152613cd781613c9b565b9050919050565b6000604082019050613cf36000830185612ba5565b613d006020830184612c0f565b9392505050565b600081519050919050565b600082825260208201905092915050565b6000613d2e82613d07565b613d388185613d12565b9350613d48818560208601612925565b613d5181612958565b840191505092915050565b6000608082019050613d716000830187612a59565b613d7e6020830186612a59565b613d8b6040830185612c0f565b8181036060830152613d9d8184613d23565b905095945050505050565b600081519050613db78161287a565b92915050565b600060208284031215613dd357613dd2612844565b5b6000613de184828501613da8565b91505092915050565b6000613df5826129c4565b91507fffffffffffffffffffffffffffffffffffffffffffffffffffffffffffffffff821415613e2857613e276137a0565b5b600182019050919050565b7f4e487b7100000000000000000000000000000000000000000000000000000000600052601260045260246000fd5b6000613e6d826129c4565b9150613e78836129c4565b925082613e8857613e87613e33565b5b828204905092915050565b6000613e9e826129c4565b9150613ea9836129c4565b925082613eb957613eb8613e33565b5b828206905092915050565b7f4e487b7100000000000000000000000000000000000000000000000000000000600052602160045260246000fd5b7f45434453413a20696e76616c6964207369676e61747572650000000000000000600082015250565b6000613f29601883612914565b9150613f3482613ef3565b602082019050919050565b60006020820190508181036000830152613f5881613f1c565b9050919050565b7f45434453413a20696e76616c6964207369676e6174757265206c656e67746800600082015250565b6000613f95601f83612914565b9150613fa082613f5f565b602082019050919050565b60006020820190508181036000830152613fc481613f88565b9050919050565b7f45434453413a20696e76616c6964207369676e6174757265202773272076616c60008201527f7565000000000000000000000000000000000000000000000000000000000000602082015250565b6000614027602283612914565b915061403282613fcb565b604082019050919050565b600060208201905081810360008301526140568161401a565b9050919050565b7f45434453413a20696e76616c6964207369676e6174757265202776272076616c60008201527f7565000000000000000000000000000000000000000000000000000000000000602082015250565b60006140b9602283612914565b91506140c48261405d565b604082019050919050565b600060208201905081810360008301526140e8816140ac565b9050919050565b7f4552433732313a206d696e7420746f20746865207a65726f2061646472657373600082015250565b6000614125602083612914565b9150614130826140ef565b602082019050919050565b6000602082019050818103600083015261415481614118565b9050919050565b7f4552433732313a20746f6b656e20616c7265616479206d696e74656400000000600082015250565b6000614191601c83612914565b915061419c8261415b565b602082019050919050565b600060208201905081810360008301526141c081614184565b9050919050565b7f1901000000000000000000000000000000000000000000000000000000000000600082015250565b60006141fd60028361358a565b9150614208826141c7565b600282019050919050565b6000819050919050565b61422e61422982612b42565b614213565b82525050565b600061423f826141f0565b915061424b828561421d565b60208201915061425b828461421d565b6020820191508190509392505050565b600060ff82169050919050565b6142818161426b565b82525050565b600060808201905061429c6000830187612ba5565b6142a96020830186614278565b6142b66040830185612ba5565b6142c36060830184612ba5565b95945050505050565b600060a0820190506142e16000830188612ba5565b6142ee6020830187612ba5565b6142fb6040830186612ba5565b6143086060830185612c0f565b6143156080830184612a59565b969550505050505056fea2646970667358221220af7938ad2a6116dd0f572289b4543ee8c1c1029cde5c3256e00e5c42e1bde7c264736f6c63430008090033",
  "linkReferences": {},
  "deployedLinkReferences": {}
}