{
  "_format": "hh-sol-artifact-1",
  "contractName": "UniqueAlphaDevV2",
  "sourceName": "contracts/UniqueAlphaDevV2.sol",
  "abi": [
    {
      "inputs": [
        {
          "internalType": "address",
          "name": "minter",
          "type": "address"
        }
      ],
      "stateMutability": "nonpayable",
      "type": "constructor"
    },
    {
      "anonymous": false,
      "inputs": [
        {
          "indexed": true,
          "internalType": "address",
          "name": "owner",
          "type": "address"
        },
        {
          "indexed": true,
          "internalType": "address",
          "name": "approved",
          "type": "address"
        },
        {
          "indexed": true,
          "internalType": "uint256",
          "name": "tokenId",
          "type": "uint256"
        }
      ],
      "name": "Approval",
      "type": "event"
    },
    {
      "anonymous": false,
      "inputs": [
        {
          "indexed": true,
          "internalType": "address",
          "name": "owner",
          "type": "address"
        },
        {
          "indexed": true,
          "internalType": "address",
          "name": "operator",
          "type": "address"
        },
        {
          "indexed": false,
          "internalType": "bool",
          "name": "approved",
          "type": "bool"
        }
      ],
      "name": "ApprovalForAll",
      "type": "event"
    },
    {
      "anonymous": false,
      "inputs": [
        {
          "indexed": true,
          "internalType": "bytes32",
          "name": "role",
          "type": "bytes32"
        },
        {
          "indexed": true,
          "internalType": "bytes32",
          "name": "previousAdminRole",
          "type": "bytes32"
        },
        {
          "indexed": true,
          "internalType": "bytes32",
          "name": "newAdminRole",
          "type": "bytes32"
        }
      ],
      "name": "RoleAdminChanged",
      "type": "event"
    },
    {
      "anonymous": false,
      "inputs": [
        {
          "indexed": true,
          "internalType": "bytes32",
          "name": "role",
          "type": "bytes32"
        },
        {
          "indexed": true,
          "internalType": "address",
          "name": "account",
          "type": "address"
        },
        {
          "indexed": true,
          "internalType": "address",
          "name": "sender",
          "type": "address"
        }
      ],
      "name": "RoleGranted",
      "type": "event"
    },
    {
      "anonymous": false,
      "inputs": [
        {
          "indexed": true,
          "internalType": "bytes32",
          "name": "role",
          "type": "bytes32"
        },
        {
          "indexed": true,
          "internalType": "address",
          "name": "account",
          "type": "address"
        },
        {
          "indexed": true,
          "internalType": "address",
          "name": "sender",
          "type": "address"
        }
      ],
      "name": "RoleRevoked",
      "type": "event"
    },
    {
      "anonymous": false,
      "inputs": [
        {
          "indexed": true,
          "internalType": "address",
          "name": "from",
          "type": "address"
        },
        {
          "indexed": true,
          "internalType": "address",
          "name": "to",
          "type": "address"
        },
        {
          "indexed": true,
          "internalType": "uint256",
          "name": "tokenId",
          "type": "uint256"
        }
      ],
      "name": "Transfer",
      "type": "event"
    },
    {
      "inputs": [],
      "name": "DEFAULT_ADMIN_ROLE",
      "outputs": [
        {
          "internalType": "bytes32",
          "name": "",
          "type": "bytes32"
        }
      ],
      "stateMutability": "view",
      "type": "function"
    },
    {
      "inputs": [],
      "name": "MINTER_ROLE",
      "outputs": [
        {
          "internalType": "bytes32",
          "name": "",
          "type": "bytes32"
        }
      ],
      "stateMutability": "view",
      "type": "function"
    },
    {
      "inputs": [
        {
          "internalType": "address",
          "name": "to",
          "type": "address"
        },
        {
          "internalType": "uint256",
          "name": "tokenId",
          "type": "uint256"
        }
      ],
      "name": "approve",
      "outputs": [],
      "stateMutability": "nonpayable",
      "type": "function"
    },
    {
      "inputs": [
        {
          "internalType": "address",
          "name": "owner",
          "type": "address"
        }
      ],
      "name": "balanceOf",
      "outputs": [
        {
          "internalType": "uint256",
          "name": "",
          "type": "uint256"
        }
      ],
      "stateMutability": "view",
      "type": "function"
    },
    {
      "inputs": [
        {
          "internalType": "uint256",
          "name": "tokenId",
          "type": "uint256"
        }
      ],
      "name": "getApproved",
      "outputs": [
        {
          "internalType": "address",
          "name": "",
          "type": "address"
        }
      ],
      "stateMutability": "view",
      "type": "function"
    },
    {
      "inputs": [],
      "name": "getChainID",
      "outputs": [
        {
          "internalType": "uint256",
          "name": "",
          "type": "uint256"
        }
      ],
      "stateMutability": "view",
      "type": "function"
    },
    {
      "inputs": [
        {
          "internalType": "bytes32",
          "name": "role",
          "type": "bytes32"
        }
      ],
      "name": "getRoleAdmin",
      "outputs": [
        {
          "internalType": "bytes32",
          "name": "",
          "type": "bytes32"
        }
      ],
      "stateMutability": "view",
      "type": "function"
    },
    {
      "inputs": [
        {
          "internalType": "bytes32",
          "name": "role",
          "type": "bytes32"
        },
        {
          "internalType": "address",
          "name": "account",
          "type": "address"
        }
      ],
      "name": "grantRole",
      "outputs": [],
      "stateMutability": "nonpayable",
      "type": "function"
    },
    {
      "inputs": [
        {
          "internalType": "bytes32",
          "name": "role",
          "type": "bytes32"
        },
        {
          "internalType": "address",
          "name": "account",
          "type": "address"
        }
      ],
      "name": "hasRole",
      "outputs": [
        {
          "internalType": "bool",
          "name": "",
          "type": "bool"
        }
      ],
      "stateMutability": "view",
      "type": "function"
    },
    {
      "inputs": [
        {
          "internalType": "address",
          "name": "owner",
          "type": "address"
        },
        {
          "internalType": "address",
          "name": "operator",
          "type": "address"
        }
      ],
      "name": "isApprovedForAll",
      "outputs": [
        {
          "internalType": "bool",
          "name": "",
          "type": "bool"
        }
      ],
      "stateMutability": "view",
      "type": "function"
    },
    {
      "inputs": [],
      "name": "name",
      "outputs": [
        {
          "internalType": "string",
          "name": "",
          "type": "string"
        }
      ],
      "stateMutability": "view",
      "type": "function"
    },
    {
      "inputs": [
        {
          "internalType": "uint256",
          "name": "tokenId",
          "type": "uint256"
        }
      ],
      "name": "ownerOf",
      "outputs": [
        {
          "internalType": "address",
          "name": "",
          "type": "address"
        }
      ],
      "stateMutability": "view",
      "type": "function"
    },
    {
      "inputs": [
        {
          "components": [
            {
              "internalType": "string",
              "name": "uri",
              "type": "string"
            },
            {
              "internalType": "bytes",
              "name": "signature",
              "type": "bytes"
            }
          ],
          "internalType": "struct UniqueAlphaDevV2.NFTVoucher",
          "name": "voucher",
          "type": "tuple"
        }
      ],
      "name": "redeem",
      "outputs": [
        {
          "internalType": "uint256",
          "name": "",
          "type": "uint256"
        }
      ],
      "stateMutability": "nonpayable",
      "type": "function"
    },
    {
      "inputs": [
        {
          "internalType": "bytes32",
          "name": "role",
          "type": "bytes32"
        },
        {
          "internalType": "address",
          "name": "account",
          "type": "address"
        }
      ],
      "name": "renounceRole",
      "outputs": [],
      "stateMutability": "nonpayable",
      "type": "function"
    },
    {
      "inputs": [
        {
          "internalType": "bytes32",
          "name": "role",
          "type": "bytes32"
        },
        {
          "internalType": "address",
          "name": "account",
          "type": "address"
        }
      ],
      "name": "revokeRole",
      "outputs": [],
      "stateMutability": "nonpayable",
      "type": "function"
    },
    {
      "inputs": [
        {
          "internalType": "address",
          "name": "from",
          "type": "address"
        },
        {
          "internalType": "address",
          "name": "to",
          "type": "address"
        },
        {
          "internalType": "uint256",
          "name": "tokenId",
          "type": "uint256"
        }
      ],
      "name": "safeTransferFrom",
      "outputs": [],
      "stateMutability": "nonpayable",
      "type": "function"
    },
    {
      "inputs": [
        {
          "internalType": "address",
          "name": "from",
          "type": "address"
        },
        {
          "internalType": "address",
          "name": "to",
          "type": "address"
        },
        {
          "internalType": "uint256",
          "name": "tokenId",
          "type": "uint256"
        },
        {
          "internalType": "bytes",
          "name": "_data",
          "type": "bytes"
        }
      ],
      "name": "safeTransferFrom",
      "outputs": [],
      "stateMutability": "nonpayable",
      "type": "function"
    },
    {
      "inputs": [
        {
          "internalType": "address",
          "name": "operator",
          "type": "address"
        },
        {
          "internalType": "bool",
          "name": "approved",
          "type": "bool"
        }
      ],
      "name": "setApprovalForAll",
      "outputs": [],
      "stateMutability": "nonpayable",
      "type": "function"
    },
    {
      "inputs": [
        {
          "internalType": "bytes4",
          "name": "interfaceId",
          "type": "bytes4"
        }
      ],
      "name": "supportsInterface",
      "outputs": [
        {
          "internalType": "bool",
          "name": "",
          "type": "bool"
        }
      ],
      "stateMutability": "view",
      "type": "function"
    },
    {
      "inputs": [],
      "name": "symbol",
      "outputs": [
        {
          "internalType": "string",
          "name": "",
          "type": "string"
        }
      ],
      "stateMutability": "view",
      "type": "function"
    },
    {
      "inputs": [
        {
          "internalType": "uint256",
          "name": "tokenId",
          "type": "uint256"
        }
      ],
      "name": "tokenURI",
      "outputs": [
        {
          "internalType": "string",
          "name": "",
          "type": "string"
        }
      ],
      "stateMutability": "view",
      "type": "function"
    },
    {
      "inputs": [
        {
          "internalType": "address",
          "name": "from",
          "type": "address"
        },
        {
          "internalType": "address",
          "name": "to",
          "type": "address"
        },
        {
          "internalType": "uint256",
          "name": "tokenId",
          "type": "uint256"
        }
      ],
      "name": "transferFrom",
      "outputs": [],
      "stateMutability": "nonpayable",
      "type": "function"
    }
  ],
  "bytecode": "0x6101406040523480156200001257600080fd5b5060405162004a3c38038062004a3c833981810160405281019062000038919062000500565b6040518060400160405280601081526020017f556e69717565416c7068614465765632000000000000000000000000000000008152506040518060400160405280600181526020017f31000000000000000000000000000000000000000000000000000000000000008152506040518060400160405280601081526020017f556e69717565416c7068614465765632000000000000000000000000000000008152506040518060400160405280600581526020017f5541445632000000000000000000000000000000000000000000000000000000815250816000908051906020019062000128929190620003e6565b50806001908051906020019062000141929190620003e6565b50505060008280519060200120905060008280519060200120905060007f8b73c3c69bb8fe3d512ecc4cf759cc79239f7b179b0ffacaa9a75d522b39400f90508260e081815250508161010081815250504660a08181525050620001ad8184846200022f60201b60201c565b608081815250503073ffffffffffffffffffffffffffffffffffffffff1660c08173ffffffffffffffffffffffffffffffffffffffff16815250508061012081815250505050505050620002287f9f2df0fed2c77648de5860a4cc508cd0818c85b8b8a1ab4ceeef8d981c8956a6826200026b60201b60201c565b506200063b565b600083838346306040516020016200024c95949392919062000579565b6040516020818303038152906040528051906020012090509392505050565b6200027d82826200028160201b60201c565b5050565b6200029382826200037360201b60201c565b6200036f5760016007600084815260200190815260200160002060000160008373ffffffffffffffffffffffffffffffffffffffff1673ffffffffffffffffffffffffffffffffffffffff16815260200190815260200160002060006101000a81548160ff02191690831515021790555062000314620003de60201b60201c565b73ffffffffffffffffffffffffffffffffffffffff168173ffffffffffffffffffffffffffffffffffffffff16837f2f8788117e7eff1d82e926ec794901d17c78024a50270940304540a733656f0d60405160405180910390a45b5050565b60006007600084815260200190815260200160002060000160008373ffffffffffffffffffffffffffffffffffffffff1673ffffffffffffffffffffffffffffffffffffffff16815260200190815260200160002060009054906101000a900460ff16905092915050565b600033905090565b828054620003f49062000605565b90600052602060002090601f01602090048101928262000418576000855562000464565b82601f106200043357805160ff191683800117855562000464565b8280016001018555821562000464579182015b828111156200046357825182559160200191906001019062000446565b5b50905062000473919062000477565b5090565b5b808211156200049257600081600090555060010162000478565b5090565b600080fd5b600073ffffffffffffffffffffffffffffffffffffffff82169050919050565b6000620004c8826200049b565b9050919050565b620004da81620004bb565b8114620004e657600080fd5b50565b600081519050620004fa81620004cf565b92915050565b60006020828403121562000519576200051862000496565b5b60006200052984828501620004e9565b91505092915050565b6000819050919050565b620005478162000532565b82525050565b6000819050919050565b62000562816200054d565b82525050565b6200057381620004bb565b82525050565b600060a0820190506200059060008301886200053c565b6200059f60208301876200053c565b620005ae60408301866200053c565b620005bd606083018562000557565b620005cc608083018462000568565b9695505050505050565b7f4e487b7100000000000000000000000000000000000000000000000000000000600052602260045260246000fd5b600060028204905060018216806200061e57607f821691505b60208210811415620006355762000634620005d6565b5b50919050565b60805160a05160c05160e05161010051610120516143b16200068b60003960006125d201526000612614015260006125f3015260006125280152600061257e015260006125a701526143b16000f3fe608060405234801561001057600080fd5b50600436106101425760003560e01c806370a08231116100b8578063b88d4fde1161007c578063b88d4fde14610387578063c87b56dd146103a3578063c891976d146103d3578063d539139314610403578063d547741f14610421578063e985e9c51461043d57610142565b806370a08231146102cf57806391d14854146102ff57806395d89b411461032f578063a217fddf1461034d578063a22cb4651461036b57610142565b8063248a9ca31161010a578063248a9ca3146101fd5780632f2ff15d1461022d57806336568abe1461024957806342842e0e14610265578063564b81ef146102815780636352211e1461029f57610142565b806301ffc9a71461014757806306fdde0314610177578063081812fc14610195578063095ea7b3146101c557806323b872dd146101e1575b600080fd5b610161600480360381019061015c9190612926565b61046d565b60405161016e919061296e565b60405180910390f35b61017f61048f565b60405161018c9190612a22565b60405180910390f35b6101af60048036038101906101aa9190612a7a565b610521565b6040516101bc9190612ae8565b60405180910390f35b6101df60048036038101906101da9190612b2f565b6105a6565b005b6101fb60048036038101906101f69190612b6f565b6106be565b005b61021760048036038101906102129190612bf8565b61071e565b6040516102249190612c34565b60405180910390f35b61024760048036038101906102429190612c4f565b61073e565b005b610263600480360381019061025e9190612c4f565b610767565b005b61027f600480360381019061027a9190612b6f565b6107ea565b005b61028961080a565b6040516102969190612c9e565b60405180910390f35b6102b960048036038101906102b49190612a7a565b610817565b6040516102c69190612ae8565b60405180910390f35b6102e960048036038101906102e49190612cb9565b6108c9565b6040516102f69190612c9e565b60405180910390f35b61031960048036038101906103149190612c4f565b610981565b604051610326919061296e565b60405180910390f35b6103376109ec565b6040516103449190612a22565b60405180910390f35b610355610a7e565b6040516103629190612c34565b60405180910390f35b61038560048036038101906103809190612d12565b610a85565b005b6103a1600480360381019061039c9190612e87565b610a9b565b005b6103bd60048036038101906103b89190612a7a565b610afd565b6040516103ca9190612a22565b60405180910390f35b6103ed60048036038101906103e89190612f2e565b610c4f565b6040516103fa9190612c9e565b60405180910390f35b61040b610d4e565b6040516104189190612c34565b60405180910390f35b61043b60048036038101906104369190612c4f565b610d72565b005b61045760048036038101906104529190612f77565b610d9b565b604051610464919061296e565b60405180910390f35b600061047882610e2f565b80610488575061048782610f11565b5b9050919050565b60606000805461049e90612fe6565b80601f01602080910402602001604051908101604052809291908181526020018280546104ca90612fe6565b80156105175780601f106104ec57610100808354040283529160200191610517565b820191906000526020600020905b8154815290600101906020018083116104fa57829003601f168201915b5050505050905090565b600061052c82610f8b565b61056b576040517f08c379a00000000000000000000000000000000000000000000000000000000081526004016105629061308a565b60405180910390fd5b6004600083815260200190815260200160002060009054906101000a900473ffffffffffffffffffffffffffffffffffffffff169050919050565b60006105b182610817565b90508073ffffffffffffffffffffffffffffffffffffffff168373ffffffffffffffffffffffffffffffffffffffff161415610622576040517f08c379a00000000000000000000000000000000000000000000000000000000081526004016106199061311c565b60405180910390fd5b8073ffffffffffffffffffffffffffffffffffffffff16610641610ff7565b73ffffffffffffffffffffffffffffffffffffffff161480610670575061066f8161066a610ff7565b610d9b565b5b6106af576040517f08c379a00000000000000000000000000000000000000000000000000000000081526004016106a6906131ae565b60405180910390fd5b6106b98383610fff565b505050565b6106cf6106c9610ff7565b826110b8565b61070e576040517f08c379a000000000000000000000000000000000000000000000000000000000815260040161070590613240565b60405180910390fd5b610719838383611196565b505050565b600060076000838152602001908152602001600020600101549050919050565b6107478261071e565b61075881610753610ff7565b6113fd565b610762838361149a565b505050565b61076f610ff7565b73ffffffffffffffffffffffffffffffffffffffff168173ffffffffffffffffffffffffffffffffffffffff16146107dc576040517f08c379a00000000000000000000000000000000000000000000000000000000081526004016107d3906132d2565b60405180910390fd5b6107e6828261157b565b5050565b61080583838360405180602001604052806000815250610a9b565b505050565b6000804690508091505090565b6000806002600084815260200190815260200160002060009054906101000a900473ffffffffffffffffffffffffffffffffffffffff169050600073ffffffffffffffffffffffffffffffffffffffff168173ffffffffffffffffffffffffffffffffffffffff1614156108c0576040517f08c379a00000000000000000000000000000000000000000000000000000000081526004016108b790613364565b60405180910390fd5b80915050919050565b60008073ffffffffffffffffffffffffffffffffffffffff168273ffffffffffffffffffffffffffffffffffffffff16141561093a576040517f08c379a0000000000000000000000000000000000000000000000000000000008152600401610931906133f6565b60405180910390fd5b600360008373ffffffffffffffffffffffffffffffffffffffff1673ffffffffffffffffffffffffffffffffffffffff168152602001908152602001600020549050919050565b60006007600084815260200190815260200160002060000160008373ffffffffffffffffffffffffffffffffffffffff1673ffffffffffffffffffffffffffffffffffffffff16815260200190815260200160002060009054906101000a900460ff16905092915050565b6060600180546109fb90612fe6565b80601f0160208091040260200160405190810160405280929190818152602001828054610a2790612fe6565b8015610a745780601f10610a4957610100808354040283529160200191610a74565b820191906000526020600020905b815481529060010190602001808311610a5757829003601f168201915b5050505050905090565b6000801b81565b610a97610a90610ff7565b838361165d565b5050565b610aac610aa6610ff7565b836110b8565b610aeb576040517f08c379a0000000000000000000000000000000000000000000000000000000008152600401610ae290613240565b60405180910390fd5b610af7848484846117ca565b50505050565b6060610b0882610f8b565b610b47576040517f08c379a0000000000000000000000000000000000000000000000000000000008152600401610b3e90613488565b60405180910390fd5b6000600660008481526020019081526020016000208054610b6790612fe6565b80601f0160208091040260200160405190810160405280929190818152602001828054610b9390612fe6565b8015610be05780601f10610bb557610100808354040283529160200191610be0565b820191906000526020600020905b815481529060010190602001808311610bc357829003601f168201915b505050505090506000610bf1611826565b9050600081511415610c07578192505050610c4a565b600082511115610c3c578082604051602001610c249291906134e4565b60405160208183030381529060405292505050610c4a565b610c458461183d565b925050505b919050565b600080610c5b836118e4565b9050610c877f9f2df0fed2c77648de5860a4cc508cd0818c85b8b8a1ab4ceeef8d981c8956a682610981565b610cc6576040517f08c379a0000000000000000000000000000000000000000000000000000000008152600401610cbd9061357a565b60405180910390fd5b610cd06008611956565b6000610cdc600861196c565b9050610ce8338261197a565b610d4481858060000190610cfc91906135a9565b8080601f016020809104026020016040519081016040528093929190818152602001838380828437600081840152601f19601f82011690508083019250505050505050611998565b8092505050919050565b7f9f2df0fed2c77648de5860a4cc508cd0818c85b8b8a1ab4ceeef8d981c8956a681565b610d7b8261071e565b610d8c81610d87610ff7565b6113fd565b610d96838361157b565b505050565b6000600560008473ffffffffffffffffffffffffffffffffffffffff1673ffffffffffffffffffffffffffffffffffffffff16815260200190815260200160002060008373ffffffffffffffffffffffffffffffffffffffff1673ffffffffffffffffffffffffffffffffffffffff16815260200190815260200160002060009054906101000a900460ff16905092915050565b60007f80ac58cd000000000000000000000000000000000000000000000000000000007bffffffffffffffffffffffffffffffffffffffffffffffffffffffff1916827bffffffffffffffffffffffffffffffffffffffffffffffffffffffff19161480610efa57507f5b5e139f000000000000000000000000000000000000000000000000000000007bffffffffffffffffffffffffffffffffffffffffffffffffffffffff1916827bffffffffffffffffffffffffffffffffffffffffffffffffffffffff1916145b80610f0a5750610f0982611a0c565b5b9050919050565b60007f7965db0b000000000000000000000000000000000000000000000000000000007bffffffffffffffffffffffffffffffffffffffffffffffffffffffff1916827bffffffffffffffffffffffffffffffffffffffffffffffffffffffff19161480610f845750610f8382610e2f565b5b9050919050565b60008073ffffffffffffffffffffffffffffffffffffffff166002600084815260200190815260200160002060009054906101000a900473ffffffffffffffffffffffffffffffffffffffff1673ffffffffffffffffffffffffffffffffffffffff1614159050919050565b600033905090565b816004600083815260200190815260200160002060006101000a81548173ffffffffffffffffffffffffffffffffffffffff021916908373ffffffffffffffffffffffffffffffffffffffff160217905550808273ffffffffffffffffffffffffffffffffffffffff1661107283610817565b73ffffffffffffffffffffffffffffffffffffffff167f8c5be1e5ebec7d5bd14f71427d1e84f3dd0314c0f7b2291e5b200ac8c7c3b92560405160405180910390a45050565b60006110c382610f8b565b611102576040517f08c379a00000000000000000000000000000000000000000000000000000000081526004016110f99061367e565b60405180910390fd5b600061110d83610817565b90508073ffffffffffffffffffffffffffffffffffffffff168473ffffffffffffffffffffffffffffffffffffffff16148061117c57508373ffffffffffffffffffffffffffffffffffffffff1661116484610521565b73ffffffffffffffffffffffffffffffffffffffff16145b8061118d575061118c8185610d9b565b5b91505092915050565b8273ffffffffffffffffffffffffffffffffffffffff166111b682610817565b73ffffffffffffffffffffffffffffffffffffffff161461120c576040517f08c379a000000000000000000000000000000000000000000000000000000000815260040161120390613710565b60405180910390fd5b600073ffffffffffffffffffffffffffffffffffffffff168273ffffffffffffffffffffffffffffffffffffffff16141561127c576040517f08c379a0000000000000000000000000000000000000000000000000000000008152600401611273906137a2565b60405180910390fd5b611287838383611a76565b611292600082610fff565b6001600360008573ffffffffffffffffffffffffffffffffffffffff1673ffffffffffffffffffffffffffffffffffffffff16815260200190815260200160002060008282546112e291906137f1565b925050819055506001600360008473ffffffffffffffffffffffffffffffffffffffff1673ffffffffffffffffffffffffffffffffffffffff16815260200190815260200160002060008282546113399190613825565b92505081905550816002600083815260200190815260200160002060006101000a81548173ffffffffffffffffffffffffffffffffffffffff021916908373ffffffffffffffffffffffffffffffffffffffff160217905550808273ffffffffffffffffffffffffffffffffffffffff168473ffffffffffffffffffffffffffffffffffffffff167fddf252ad1be2c89b69c2b068fc378daa952ba7f163c4a11628f55a4df523b3ef60405160405180910390a46113f8838383611a7b565b505050565b6114078282610981565b6114965761142c8173ffffffffffffffffffffffffffffffffffffffff166014611a80565b61143a8360001c6020611a80565b60405160200161144b929190613913565b6040516020818303038152906040526040517f08c379a000000000000000000000000000000000000000000000000000000000815260040161148d9190612a22565b60405180910390fd5b5050565b6114a48282610981565b6115775760016007600084815260200190815260200160002060000160008373ffffffffffffffffffffffffffffffffffffffff1673ffffffffffffffffffffffffffffffffffffffff16815260200190815260200160002060006101000a81548160ff02191690831515021790555061151c610ff7565b73ffffffffffffffffffffffffffffffffffffffff168173ffffffffffffffffffffffffffffffffffffffff16837f2f8788117e7eff1d82e926ec794901d17c78024a50270940304540a733656f0d60405160405180910390a45b5050565b6115858282610981565b156116595760006007600084815260200190815260200160002060000160008373ffffffffffffffffffffffffffffffffffffffff1673ffffffffffffffffffffffffffffffffffffffff16815260200190815260200160002060006101000a81548160ff0219169083151502179055506115fe610ff7565b73ffffffffffffffffffffffffffffffffffffffff168173ffffffffffffffffffffffffffffffffffffffff16837ff6391f5c32d9c69d2a47ea670b442974b53935d1edc7fd64eb21e047a839171b60405160405180910390a45b5050565b8173ffffffffffffffffffffffffffffffffffffffff168373ffffffffffffffffffffffffffffffffffffffff1614156116cc576040517f08c379a00000000000000000000000000000000000000000000000000000000081526004016116c390613999565b60405180910390fd5b80600560008573ffffffffffffffffffffffffffffffffffffffff1673ffffffffffffffffffffffffffffffffffffffff16815260200190815260200160002060008473ffffffffffffffffffffffffffffffffffffffff1673ffffffffffffffffffffffffffffffffffffffff16815260200190815260200160002060006101000a81548160ff0219169083151502179055508173ffffffffffffffffffffffffffffffffffffffff168373ffffffffffffffffffffffffffffffffffffffff167f17307eab39ab6107e8899845ad3d59bd9653f200f220920489ca2b5937696c31836040516117bd919061296e565b60405180910390a3505050565b6117d5848484611196565b6117e184848484611cbc565b611820576040517f08c379a000000000000000000000000000000000000000000000000000000000815260040161181790613a2b565b60405180910390fd5b50505050565b606060405180602001604052806000815250905090565b606061184882610f8b565b611887576040517f08c379a000000000000000000000000000000000000000000000000000000000815260040161187e90613abd565b60405180910390fd5b6000611891611826565b905060008151116118b157604051806020016040528060008152506118dc565b806118bb84611e53565b6040516020016118cc9291906134e4565b6040516020818303038152906040525b915050919050565b6000806118f083611fb4565b905061194e818480602001906119069190613add565b8080601f016020809104026020016040519081016040528093929190818152602001838380828437600081840152601f19601f82011690508083019250505050505050612033565b915050919050565b6001816000016000828254019250508190555050565b600081600001549050919050565b61199482826040518060200160405280600081525061205a565b5050565b6119a182610f8b565b6119e0576040517f08c379a00000000000000000000000000000000000000000000000000000000081526004016119d790613bb2565b60405180910390fd5b80600660008481526020019081526020016000209080519060200190611a07929190612817565b505050565b60007f01ffc9a7000000000000000000000000000000000000000000000000000000007bffffffffffffffffffffffffffffffffffffffffffffffffffffffff1916827bffffffffffffffffffffffffffffffffffffffffffffffffffffffff1916149050919050565b505050565b505050565b606060006002836002611a939190613bd2565b611a9d9190613825565b67ffffffffffffffff811115611ab657611ab5612d5c565b5b6040519080825280601f01601f191660200182016040528015611ae85781602001600182028036833780820191505090505b5090507f300000000000000000000000000000000000000000000000000000000000000081600081518110611b2057611b1f613c2c565b5b60200101907effffffffffffffffffffffffffffffffffffffffffffffffffffffffffffff1916908160001a9053507f780000000000000000000000000000000000000000000000000000000000000081600181518110611b8457611b83613c2c565b5b60200101907effffffffffffffffffffffffffffffffffffffffffffffffffffffffffffff1916908160001a90535060006001846002611bc49190613bd2565b611bce9190613825565b90505b6001811115611c6e577f3031323334353637383961626364656600000000000000000000000000000000600f861660108110611c1057611c0f613c2c565b5b1a60f81b828281518110611c2757611c26613c2c565b5b60200101907effffffffffffffffffffffffffffffffffffffffffffffffffffffffffffff1916908160001a905350600485901c945080611c6790613c5b565b9050611bd1565b5060008414611cb2576040517f08c379a0000000000000000000000000000000000000000000000000000000008152600401611ca990613cd1565b60405180910390fd5b8091505092915050565b6000611cdd8473ffffffffffffffffffffffffffffffffffffffff166120b5565b15611e46578373ffffffffffffffffffffffffffffffffffffffff1663150b7a02611d06610ff7565b8786866040518563ffffffff1660e01b8152600401611d289493929190613d46565b602060405180830381600087803b158015611d4257600080fd5b505af1925050508015611d7357506040513d601f19601f82011682018060405250810190611d709190613da7565b60015b611df6573d8060008114611da3576040519150601f19603f3d011682016040523d82523d6000602084013e611da8565b606091505b50600081511415611dee576040517f08c379a0000000000000000000000000000000000000000000000000000000008152600401611de590613a2b565b60405180910390fd5b805181602001fd5b63150b7a0260e01b7bffffffffffffffffffffffffffffffffffffffffffffffffffffffff1916817bffffffffffffffffffffffffffffffffffffffffffffffffffffffff191614915050611e4b565b600190505b949350505050565b60606000821415611e9b576040518060400160405280600181526020017f30000000000000000000000000000000000000000000000000000000000000008152509050611faf565b600082905060005b60008214611ecd578080611eb690613dd4565b915050600a82611ec69190613e4c565b9150611ea3565b60008167ffffffffffffffff811115611ee957611ee8612d5c565b5b6040519080825280601f01601f191660200182016040528015611f1b5781602001600182028036833780820191505090505b5090505b60008514611fa857600182611f3491906137f1565b9150600a85611f439190613e7d565b6030611f4f9190613825565b60f81b818381518110611f6557611f64613c2c565b5b60200101907effffffffffffffffffffffffffffffffffffffffffffffffffffffffffffff1916908160001a905350600a85611fa19190613e4c565b9450611f1f565b8093505050505b919050565b600061202c7f327f1f0516d1c055a517251f99e01a6540953a36efc030821399477ee4dbb2c0838060000190611fea91906135a9565b604051611ff8929190613ede565b6040518091039020604051602001612011929190613ef7565b604051602081830303815290604052805190602001206120d8565b9050919050565b600080600061204285856120f2565b9150915061204f81612175565b819250505092915050565b612064838361234a565b6120716000848484611cbc565b6120b0576040517f08c379a00000000000000000000000000000000000000000000000000000000081526004016120a790613a2b565b60405180910390fd5b505050565b6000808273ffffffffffffffffffffffffffffffffffffffff163b119050919050565b60006120eb6120e5612524565b8361263e565b9050919050565b6000806041835114156121345760008060006020860151925060408601519150606086015160001a905061212887828585612671565b9450945050505061216e565b60408351141561216557600080602085015191506040850151905061215a86838361277e565b93509350505061216e565b60006002915091505b9250929050565b6000600481111561218957612188613f20565b5b81600481111561219c5761219b613f20565b5b14156121a757612347565b600160048111156121bb576121ba613f20565b5b8160048111156121ce576121cd613f20565b5b141561220f576040517f08c379a000000000000000000000000000000000000000000000000000000000815260040161220690613f9b565b60405180910390fd5b6002600481111561222357612222613f20565b5b81600481111561223657612235613f20565b5b1415612277576040517f08c379a000000000000000000000000000000000000000000000000000000000815260040161226e90614007565b60405180910390fd5b6003600481111561228b5761228a613f20565b5b81600481111561229e5761229d613f20565b5b14156122df576040517f08c379a00000000000000000000000000000000000000000000000000000000081526004016122d690614099565b60405180910390fd5b6004808111156122f2576122f1613f20565b5b81600481111561230557612304613f20565b5b1415612346576040517f08c379a000000000000000000000000000000000000000000000000000000000815260040161233d9061412b565b60405180910390fd5b5b50565b600073ffffffffffffffffffffffffffffffffffffffff168273ffffffffffffffffffffffffffffffffffffffff1614156123ba576040517f08c379a00000000000000000000000000000000000000000000000000000000081526004016123b190614197565b60405180910390fd5b6123c381610f8b565b15612403576040517f08c379a00000000000000000000000000000000000000000000000000000000081526004016123fa90614203565b60405180910390fd5b61240f60008383611a76565b6001600360008473ffffffffffffffffffffffffffffffffffffffff1673ffffffffffffffffffffffffffffffffffffffff168152602001908152602001600020600082825461245f9190613825565b92505081905550816002600083815260200190815260200160002060006101000a81548173ffffffffffffffffffffffffffffffffffffffff021916908373ffffffffffffffffffffffffffffffffffffffff160217905550808273ffffffffffffffffffffffffffffffffffffffff16600073ffffffffffffffffffffffffffffffffffffffff167fddf252ad1be2c89b69c2b068fc378daa952ba7f163c4a11628f55a4df523b3ef60405160405180910390a461252060008383611a7b565b5050565b60007f000000000000000000000000000000000000000000000000000000000000000073ffffffffffffffffffffffffffffffffffffffff163073ffffffffffffffffffffffffffffffffffffffff161480156125a057507f000000000000000000000000000000000000000000000000000000000000000046145b156125cd577f0000000000000000000000000000000000000000000000000000000000000000905061263b565b6126387f00000000000000000000000000000000000000000000000000000000000000007f00000000000000000000000000000000000000000000000000000000000000007f00000000000000000000000000000000000000000000000000000000000000006127dd565b90505b90565b60008282604051602001612653929190614290565b60405160208183030381529060405280519060200120905092915050565b6000807f7fffffffffffffffffffffffffffffff5d576e7357a4501ddfe92f46681b20a08360001c11156126ac576000600391509150612775565b601b8560ff16141580156126c45750601c8560ff1614155b156126d6576000600491509150612775565b6000600187878787604051600081526020016040526040516126fb94939291906142e3565b6020604051602081039080840390855afa15801561271d573d6000803e3d6000fd5b505050602060405103519050600073ffffffffffffffffffffffffffffffffffffffff168173ffffffffffffffffffffffffffffffffffffffff16141561276c57600060019250925050612775565b80600092509250505b94509492505050565b60008060007f7fffffffffffffffffffffffffffffffffffffffffffffffffffffffffffffff60001b841690506000601b60ff8660001c901c6127c19190613825565b90506127cf87828885612671565b935093505050935093915050565b600083838346306040516020016127f8959493929190614328565b6040516020818303038152906040528051906020012090509392505050565b82805461282390612fe6565b90600052602060002090601f016020900481019282612845576000855561288c565b82601f1061285e57805160ff191683800117855561288c565b8280016001018555821561288c579182015b8281111561288b578251825591602001919060010190612870565b5b509050612899919061289d565b5090565b5b808211156128b657600081600090555060010161289e565b5090565b6000604051905090565b600080fd5b600080fd5b60007fffffffff0000000000000000000000000000000000000000000000000000000082169050919050565b612903816128ce565b811461290e57600080fd5b50565b600081359050612920816128fa565b92915050565b60006020828403121561293c5761293b6128c4565b5b600061294a84828501612911565b91505092915050565b60008115159050919050565b61296881612953565b82525050565b6000602082019050612983600083018461295f565b92915050565b600081519050919050565b600082825260208201905092915050565b60005b838110156129c35780820151818401526020810190506129a8565b838111156129d2576000848401525b50505050565b6000601f19601f8301169050919050565b60006129f482612989565b6129fe8185612994565b9350612a0e8185602086016129a5565b612a17816129d8565b840191505092915050565b60006020820190508181036000830152612a3c81846129e9565b905092915050565b6000819050919050565b612a5781612a44565b8114612a6257600080fd5b50565b600081359050612a7481612a4e565b92915050565b600060208284031215612a9057612a8f6128c4565b5b6000612a9e84828501612a65565b91505092915050565b600073ffffffffffffffffffffffffffffffffffffffff82169050919050565b6000612ad282612aa7565b9050919050565b612ae281612ac7565b82525050565b6000602082019050612afd6000830184612ad9565b92915050565b612b0c81612ac7565b8114612b1757600080fd5b50565b600081359050612b2981612b03565b92915050565b60008060408385031215612b4657612b456128c4565b5b6000612b5485828601612b1a565b9250506020612b6585828601612a65565b9150509250929050565b600080600060608486031215612b8857612b876128c4565b5b6000612b9686828701612b1a565b9350506020612ba786828701612b1a565b9250506040612bb886828701612a65565b9150509250925092565b6000819050919050565b612bd581612bc2565b8114612be057600080fd5b50565b600081359050612bf281612bcc565b92915050565b600060208284031215612c0e57612c0d6128c4565b5b6000612c1c84828501612be3565b91505092915050565b612c2e81612bc2565b82525050565b6000602082019050612c496000830184612c25565b92915050565b60008060408385031215612c6657612c656128c4565b5b6000612c7485828601612be3565b9250506020612c8585828601612b1a565b9150509250929050565b612c9881612a44565b82525050565b6000602082019050612cb36000830184612c8f565b92915050565b600060208284031215612ccf57612cce6128c4565b5b6000612cdd84828501612b1a565b91505092915050565b612cef81612953565b8114612cfa57600080fd5b50565b600081359050612d0c81612ce6565b92915050565b60008060408385031215612d2957612d286128c4565b5b6000612d3785828601612b1a565b9250506020612d4885828601612cfd565b9150509250929050565b600080fd5b600080fd5b7f4e487b7100000000000000000000000000000000000000000000000000000000600052604160045260246000fd5b612d94826129d8565b810181811067ffffffffffffffff82111715612db357612db2612d5c565b5b80604052505050565b6000612dc66128ba565b9050612dd28282612d8b565b919050565b600067ffffffffffffffff821115612df257612df1612d5c565b5b612dfb826129d8565b9050602081019050919050565b82818337600083830152505050565b6000612e2a612e2584612dd7565b612dbc565b905082815260208101848484011115612e4657612e45612d57565b5b612e51848285612e08565b509392505050565b600082601f830112612e6e57612e6d612d52565b5b8135612e7e848260208601612e17565b91505092915050565b60008060008060808587031215612ea157612ea06128c4565b5b6000612eaf87828801612b1a565b9450506020612ec087828801612b1a565b9350506040612ed187828801612a65565b925050606085013567ffffffffffffffff811115612ef257612ef16128c9565b5b612efe87828801612e59565b91505092959194509250565b600080fd5b600060408284031215612f2557612f24612f0a565b5b81905092915050565b600060208284031215612f4457612f436128c4565b5b600082013567ffffffffffffffff811115612f6257612f616128c9565b5b612f6e84828501612f0f565b91505092915050565b60008060408385031215612f8e57612f8d6128c4565b5b6000612f9c85828601612b1a565b9250506020612fad85828601612b1a565b9150509250929050565b7f4e487b7100000000000000000000000000000000000000000000000000000000600052602260045260246000fd5b60006002820490506001821680612ffe57607f821691505b6020821081141561301257613011612fb7565b5b50919050565b7f4552433732313a20617070726f76656420717565727920666f72206e6f6e657860008201527f697374656e7420746f6b656e0000000000000000000000000000000000000000602082015250565b6000613074602c83612994565b915061307f82613018565b604082019050919050565b600060208201905081810360008301526130a381613067565b9050919050565b7f4552433732313a20617070726f76616c20746f2063757272656e74206f776e6560008201527f7200000000000000000000000000000000000000000000000000000000000000602082015250565b6000613106602183612994565b9150613111826130aa565b604082019050919050565b60006020820190508181036000830152613135816130f9565b9050919050565b7f4552433732313a20617070726f76652063616c6c6572206973206e6f74206f7760008201527f6e6572206e6f7220617070726f76656420666f7220616c6c0000000000000000602082015250565b6000613198603883612994565b91506131a38261313c565b604082019050919050565b600060208201905081810360008301526131c78161318b565b9050919050565b7f4552433732313a207472616e736665722063616c6c6572206973206e6f74206f60008201527f776e6572206e6f7220617070726f766564000000000000000000000000000000602082015250565b600061322a603183612994565b9150613235826131ce565b604082019050919050565b600060208201905081810360008301526132598161321d565b9050919050565b7f416363657373436f6e74726f6c3a2063616e206f6e6c792072656e6f756e636560008201527f20726f6c657320666f722073656c660000000000000000000000000000000000602082015250565b60006132bc602f83612994565b91506132c782613260565b604082019050919050565b600060208201905081810360008301526132eb816132af565b9050919050565b7f4552433732313a206f776e657220717565727920666f72206e6f6e657869737460008201527f656e7420746f6b656e0000000000000000000000000000000000000000000000602082015250565b600061334e602983612994565b9150613359826132f2565b604082019050919050565b6000602082019050818103600083015261337d81613341565b9050919050565b7f4552433732313a2062616c616e636520717565727920666f7220746865207a6560008201527f726f206164647265737300000000000000000000000000000000000000000000602082015250565b60006133e0602a83612994565b91506133eb82613384565b604082019050919050565b6000602082019050818103600083015261340f816133d3565b9050919050565b7f45524337323155524953746f726167653a2055524920717565727920666f722060008201527f6e6f6e6578697374656e7420746f6b656e000000000000000000000000000000602082015250565b6000613472603183612994565b915061347d82613416565b604082019050919050565b600060208201905081810360008301526134a181613465565b9050919050565b600081905092915050565b60006134be82612989565b6134c881856134a8565b93506134d88185602086016129a5565b80840191505092915050565b60006134f082856134b3565b91506134fc82846134b3565b91508190509392505050565b7f5369676e617475726520696e76616c6964206f7220756e617574686f72697a6560008201527f6400000000000000000000000000000000000000000000000000000000000000602082015250565b6000613564602183612994565b915061356f82613508565b604082019050919050565b6000602082019050818103600083015261359381613557565b9050919050565b600080fd5b600080fd5b600080fd5b600080833560016020038436030381126135c6576135c561359a565b5b80840192508235915067ffffffffffffffff8211156135e8576135e761359f565b5b602083019250600182023603831315613604576136036135a4565b5b509250929050565b7f4552433732313a206f70657261746f7220717565727920666f72206e6f6e657860008201527f697374656e7420746f6b656e0000000000000000000000000000000000000000602082015250565b6000613668602c83612994565b91506136738261360c565b604082019050919050565b600060208201905081810360008301526136978161365b565b9050919050565b7f4552433732313a207472616e736665722066726f6d20696e636f72726563742060008201527f6f776e6572000000000000000000000000000000000000000000000000000000602082015250565b60006136fa602583612994565b91506137058261369e565b604082019050919050565b60006020820190508181036000830152613729816136ed565b9050919050565b7f4552433732313a207472616e7366657220746f20746865207a65726f2061646460008201527f7265737300000000000000000000000000000000000000000000000000000000602082015250565b600061378c602483612994565b915061379782613730565b604082019050919050565b600060208201905081810360008301526137bb8161377f565b9050919050565b7f4e487b7100000000000000000000000000000000000000000000000000000000600052601160045260246000fd5b60006137fc82612a44565b915061380783612a44565b92508282101561381a576138196137c2565b5b828203905092915050565b600061383082612a44565b915061383b83612a44565b9250827fffffffffffffffffffffffffffffffffffffffffffffffffffffffffffffffff038211156138705761386f6137c2565b5b828201905092915050565b7f416363657373436f6e74726f6c3a206163636f756e7420000000000000000000600082015250565b60006138b16017836134a8565b91506138bc8261387b565b601782019050919050565b7f206973206d697373696e6720726f6c6520000000000000000000000000000000600082015250565b60006138fd6011836134a8565b9150613908826138c7565b601182019050919050565b600061391e826138a4565b915061392a82856134b3565b9150613935826138f0565b915061394182846134b3565b91508190509392505050565b7f4552433732313a20617070726f766520746f2063616c6c657200000000000000600082015250565b6000613983601983612994565b915061398e8261394d565b602082019050919050565b600060208201905081810360008301526139b281613976565b9050919050565b7f4552433732313a207472616e7366657220746f206e6f6e20455243373231526560008201527f63656976657220696d706c656d656e7465720000000000000000000000000000602082015250565b6000613a15603283612994565b9150613a20826139b9565b604082019050919050565b60006020820190508181036000830152613a4481613a08565b9050919050565b7f4552433732314d657461646174613a2055524920717565727920666f72206e6f60008201527f6e6578697374656e7420746f6b656e0000000000000000000000000000000000602082015250565b6000613aa7602f83612994565b9150613ab282613a4b565b604082019050919050565b60006020820190508181036000830152613ad681613a9a565b9050919050565b60008083356001602003843603038112613afa57613af961359a565b5b80840192508235915067ffffffffffffffff821115613b1c57613b1b61359f565b5b602083019250600182023603831315613b3857613b376135a4565b5b509250929050565b7f45524337323155524953746f726167653a2055524920736574206f66206e6f6e60008201527f6578697374656e7420746f6b656e000000000000000000000000000000000000602082015250565b6000613b9c602e83612994565b9150613ba782613b40565b604082019050919050565b60006020820190508181036000830152613bcb81613b8f565b9050919050565b6000613bdd82612a44565b9150613be883612a44565b9250817fffffffffffffffffffffffffffffffffffffffffffffffffffffffffffffffff0483118215151615613c2157613c206137c2565b5b828202905092915050565b7f4e487b7100000000000000000000000000000000000000000000000000000000600052603260045260246000fd5b6000613c6682612a44565b91506000821415613c7a57613c796137c2565b5b600182039050919050565b7f537472696e67733a20686578206c656e67746820696e73756666696369656e74600082015250565b6000613cbb602083612994565b9150613cc682613c85565b602082019050919050565b60006020820190508181036000830152613cea81613cae565b9050919050565b600081519050919050565b600082825260208201905092915050565b6000613d1882613cf1565b613d228185613cfc565b9350613d328185602086016129a5565b613d3b816129d8565b840191505092915050565b6000608082019050613d5b6000830187612ad9565b613d686020830186612ad9565b613d756040830185612c8f565b8181036060830152613d878184613d0d565b905095945050505050565b600081519050613da1816128fa565b92915050565b600060208284031215613dbd57613dbc6128c4565b5b6000613dcb84828501613d92565b91505092915050565b6000613ddf82612a44565b91507fffffffffffffffffffffffffffffffffffffffffffffffffffffffffffffffff821415613e1257613e116137c2565b5b600182019050919050565b7f4e487b7100000000000000000000000000000000000000000000000000000000600052601260045260246000fd5b6000613e5782612a44565b9150613e6283612a44565b925082613e7257613e71613e1d565b5b828204905092915050565b6000613e8882612a44565b9150613e9383612a44565b925082613ea357613ea2613e1d565b5b828206905092915050565b600081905092915050565b6000613ec58385613eae565b9350613ed2838584612e08565b82840190509392505050565b6000613eeb828486613eb9565b91508190509392505050565b6000604082019050613f0c6000830185612c25565b613f196020830184612c25565b9392505050565b7f4e487b7100000000000000000000000000000000000000000000000000000000600052602160045260246000fd5b7f45434453413a20696e76616c6964207369676e61747572650000000000000000600082015250565b6000613f85601883612994565b9150613f9082613f4f565b602082019050919050565b60006020820190508181036000830152613fb481613f78565b9050919050565b7f45434453413a20696e76616c6964207369676e6174757265206c656e67746800600082015250565b6000613ff1601f83612994565b9150613ffc82613fbb565b602082019050919050565b6000602082019050818103600083015261402081613fe4565b9050919050565b7f45434453413a20696e76616c6964207369676e6174757265202773272076616c60008201527f7565000000000000000000000000000000000000000000000000000000000000602082015250565b6000614083602283612994565b915061408e82614027565b604082019050919050565b600060208201905081810360008301526140b281614076565b9050919050565b7f45434453413a20696e76616c6964207369676e6174757265202776272076616c60008201527f7565000000000000000000000000000000000000000000000000000000000000602082015250565b6000614115602283612994565b9150614120826140b9565b604082019050919050565b6000602082019050818103600083015261414481614108565b9050919050565b7f4552433732313a206d696e7420746f20746865207a65726f2061646472657373600082015250565b6000614181602083612994565b915061418c8261414b565b602082019050919050565b600060208201905081810360008301526141b081614174565b9050919050565b7f4552433732313a20746f6b656e20616c7265616479206d696e74656400000000600082015250565b60006141ed601c83612994565b91506141f8826141b7565b602082019050919050565b6000602082019050818103600083015261421c816141e0565b9050919050565b7f1901000000000000000000000000000000000000000000000000000000000000600082015250565b60006142596002836134a8565b915061426482614223565b600282019050919050565b6000819050919050565b61428a61428582612bc2565b61426f565b82525050565b600061429b8261424c565b91506142a78285614279565b6020820191506142b78284614279565b6020820191508190509392505050565b600060ff82169050919050565b6142dd816142c7565b82525050565b60006080820190506142f86000830187612c25565b61430560208301866142d4565b6143126040830185612c25565b61431f6060830184612c25565b95945050505050565b600060a08201905061433d6000830188612c25565b61434a6020830187612c25565b6143576040830186612c25565b6143646060830185612c8f565b6143716080830184612ad9565b969550505050505056fea2646970667358221220f8c89fec6e13ead50e0bf2319da0c2a338e25d66685d29a5c59f643b7f22ad9d64736f6c63430008090033",
  "linkReferences": {},
  "deployedLinkReferences": {}
}